{"contracts/LiquidityPool.sol":{"LiquidityPool":{"abi":[{"inputs":[{"internalType":"string","name":"_name","type":"string"},{"internalType":"string","name":"_symbol","type":"string"}],"stateMutability":"nonpayable","type":"constructor"},{"anonymous":false,"inputs":[{"indexed":true,"internalType":"address","name":"_owner","type":"address"},{"indexed":true,"internalType":"address","name":"_spender","type":"address"},{"indexed":false,"internalType":"uint256","name":"_value","type":"uint256"}],"name":"Approval","type":"event"},{"anonymous":false,"inputs":[{"indexed":true,"internalType":"address","name":"from","type":"address"},{"indexed":false,"internalType":"uint256","name":"value","type":"uint256"}],"name":"Burn","type":"event"},{"anonymous":false,"inputs":[{"indexed":true,"internalType":"address","name":"from","type":"address"},{"indexed":false,"internalType":"uint256","name":"value","type":"uint256"}],"name":"Mint","type":"event"},{"anonymous":false,"inputs":[{"indexed":true,"internalType":"address","name":"from","type":"address"},{"indexed":false,"internalType":"uint256","name":"amountTokenA","type":"uint256"},{"indexed":false,"internalType":"uint256","name":"amountTokenB","type":"uint256"}],"name":"MintLPToken","type":"event"},{"anonymous":false,"inputs":[{"indexed":false,"internalType":"uint256","name":"reserveTokenA","type":"uint256"},{"indexed":false,"internalType":"uint256","name":"reserveTokenB","type":"uint256"}],"name":"Sync","type":"event"},{"anonymous":false,"inputs":[{"indexed":true,"internalType":"address","name":"from","type":"address"},{"indexed":true,"internalType":"address","name":"to","type":"address"},{"indexed":false,"internalType":"uint256","name":"value","type":"uint256"}],"name":"Transfer","type":"event"},{"inputs":[{"internalType":"uint256","name":"_amountTokenA","type":"uint256"},{"internalType":"uint256","name":"_amountTokenB","type":"uint256"},{"internalType":"address","name":"_tokenA","type":"address"},{"internalType":"address","name":"_tokenB","type":"address"}],"name":"addLiquidity","outputs":[{"internalType":"bool","name":"success","type":"bool"}],"stateMutability":"nonpayable","type":"function"},{"inputs":[],"name":"addressTokenA","outputs":[{"internalType":"address","name":"","type":"address"}],"stateMutability":"view","type":"function"},{"inputs":[],"name":"addressTokenB","outputs":[{"internalType":"address","name":"","type":"address"}],"stateMutability":"view","type":"function"},{"inputs":[{"internalType":"uint256","name":"","type":"uint256"}],"name":"allLiquidityPools","outputs":[{"internalType":"address","name":"","type":"address"}],"stateMutability":"view","type":"function"},{"inputs":[{"internalType":"address","name":"","type":"address"},{"internalType":"address","name":"","type":"address"}],"name":"allowance","outputs":[{"internalType":"uint256","name":"","type":"uint256"}],"stateMutability":"view","type":"function"},{"inputs":[{"internalType":"address","name":"_spender","type":"address"},{"internalType":"uint256","name":"_value","type":"uint256"}],"name":"approve","outputs":[{"internalType":"bool","name":"success","type":"bool"}],"stateMutability":"nonpayable","type":"function"},{"inputs":[{"internalType":"address","name":"","type":"address"}],"name":"balanceOf","outputs":[{"internalType":"uint256","name":"","type":"uint256"}],"stateMutability":"view","type":"function"},{"inputs":[{"internalType":"uint256","name":"_value","type":"uint256"}],"name":"burn","outputs":[{"internalType":"bool","name":"success","type":"bool"}],"stateMutability":"nonpayable","type":"function"},{"inputs":[{"internalType":"string","name":"_name","type":"string"},{"internalType":"string","name":"_symbol","type":"string"},{"internalType":"address","name":"_tokenA","type":"address"},{"internalType":"address","name":"_tokenB","type":"address"}],"name":"createLiquidityPool","outputs":[{"internalType":"address","name":"","type":"address"}],"stateMutability":"nonpayable","type":"function"},{"inputs":[{"internalType":"address","name":"_tokenAddress","type":"address"},{"internalType":"uint256","name":"amountToken","type":"uint256"}],"name":"getAmountToken","outputs":[{"internalType":"uint256","name":"actualPriceofToken","type":"uint256"}],"stateMutability":"view","type":"function"},{"inputs":[{"internalType":"address","name":"","type":"address"},{"internalType":"address","name":"","type":"address"}],"name":"getLiquidityPool","outputs":[{"internalType":"address","name":"","type":"address"}],"stateMutability":"view","type":"function"},{"inputs":[],"name":"name","outputs":[{"internalType":"string","name":"","type":"string"}],"stateMutability":"view","type":"function"},{"inputs":[],"name":"owner","outputs":[{"internalType":"address","name":"","type":"address"}],"stateMutability":"view","type":"function"},{"inputs":[],"name":"priceTokenA","outputs":[{"internalType":"uint256","name":"","type":"uint256"}],"stateMutability":"view","type":"function"},{"inputs":[],"name":"priceTokenB","outputs":[{"internalType":"uint256","name":"","type":"uint256"}],"stateMutability":"view","type":"function"},{"inputs":[{"internalType":"uint256","name":"_liquidityShares","type":"uint256"}],"name":"removeLiquidity","outputs":[{"internalType":"uint256","name":"_amountTokenA","type":"uint256"},{"internalType":"uint256","name":"_amountTokenB","type":"uint256"}],"stateMutability":"nonpayable","type":"function"},{"inputs":[],"name":"reserveTokenA","outputs":[{"internalType":"uint256","name":"","type":"uint256"}],"stateMutability":"view","type":"function"},{"inputs":[],"name":"reserveTokenB","outputs":[{"internalType":"uint256","name":"","type":"uint256"}],"stateMutability":"view","type":"function"},{"inputs":[],"name":"symbol","outputs":[{"internalType":"string","name":"","type":"string"}],"stateMutability":"view","type":"function"},{"inputs":[],"name":"sync","outputs":[],"stateMutability":"nonpayable","type":"function"},{"inputs":[],"name":"totalLiquidity","outputs":[{"internalType":"uint256","name":"","type":"uint256"}],"stateMutability":"view","type":"function"},{"inputs":[],"name":"totalSupply","outputs":[{"internalType":"uint256","name":"","type":"uint256"}],"stateMutability":"view","type":"function"},{"inputs":[{"internalType":"address","name":"_to","type":"address"},{"internalType":"uint256","name":"_value","type":"uint256"}],"name":"transfer","outputs":[{"internalType":"bool","name":"success","type":"bool"}],"stateMutability":"nonpayable","type":"function"},{"inputs":[{"internalType":"address","name":"_from","type":"address"},{"internalType":"address","name":"_to","type":"address"},{"internalType":"uint256","name":"_value","type":"uint256"}],"name":"transferFrom","outputs":[{"internalType":"bool","name":"success","type":"bool"}],"stateMutability":"nonpayable","type":"function"},{"inputs":[{"internalType":"address","name":"","type":"address"}],"name":"userLiquidity","outputs":[{"internalType":"uint256","name":"","type":"uint256"}],"stateMutability":"view","type":"function"}],"evm":{"bytecode":{"linkReferences":{},"object":"60806040523480156200001157600080fd5b50604051620052e6380380620052e683398181016040528101906200003791906200028b565b6000828282600281905550600254600360003373ffffffffffffffffffffffffffffffffffffffff1673ffffffffffffffffffffffffffffffffffffffff1681526020019081526020016000208190555081600090816200009991906200055b565b508060019081620000ab91906200055b565b5050505033600760006101000a81548173ffffffffffffffffffffffffffffffffffffffff021916908373ffffffffffffffffffffffffffffffffffffffff160217905550505062000642565b6000604051905090565b600080fd5b600080fd5b600080fd5b600080fd5b6000601f19601f8301169050919050565b7f4e487b7100000000000000000000000000000000000000000000000000000000600052604160045260246000fd5b620001618262000116565b810181811067ffffffffffffffff8211171562000183576200018262000127565b5b80604052505050565b600062000198620000f8565b9050620001a6828262000156565b919050565b600067ffffffffffffffff821115620001c957620001c862000127565b5b620001d48262000116565b9050602081019050919050565b60005b8381101562000201578082015181840152602081019050620001e4565b60008484015250505050565b6000620002246200021e84620001ab565b6200018c565b90508281526020810184848401111562000243576200024262000111565b5b62000250848285620001e1565b509392505050565b600082601f83011262000270576200026f6200010c565b5b8151620002828482602086016200020d565b91505092915050565b60008060408385031215620002a557620002a462000102565b5b600083015167ffffffffffffffff811115620002c657620002c562000107565b5b620002d48582860162000258565b925050602083015167ffffffffffffffff811115620002f857620002f762000107565b5b620003068582860162000258565b9150509250929050565b600081519050919050565b7f4e487b7100000000000000000000000000000000000000000000000000000000600052602260045260246000fd5b600060028204905060018216806200036357607f821691505b6020821081036200037957620003786200031b565b5b50919050565b60008190508160005260206000209050919050565b60006020601f8301049050919050565b600082821b905092915050565b600060088302620003e37fffffffffffffffffffffffffffffffffffffffffffffffffffffffffffffffff82620003a4565b620003ef8683620003a4565b95508019841693508086168417925050509392505050565b6000819050919050565b6000819050919050565b60006200043c62000436620004308462000407565b62000411565b62000407565b9050919050565b6000819050919050565b62000458836200041b565b62000470620004678262000443565b848454620003b1565b825550505050565b600090565b6200048762000478565b620004948184846200044d565b505050565b5b81811015620004bc57620004b06000826200047d565b6001810190506200049a565b5050565b601f8211156200050b57620004d5816200037f565b620004e08462000394565b81016020851015620004f0578190505b62000508620004ff8562000394565b83018262000499565b50505b505050565b600082821c905092915050565b6000620005306000198460080262000510565b1980831691505092915050565b60006200054b83836200051d565b9150826002028217905092915050565b620005668262000310565b67ffffffffffffffff81111562000582576200058162000127565b5b6200058e82546200034a565b6200059b828285620004c0565b600060209050601f831160018114620005d35760008415620005be578287015190505b620005ca85826200053d565b8655506200063a565b601f198416620005e3866200037f565b60005b828110156200060d57848901518255600182019150602085019450602081019050620005e6565b868310156200062d578489015162000629601f8916826200051d565b8355505b6001600288020188555050505b505050505050565b614c9480620006526000396000f3fe60806040523480156200001157600080fd5b5060043610620001965760003560e01c80638de6959b11620000f3578063c248320c11620000a5578063e9a7fb69116200007b578063e9a7fb691462000556578063f4f31ede1462000578578063f9c1d67714620005ae578063fff6cae914620005d05762000196565b8063c248320c14620004c8578063dcdf60e814620004ea578063dd62ed3e14620005205762000196565b80638de6959b14620003bf5780638fe4a56514620003e157806395d89b4114620004035780639c8f9f231462000425578063a9059cbb146200045c578063ba4c28c314620004925762000196565b806323b872dd116200014d57806323b872dd146200028f57806342966c6814620002c5578063597f670f14620002fb578063653d588d146200033157806370a0823114620003675780638da5cb5b146200039d5762000196565b806306fdde03146200019b578063095ea7b314620001bd5780630c6ed93214620001f357806315770f92146200022957806318160ddd146200024b57806319b16aa6146200026d575b600080fd5b620001a5620005dc565b604051620001b4919062002806565b60405180910390f35b620001db6004803603810190620001d59190620028de565b62000672565b604051620001ea919062002942565b60405180910390f35b6200021160048036038101906200020b919062002ab0565b62000766565b60405162000220919062002b71565b60405180910390f35b6200023362000d81565b60405162000242919062002b9f565b60405180910390f35b6200025562000d87565b60405162000264919062002b9f565b60405180910390f35b6200027762000d8d565b60405162000286919062002b9f565b60405180910390f35b620002ad6004803603810190620002a7919062002bbc565b62000d93565b604051620002bc919062002942565b60405180910390f35b620002e36004803603810190620002dd919062002c18565b62000f04565b604051620002f2919062002942565b60405180910390f35b620003196004803603810190620003139190620028de565b6200101f565b60405162000328919062002b9f565b60405180910390f35b6200034f600480360381019062000349919062002c4a565b62001207565b6040516200035e919062002942565b60405180910390f35b6200038560048036038101906200037f919062002cbc565b6200161a565b60405162000394919062002b9f565b60405180910390f35b620003a762001632565b604051620003b6919062002b71565b60405180910390f35b620003c962001658565b604051620003d8919062002b9f565b60405180910390f35b620003eb6200165e565b604051620003fa919062002b9f565b60405180910390f35b6200040d62001664565b6040516200041c919062002806565b60405180910390f35b6200044360048036038101906200043d919062002c18565b620016fa565b6040516200045392919062002cee565b60405180910390f35b6200047a6004803603810190620004749190620028de565b62001ada565b60405162000489919062002942565b60405180910390f35b620004b06004803603810190620004aa919062002cbc565b62001af3565b604051620004bf919062002b9f565b60405180910390f35b620004d262001b0b565b604051620004e1919062002b9f565b60405180910390f35b62000508600480360381019062000502919062002c18565b62001b11565b60405162000517919062002b71565b60405180910390f35b6200053e600480360381019062000538919062002d1b565b62001b51565b6040516200054d919062002b9f565b60405180910390f35b6200056062001b76565b6040516200056f919062002b71565b60405180910390f35b62000596600480360381019062000590919062002d1b565b62001b9c565b604051620005a5919062002b71565b60405180910390f35b620005b862001bde565b604051620005c7919062002b71565b60405180910390f35b620005da62001c04565b005b60008054620005eb9062002d91565b80601f0160208091040260200160405190810160405280929190818152602001828054620006199062002d91565b80156200066a5780601f106200063e576101008083540402835291602001916200066a565b820191906000526020600020905b8154815290600101906020018083116200064c57829003601f168201915b505050505081565b600081600460003373ffffffffffffffffffffffffffffffffffffffff1673ffffffffffffffffffffffffffffffffffffffff16815260200190815260200160002060008573ffffffffffffffffffffffffffffffffffffffff1673ffffffffffffffffffffffffffffffffffffffff168152602001908152602001600020819055508273ffffffffffffffffffffffffffffffffffffffff163373ffffffffffffffffffffffffffffffffffffffff167f8c5be1e5ebec7d5bd14f71427d1e84f3dd0314c0f7b2291e5b200ac8c7c3b9258460405162000754919062002b9f565b60405180910390a36001905092915050565b60008173ffffffffffffffffffffffffffffffffffffffff168373ffffffffffffffffffffffffffffffffffffffff1603620007d9576040517f08c379a0000000000000000000000000000000000000000000000000000000008152600401620007d09062002e16565b60405180910390fd5b600073ffffffffffffffffffffffffffffffffffffffff168373ffffffffffffffffffffffffffffffffffffffff16036200084b576040517f08c379a0000000000000000000000000000000000000000000000000000000008152600401620008429062002e88565b60405180910390fd5b600073ffffffffffffffffffffffffffffffffffffffff168273ffffffffffffffffffffffffffffffffffffffff1603620008bd576040517f08c379a0000000000000000000000000000000000000000000000000000000008152600401620008b49062002e88565b60405180910390fd5b600073ffffffffffffffffffffffffffffffffffffffff16600f60008573ffffffffffffffffffffffffffffffffffffffff1673ffffffffffffffffffffffffffffffffffffffff16815260200190815260200160002060008473ffffffffffffffffffffffffffffffffffffffff1673ffffffffffffffffffffffffffffffffffffffff16815260200190815260200160002060009054906101000a900473ffffffffffffffffffffffffffffffffffffffff1673ffffffffffffffffffffffffffffffffffffffff1614620009cb576040517f08c379a0000000000000000000000000000000000000000000000000000000008152600401620009c29062002efa565b60405180910390fd5b600073ffffffffffffffffffffffffffffffffffffffff16600f60008473ffffffffffffffffffffffffffffffffffffffff1673ffffffffffffffffffffffffffffffffffffffff16815260200190815260200160002060008573ffffffffffffffffffffffffffffffffffffffff1673ffffffffffffffffffffffffffffffffffffffff16815260200190815260200160002060009054906101000a900473ffffffffffffffffffffffffffffffffffffffff1673ffffffffffffffffffffffffffffffffffffffff161462000ad9576040517f08c379a000000000000000000000000000000000000000000000000000000000815260040162000ad09062002efa565b60405180910390fd5b600080868660405162000aec906200275e565b62000afa9392919062002f69565b604051809103906000f08015801562000b17573d6000803e3d6000fd5b50905083600560006101000a81548173ffffffffffffffffffffffffffffffffffffffff021916908373ffffffffffffffffffffffffffffffffffffffff16021790555082600660006101000a81548173ffffffffffffffffffffffffffffffffffffffff021916908373ffffffffffffffffffffffffffffffffffffffff16021790555080600f60008673ffffffffffffffffffffffffffffffffffffffff1673ffffffffffffffffffffffffffffffffffffffff16815260200190815260200160002060008573ffffffffffffffffffffffffffffffffffffffff1673ffffffffffffffffffffffffffffffffffffffff16815260200190815260200160002060006101000a81548173ffffffffffffffffffffffffffffffffffffffff021916908373ffffffffffffffffffffffffffffffffffffffff16021790555080600f60008573ffffffffffffffffffffffffffffffffffffffff1673ffffffffffffffffffffffffffffffffffffffff16815260200190815260200160002060008673ffffffffffffffffffffffffffffffffffffffff1673ffffffffffffffffffffffffffffffffffffffff16815260200190815260200160002060006101000a81548173ffffffffffffffffffffffffffffffffffffffff021916908373ffffffffffffffffffffffffffffffffffffffff1602179055506010819080600181540180825580915050600190039060005260206000200160009091909190916101000a81548173ffffffffffffffffffffffffffffffffffffffff021916908373ffffffffffffffffffffffffffffffffffffffff16021790555080915050949350505050565b600d5481565b60025481565b60095481565b6000600460008573ffffffffffffffffffffffffffffffffffffffff1673ffffffffffffffffffffffffffffffffffffffff16815260200190815260200160002060003373ffffffffffffffffffffffffffffffffffffffff1673ffffffffffffffffffffffffffffffffffffffff1681526020019081526020016000205482111562000e57576040517f08c379a000000000000000000000000000000000000000000000000000000000815260040162000e4e9062003004565b60405180910390fd5b81600460008673ffffffffffffffffffffffffffffffffffffffff1673ffffffffffffffffffffffffffffffffffffffff16815260200190815260200160002060003373ffffffffffffffffffffffffffffffffffffffff1673ffffffffffffffffffffffffffffffffffffffff168152602001908152602001600020600082825462000ee5919062003055565b9250508190555062000ef984848462001d58565b600190509392505050565b600081600360003373ffffffffffffffffffffffffffffffffffffffff1673ffffffffffffffffffffffffffffffffffffffff16815260200190815260200160002054101562000f5357600080fd5b81600360003373ffffffffffffffffffffffffffffffffffffffff1673ffffffffffffffffffffffffffffffffffffffff168152602001908152602001600020600082825462000fa4919062003055565b92505081905550816002600082825462000fbf919062003055565b925050819055503373ffffffffffffffffffffffffffffffffffffffff167fcc16f5dbb4873280815c1ee09dbd06736cffcc184412cf7a71a0fdb75d397ca5836040516200100e919062002b9f565b60405180910390a260019050919050565b6000806008541180156200103557506000600954115b62001077576040517f08c379a00000000000000000000000000000000000000000000000000000000081526004016200106e90620030e0565b60405180910390fd5b600080600560009054906101000a900473ffffffffffffffffffffffffffffffffffffffff1673ffffffffffffffffffffffffffffffffffffffff168573ffffffffffffffffffffffffffffffffffffffff1603620011385783600854620010e0919062003102565b91506000821115620011325781600254620010fc91906200316c565b905080600954116200111e576009548162001118919062003055565b6200112f565b806009546200112e919062003055565b5b92505b620011f2565b600660009054906101000a900473ffffffffffffffffffffffffffffffffffffffff1673ffffffffffffffffffffffffffffffffffffffff168573ffffffffffffffffffffffffffffffffffffffff1603620011f157836009546200119e919062003102565b91506000821115620011f05781600254620011ba91906200316c565b90508060085411620011dc5760085481620011d6919062003055565b620011ed565b80600854620011ec919062003055565b5b92505b5b5b620011fd83620020c3565b9250505092915050565b60008073ffffffffffffffffffffffffffffffffffffffff16600f60008573ffffffffffffffffffffffffffffffffffffffff1673ffffffffffffffffffffffffffffffffffffffff16815260200190815260200160002060008473ffffffffffffffffffffffffffffffffffffffff1673ffffffffffffffffffffffffffffffffffffffff16815260200190815260200160002060009054906101000a900473ffffffffffffffffffffffffffffffffffffffff1673ffffffffffffffffffffffffffffffffffffffff160362001316576040517f08c379a00000000000000000000000000000000000000000000000000000000081526004016200130d90620031f4565b60405180910390fd5b600073ffffffffffffffffffffffffffffffffffffffff16600f60008473ffffffffffffffffffffffffffffffffffffffff1673ffffffffffffffffffffffffffffffffffffffff16815260200190815260200160002060008573ffffffffffffffffffffffffffffffffffffffff1673ffffffffffffffffffffffffffffffffffffffff16815260200190815260200160002060009054906101000a900473ffffffffffffffffffffffffffffffffffffffff1673ffffffffffffffffffffffffffffffffffffffff160362001424576040517f08c379a00000000000000000000000000000000000000000000000000000000081526004016200141b90620031f4565b60405180910390fd5b6000600560009054906101000a900473ffffffffffffffffffffffffffffffffffffffff1690508073ffffffffffffffffffffffffffffffffffffffff166323b872dd3330896040518463ffffffff1660e01b81526004016200148a9392919062003216565b6020604051808303816000875af1158015620014aa573d6000803e3d6000fd5b505050506040513d601f19601f82011682018060405250810190620014d0919062003284565b62001512576040517f08c379a0000000000000000000000000000000000000000000000000000000008152600401620015099062003306565b60405180910390fd5b6000600660009054906101000a900473ffffffffffffffffffffffffffffffffffffffff1690508073ffffffffffffffffffffffffffffffffffffffff166323b872dd3330896040518463ffffffff1660e01b8152600401620015789392919062003216565b6020604051808303816000875af115801562001598573d6000803e3d6000fd5b505050506040513d601f19601f82011682018060405250810190620015be919062003284565b62001600576040517f08c379a0000000000000000000000000000000000000000000000000000000008152600401620015f79062003306565b60405180910390fd5b6200160b33620020e9565b50600192505050949350505050565b60036020528060005260406000206000915090505481565b600760009054906101000a900473ffffffffffffffffffffffffffffffffffffffff1681565b600c5481565b600b5481565b60018054620016739062002d91565b80601f0160208091040260200160405190810160405280929190818152602001828054620016a19062002d91565b8015620016f25780601f10620016c657610100808354040283529160200191620016f2565b820191906000526020600020905b815481529060010190602001808311620016d457829003601f168201915b505050505081565b60008082600e60003373ffffffffffffffffffffffffffffffffffffffff1673ffffffffffffffffffffffffffffffffffffffff16815260200190815260200160002054101562001782576040517f08c379a0000000000000000000000000000000000000000000000000000000008152600401620017799062003378565b60405180910390fd5b6000600560009054906101000a900473ffffffffffffffffffffffffffffffffffffffff1673ffffffffffffffffffffffffffffffffffffffff166370a08231306040518263ffffffff1660e01b8152600401620017e1919062002b71565b602060405180830381865afa158015620017ff573d6000803e3d6000fd5b505050506040513d601f19601f82011682018060405250810190620018259190620033b1565b90506000600660009054906101000a900473ffffffffffffffffffffffffffffffffffffffff1673ffffffffffffffffffffffffffffffffffffffff166370a08231306040518263ffffffff1660e01b815260040162001886919062002b71565b602060405180830381865afa158015620018a4573d6000803e3d6000fd5b505050506040513d601f19601f82011682018060405250810190620018ca9190620033b1565b90506000600d549050808387620018e29190620033e3565b620018ee91906200316c565b9450808287620018ff9190620033e3565b6200190b91906200316c565b93506000851180156200191e5750600084115b62001960576040517f08c379a000000000000000000000000000000000000000000000000000000000815260040162001957906200347e565b60405180910390fd5b6200196b8662000f04565b50620019783387620023b0565b620019868383878762002427565b600560009054906101000a900473ffffffffffffffffffffffffffffffffffffffff1673ffffffffffffffffffffffffffffffffffffffff1663a9059cbb33876040518363ffffffff1660e01b8152600401620019e5929190620034a0565b6020604051808303816000875af115801562001a05573d6000803e3d6000fd5b505050506040513d601f19601f8201168201806040525081019062001a2b919062003284565b50600660009054906101000a900473ffffffffffffffffffffffffffffffffffffffff1673ffffffffffffffffffffffffffffffffffffffff1663a9059cbb33866040518363ffffffff1660e01b815260040162001a8b929190620034a0565b6020604051808303816000875af115801562001aab573d6000803e3d6000fd5b505050506040513d601f19601f8201168201806040525081019062001ad1919062003284565b50505050915091565b600062001ae933848462001d58565b6001905092915050565b600e6020528060005260406000206000915090505481565b60085481565b6010818154811062001b2257600080fd5b906000526020600020016000915054906101000a900473ffffffffffffffffffffffffffffffffffffffff1681565b6004602052816000526040600020602052806000526040600020600091509150505481565b600560009054906101000a900473ffffffffffffffffffffffffffffffffffffffff1681565b600f6020528160005260406000206020528060005260406000206000915091509054906101000a900473ffffffffffffffffffffffffffffffffffffffff1681565b600660009054906101000a900473ffffffffffffffffffffffffffffffffffffffff1681565b62001d56600560009054906101000a900473ffffffffffffffffffffffffffffffffffffffff1673ffffffffffffffffffffffffffffffffffffffff166370a08231306040518263ffffffff1660e01b815260040162001c65919062002b71565b602060405180830381865afa15801562001c83573d6000803e3d6000fd5b505050506040513d601f19601f8201168201806040525081019062001ca99190620033b1565b600660009054906101000a900473ffffffffffffffffffffffffffffffffffffffff1673ffffffffffffffffffffffffffffffffffffffff166370a08231306040518263ffffffff1660e01b815260040162001d06919062002b71565b602060405180830381865afa15801562001d24573d6000803e3d6000fd5b505050506040513d601f19601f8201168201806040525081019062001d4a9190620033b1565b60085460095462002427565b565b600073ffffffffffffffffffffffffffffffffffffffff168273ffffffffffffffffffffffffffffffffffffffff160362001d9257600080fd5b80600360008573ffffffffffffffffffffffffffffffffffffffff1673ffffffffffffffffffffffffffffffffffffffff16815260200190815260200160002054101562001ddf57600080fd5b600360008373ffffffffffffffffffffffffffffffffffffffff1673ffffffffffffffffffffffffffffffffffffffff1681526020019081526020016000205481600360008573ffffffffffffffffffffffffffffffffffffffff1673ffffffffffffffffffffffffffffffffffffffff1681526020019081526020016000205462001e6c919062003102565b101562001e7857600080fd5b6000600360008473ffffffffffffffffffffffffffffffffffffffff1673ffffffffffffffffffffffffffffffffffffffff16815260200190815260200160002054600360008673ffffffffffffffffffffffffffffffffffffffff1673ffffffffffffffffffffffffffffffffffffffff1681526020019081526020016000205462001f06919062003102565b905081600360008673ffffffffffffffffffffffffffffffffffffffff1673ffffffffffffffffffffffffffffffffffffffff168152602001908152602001600020600082825462001f59919062003055565b9250508190555081600360008573ffffffffffffffffffffffffffffffffffffffff1673ffffffffffffffffffffffffffffffffffffffff168152602001908152602001600020600082825462001fb1919062003102565b925050819055508273ffffffffffffffffffffffffffffffffffffffff168473ffffffffffffffffffffffffffffffffffffffff167fddf252ad1be2c89b69c2b068fc378daa952ba7f163c4a11628f55a4df523b3ef8460405162002017919062002b9f565b60405180910390a380600360008573ffffffffffffffffffffffffffffffffffffffff1673ffffffffffffffffffffffffffffffffffffffff16815260200190815260200160002054600360008773ffffffffffffffffffffffffffffffffffffffff1673ffffffffffffffffffffffffffffffffffffffff16815260200190815260200160002054620020ac919062003102565b14620020bd57620020bc620034cd565b5b50505050565b600080821215620020e05781620020da9062003506565b620020e2565b815b9050919050565b600080600560009054906101000a900473ffffffffffffffffffffffffffffffffffffffff1673ffffffffffffffffffffffffffffffffffffffff166370a08231306040518263ffffffff1660e01b815260040162002149919062002b71565b602060405180830381865afa15801562002167573d6000803e3d6000fd5b505050506040513d601f19601f820116820180604052508101906200218d9190620033b1565b90506000600660009054906101000a900473ffffffffffffffffffffffffffffffffffffffff1673ffffffffffffffffffffffffffffffffffffffff166370a08231306040518263ffffffff1660e01b8152600401620021ee919062002b71565b602060405180830381865afa1580156200220c573d6000803e3d6000fd5b505050506040513d601f19601f82011682018060405250810190620022329190620033b1565b905060006008549050600060095490506000828562002252919062003055565b90506000828562002264919062003055565b9050600060025490506000810362002296576200228e8384620022889190620033e3565b62002537565b9750620022e5565b6000858285620022a79190620033e3565b620022b391906200316c565b90506000858385620022c69190620033e3565b620022d291906200316c565b9050620022e08282620025fd565b995050505b600088116200232b576040517f08c379a00000000000000000000000000000000000000000000000000000000081526004016200232290620035a3565b60405180910390fd5b62002337898962002618565b50620023448989620026e7565b620023528787878762002427565b3373ffffffffffffffffffffffffffffffffffffffff167fc324c34388e433281d128336df982824b8e77c37ee8572eb94f5d58cf38b010e84846040516200239c92919062002cee565b60405180910390a250505050505050919050565b80600e60008473ffffffffffffffffffffffffffffffffffffffff1673ffffffffffffffffffffffffffffffffffffffff168152602001908152602001600020600082825462002401919062003055565b9250508190555080600d60008282546200241c919062003055565b925050819055505050565b600084101580156200243a575060008310155b6200247c576040517f08c379a0000000000000000000000000000000000000000000000000000000008152600401620024739062003615565b60405180910390fd5b6000821180156200248d5750600081115b15620024e4578082620024a191906200316c565b600b6000828254620024b4919062003102565b925050819055508181620024c991906200316c565b600c6000828254620024dc919062003102565b925050819055505b83600881905550826009819055507fcf2aa50876cdfbb541206f89af0ee78d44a2abf8d328e37fa4917f982149848a6008546008546040516200252992919062002cee565b60405180910390a150505050565b60008082116200257e576040517f08c379a00000000000000000000000000000000000000000000000000000000081526004016200257590620036ad565b60405180910390fd5b60008203620025915760009050620025f8565b6000600283620025a291906200316c565b905060005b600a811015620025f25760028285620025c191906200316c565b83620025ce919062003102565b620025da91906200316c565b91508080620025e990620036cf565b915050620025a7565b50809150505b919050565b60008183106200260e578162002610565b825b905092915050565b600081600360008573ffffffffffffffffffffffffffffffffffffffff1673ffffffffffffffffffffffffffffffffffffffff16815260200190815260200160002060008282546200266b919062003102565b92505081905550816002600082825462002686919062003102565b925050819055503373ffffffffffffffffffffffffffffffffffffffff167f0f6798a560793a54c3bcfe86a93cde1e73087d944c0ea20544137d412139688583604051620026d5919062002b9f565b60405180910390a26001905092915050565b80600e60008473ffffffffffffffffffffffffffffffffffffffff1673ffffffffffffffffffffffffffffffffffffffff168152602001908152602001600020600082825462002738919062003102565b9250508190555080600d600082825462002753919062003102565b925050819055505050565b611542806200371d83390190565b600081519050919050565b600082825260208201905092915050565b60005b83811015620027a85780820151818401526020810190506200278b565b60008484015250505050565b6000601f19601f8301169050919050565b6000620027d2826200276c565b620027de818562002777565b9350620027f081856020860162002788565b620027fb81620027b4565b840191505092915050565b60006020820190508181036000830152620028228184620027c5565b905092915050565b6000604051905090565b600080fd5b600080fd5b600073ffffffffffffffffffffffffffffffffffffffff82169050919050565b60006200286b826200283e565b9050919050565b6200287d816200285e565b81146200288957600080fd5b50565b6000813590506200289d8162002872565b92915050565b6000819050919050565b620028b881620028a3565b8114620028c457600080fd5b50565b600081359050620028d881620028ad565b92915050565b60008060408385031215620028f857620028f762002834565b5b600062002908858286016200288c565b92505060206200291b85828601620028c7565b9150509250929050565b60008115159050919050565b6200293c8162002925565b82525050565b600060208201905062002959600083018462002931565b92915050565b600080fd5b600080fd5b7f4e487b7100000000000000000000000000000000000000000000000000000000600052604160045260246000fd5b620029a382620027b4565b810181811067ffffffffffffffff82111715620029c557620029c462002969565b5b80604052505050565b6000620029da6200282a565b9050620029e8828262002998565b919050565b600067ffffffffffffffff82111562002a0b5762002a0a62002969565b5b62002a1682620027b4565b9050602081019050919050565b82818337600083830152505050565b600062002a4962002a4384620029ed565b620029ce565b90508281526020810184848401111562002a685762002a6762002964565b5b62002a7584828562002a23565b509392505050565b600082601f83011262002a955762002a946200295f565b5b813562002aa784826020860162002a32565b91505092915050565b6000806000806080858703121562002acd5762002acc62002834565b5b600085013567ffffffffffffffff81111562002aee5762002aed62002839565b5b62002afc8782880162002a7d565b945050602085013567ffffffffffffffff81111562002b205762002b1f62002839565b5b62002b2e8782880162002a7d565b935050604062002b41878288016200288c565b925050606062002b54878288016200288c565b91505092959194509250565b62002b6b816200285e565b82525050565b600060208201905062002b88600083018462002b60565b92915050565b62002b9981620028a3565b82525050565b600060208201905062002bb6600083018462002b8e565b92915050565b60008060006060848603121562002bd85762002bd762002834565b5b600062002be8868287016200288c565b935050602062002bfb868287016200288c565b925050604062002c0e86828701620028c7565b9150509250925092565b60006020828403121562002c315762002c3062002834565b5b600062002c4184828501620028c7565b91505092915050565b6000806000806080858703121562002c675762002c6662002834565b5b600062002c7787828801620028c7565b945050602062002c8a87828801620028c7565b935050604062002c9d878288016200288c565b925050606062002cb0878288016200288c565b91505092959194509250565b60006020828403121562002cd55762002cd462002834565b5b600062002ce5848285016200288c565b91505092915050565b600060408201905062002d05600083018562002b8e565b62002d14602083018462002b8e565b9392505050565b6000806040838503121562002d355762002d3462002834565b5b600062002d45858286016200288c565b925050602062002d58858286016200288c565b9150509250929050565b7f4e487b7100000000000000000000000000000000000000000000000000000000600052602260045260246000fd5b6000600282049050600182168062002daa57607f821691505b60208210810362002dc05762002dbf62002d62565b5b50919050565b7f496e76616c696420746f6b656e73206164647265737365730000000000000000600082015250565b600062002dfe60188362002777565b915062002e0b8262002dc6565b602082019050919050565b6000602082019050818103600083015262002e318162002def565b9050919050565b7f496e76616c696420616464726573730000000000000000000000000000000000600082015250565b600062002e70600f8362002777565b915062002e7d8262002e38565b602082019050919050565b6000602082019050818103600083015262002ea38162002e61565b9050919050565b7f4c697175696469747920506f6f6c20616c726561647920657869737473000000600082015250565b600062002ee2601d8362002777565b915062002eef8262002eaa565b602082019050919050565b6000602082019050818103600083015262002f158162002ed3565b9050919050565b6000819050919050565b6000819050919050565b600062002f5162002f4b62002f458462002f1c565b62002f26565b620028a3565b9050919050565b62002f638162002f30565b82525050565b600060608201905062002f80600083018662002f58565b818103602083015262002f948185620027c5565b9050818103604083015262002faa8184620027c5565b9050949350505050565b7f496e76616c696420616c6c6f77616e6365000000000000000000000000000000600082015250565b600062002fec60118362002777565b915062002ff98262002fb4565b602082019050919050565b600060208201905081810360008301526200301f8162002fdd565b9050919050565b7f4e487b7100000000000000000000000000000000000000000000000000000000600052601160045260246000fd5b60006200306282620028a3565b91506200306f83620028a3565b92508282039050818111156200308a576200308962003026565b5b92915050565b7f496e76616c6964206c697175696469747920706f6f6c20706169722e00000000600082015250565b6000620030c8601c8362002777565b9150620030d58262003090565b602082019050919050565b60006020820190508181036000830152620030fb81620030b9565b9050919050565b60006200310f82620028a3565b91506200311c83620028a3565b925082820190508082111562003137576200313662003026565b5b92915050565b7f4e487b7100000000000000000000000000000000000000000000000000000000600052601260045260246000fd5b60006200317982620028a3565b91506200318683620028a3565b9250826200319957620031986200313d565b5b828204905092915050565b7f4c697175696469747920506f6f6c206e6f7420666f756e642065786973747300600082015250565b6000620031dc601f8362002777565b9150620031e982620031a4565b602082019050919050565b600060208201905081810360008301526200320f81620031cd565b9050919050565b60006060820190506200322d600083018662002b60565b6200323c602083018562002b60565b6200324b604083018462002b8e565b949350505050565b6200325e8162002925565b81146200326a57600080fd5b50565b6000815190506200327e8162003253565b92915050565b6000602082840312156200329d576200329c62002834565b5b6000620032ad848285016200326d565b91505092915050565b7f5472616e666572206f6620746f6b656e206661696c6564000000000000000000600082015250565b6000620032ee60178362002777565b9150620032fb82620032b6565b602082019050919050565b600060208201905081810360008301526200332181620032df565b9050919050565b7f496e73756666696369656e74206c697175696469747920736861726573000000600082015250565b600062003360601d8362002777565b91506200336d8262003328565b602082019050919050565b60006020820190508181036000830152620033938162003351565b9050919050565b600081519050620033ab81620028ad565b92915050565b600060208284031215620033ca57620033c962002834565b5b6000620033da848285016200339a565b91505092915050565b6000620033f082620028a3565b9150620033fd83620028a3565b92508282026200340d81620028a3565b9150828204841483151762003427576200342662003026565b5b5092915050565b7f496e73756666696369656e74207472616e7366657220616d6f756e7473000000600082015250565b600062003466601d8362002777565b915062003473826200342e565b602082019050919050565b60006020820190508181036000830152620034998162003457565b9050919050565b6000604082019050620034b7600083018562002b60565b620034c6602083018462002b8e565b9392505050565b7f4e487b7100000000000000000000000000000000000000000000000000000000600052600160045260246000fd5b6000819050919050565b60006200351382620034fc565b91507f8000000000000000000000000000000000000000000000000000000000000000820362003548576200354762003026565b5b816000039050919050565b7f4e6f204c697175696469747920536861726573204d696e746564000000000000600082015250565b60006200358b601a8362002777565b9150620035988262003553565b602082019050919050565b60006020820190508181036000830152620035be816200357c565b9050919050565b7f496e76616c69642062616c616e63657300000000000000000000000000000000600082015250565b6000620035fd60108362002777565b91506200360a82620035c5565b602082019050919050565b600060208201905081810360008301526200363081620035ee565b9050919050565b7f43616e6e6f742063616c63756c6174652073717561726520726f6f74206f662060008201527f61206e65676174697665206e756d626572000000000000000000000000000000602082015250565b60006200369560318362002777565b9150620036a28262003637565b604082019050919050565b60006020820190508181036000830152620036c88162003686565b9050919050565b6000620036dc82620028a3565b91507fffffffffffffffffffffffffffffffffffffffffffffffffffffffffffffffff820362003711576200371062003026565b5b60018201905091905056fe60806040523480156200001157600080fd5b50604051620015423803806200154283398181016040528101906200003791906200027f565b82600281905550600254600360003373ffffffffffffffffffffffffffffffffffffffff1673ffffffffffffffffffffffffffffffffffffffff1681526020019081526020016000208190555081600090816200009591906200055a565b508060019081620000a791906200055a565b5050505062000641565b6000604051905090565b600080fd5b600080fd5b6000819050919050565b620000da81620000c5565b8114620000e657600080fd5b50565b600081519050620000fa81620000cf565b92915050565b600080fd5b600080fd5b6000601f19601f8301169050919050565b7f4e487b7100000000000000000000000000000000000000000000000000000000600052604160045260246000fd5b62000155826200010a565b810181811067ffffffffffffffff821117156200017757620001766200011b565b5b80604052505050565b60006200018c620000b1565b90506200019a82826200014a565b919050565b600067ffffffffffffffff821115620001bd57620001bc6200011b565b5b620001c8826200010a565b9050602081019050919050565b60005b83811015620001f5578082015181840152602081019050620001d8565b60008484015250505050565b60006200021862000212846200019f565b62000180565b90508281526020810184848401111562000237576200023662000105565b5b62000244848285620001d5565b509392505050565b600082601f83011262000264576200026362000100565b5b81516200027684826020860162000201565b91505092915050565b6000806000606084860312156200029b576200029a620000bb565b5b6000620002ab86828701620000e9565b935050602084015167ffffffffffffffff811115620002cf57620002ce620000c0565b5b620002dd868287016200024c565b925050604084015167ffffffffffffffff811115620003015762000300620000c0565b5b6200030f868287016200024c565b9150509250925092565b600081519050919050565b7f4e487b7100000000000000000000000000000000000000000000000000000000600052602260045260246000fd5b600060028204905060018216806200036c57607f821691505b60208210810362000382576200038162000324565b5b50919050565b60008190508160005260206000209050919050565b60006020601f8301049050919050565b600082821b905092915050565b600060088302620003ec7fffffffffffffffffffffffffffffffffffffffffffffffffffffffffffffffff82620003ad565b620003f88683620003ad565b95508019841693508086168417925050509392505050565b6000819050919050565b60006200043b620004356200042f84620000c5565b62000410565b620000c5565b9050919050565b6000819050919050565b62000457836200041a565b6200046f620004668262000442565b848454620003ba565b825550505050565b600090565b6200048662000477565b620004938184846200044c565b505050565b5b81811015620004bb57620004af6000826200047c565b60018101905062000499565b5050565b601f8211156200050a57620004d48162000388565b620004df846200039d565b81016020851015620004ef578190505b62000507620004fe856200039d565b83018262000498565b50505b505050565b600082821c905092915050565b60006200052f600019846008026200050f565b1980831691505092915050565b60006200054a83836200051c565b9150826002028217905092915050565b620005658262000319565b67ffffffffffffffff8111156200058157620005806200011b565b5b6200058d825462000353565b6200059a828285620004bf565b600060209050601f831160018114620005d25760008415620005bd578287015190505b620005c985826200053c565b86555062000639565b601f198416620005e28662000388565b60005b828110156200060c57848901518255600182019150602085019450602081019050620005e5565b868310156200062c578489015162000628601f8916826200051c565b8355505b6001600288020188555050505b505050505050565b610ef180620006516000396000f3fe608060405234801561001057600080fd5b50600436106100935760003560e01c806342966c681161006657806342966c681461013457806370a082311461016457806395d89b4114610194578063a9059cbb146101b2578063dd62ed3e146101e257610093565b806306fdde0314610098578063095ea7b3146100b657806318160ddd146100e657806323b872dd14610104575b600080fd5b6100a0610212565b6040516100ad9190610ae1565b60405180910390f35b6100d060048036038101906100cb9190610b9c565b6102a0565b6040516100dd9190610bf7565b60405180910390f35b6100ee610392565b6040516100fb9190610c21565b60405180910390f35b61011e60048036038101906101199190610c3c565b610398565b60405161012b9190610bf7565b60405180910390f35b61014e60048036038101906101499190610c8f565b610502565b60405161015b9190610bf7565b60405180910390f35b61017e60048036038101906101799190610cbc565b610616565b60405161018b9190610c21565b60405180910390f35b61019c61062e565b6040516101a99190610ae1565b60405180910390f35b6101cc60048036038101906101c79190610b9c565b6106bc565b6040516101d99190610bf7565b60405180910390f35b6101fc60048036038101906101f79190610ce9565b6106d3565b6040516102099190610c21565b60405180910390f35b6000805461021f90610d58565b80601f016020809104026020016040519081016040528092919081815260200182805461024b90610d58565b80156102985780601f1061026d57610100808354040283529160200191610298565b820191906000526020600020905b81548152906001019060200180831161027b57829003601f168201915b505050505081565b600081600460003373ffffffffffffffffffffffffffffffffffffffff1673ffffffffffffffffffffffffffffffffffffffff16815260200190815260200160002060008573ffffffffffffffffffffffffffffffffffffffff1673ffffffffffffffffffffffffffffffffffffffff168152602001908152602001600020819055508273ffffffffffffffffffffffffffffffffffffffff163373ffffffffffffffffffffffffffffffffffffffff167f8c5be1e5ebec7d5bd14f71427d1e84f3dd0314c0f7b2291e5b200ac8c7c3b925846040516103809190610c21565b60405180910390a36001905092915050565b60025481565b6000600460008573ffffffffffffffffffffffffffffffffffffffff1673ffffffffffffffffffffffffffffffffffffffff16815260200190815260200160002060003373ffffffffffffffffffffffffffffffffffffffff1673ffffffffffffffffffffffffffffffffffffffff16815260200190815260200160002054821115610459576040517f08c379a000000000000000000000000000000000000000000000000000000000815260040161045090610dd5565b60405180910390fd5b81600460008673ffffffffffffffffffffffffffffffffffffffff1673ffffffffffffffffffffffffffffffffffffffff16815260200190815260200160002060003373ffffffffffffffffffffffffffffffffffffffff1673ffffffffffffffffffffffffffffffffffffffff16815260200190815260200160002060008282546104e59190610e24565b925050819055506104f78484846106f8565b600190509392505050565b600081600360003373ffffffffffffffffffffffffffffffffffffffff1673ffffffffffffffffffffffffffffffffffffffff16815260200190815260200160002054101561055057600080fd5b81600360003373ffffffffffffffffffffffffffffffffffffffff1673ffffffffffffffffffffffffffffffffffffffff168152602001908152602001600020600082825461059f9190610e24565b9250508190555081600260008282546105b89190610e24565b925050819055503373ffffffffffffffffffffffffffffffffffffffff167fcc16f5dbb4873280815c1ee09dbd06736cffcc184412cf7a71a0fdb75d397ca5836040516106059190610c21565b60405180910390a260019050919050565b60036020528060005260406000206000915090505481565b6001805461063b90610d58565b80601f016020809104026020016040519081016040528092919081815260200182805461066790610d58565b80156106b45780601f10610689576101008083540402835291602001916106b4565b820191906000526020600020905b81548152906001019060200180831161069757829003601f168201915b505050505081565b60006106c93384846106f8565b6001905092915050565b6004602052816000526040600020602052806000526040600020600091509150505481565b600073ffffffffffffffffffffffffffffffffffffffff168273ffffffffffffffffffffffffffffffffffffffff160361073157600080fd5b80600360008573ffffffffffffffffffffffffffffffffffffffff1673ffffffffffffffffffffffffffffffffffffffff16815260200190815260200160002054101561077d57600080fd5b600360008373ffffffffffffffffffffffffffffffffffffffff1673ffffffffffffffffffffffffffffffffffffffff1681526020019081526020016000205481600360008573ffffffffffffffffffffffffffffffffffffffff1673ffffffffffffffffffffffffffffffffffffffff168152602001908152602001600020546108089190610e58565b101561081357600080fd5b6000600360008473ffffffffffffffffffffffffffffffffffffffff1673ffffffffffffffffffffffffffffffffffffffff16815260200190815260200160002054600360008673ffffffffffffffffffffffffffffffffffffffff1673ffffffffffffffffffffffffffffffffffffffff1681526020019081526020016000205461089f9190610e58565b905081600360008673ffffffffffffffffffffffffffffffffffffffff1673ffffffffffffffffffffffffffffffffffffffff16815260200190815260200160002060008282546108f09190610e24565b9250508190555081600360008573ffffffffffffffffffffffffffffffffffffffff1673ffffffffffffffffffffffffffffffffffffffff16815260200190815260200160002060008282546109469190610e58565b925050819055508273ffffffffffffffffffffffffffffffffffffffff168473ffffffffffffffffffffffffffffffffffffffff167fddf252ad1be2c89b69c2b068fc378daa952ba7f163c4a11628f55a4df523b3ef846040516109aa9190610c21565b60405180910390a380600360008573ffffffffffffffffffffffffffffffffffffffff1673ffffffffffffffffffffffffffffffffffffffff16815260200190815260200160002054600360008773ffffffffffffffffffffffffffffffffffffffff1673ffffffffffffffffffffffffffffffffffffffff16815260200190815260200160002054610a3d9190610e58565b14610a4b57610a4a610e8c565b5b50505050565b600081519050919050565b600082825260208201905092915050565b60005b83811015610a8b578082015181840152602081019050610a70565b60008484015250505050565b6000601f19601f8301169050919050565b6000610ab382610a51565b610abd8185610a5c565b9350610acd818560208601610a6d565b610ad681610a97565b840191505092915050565b60006020820190508181036000830152610afb8184610aa8565b905092915050565b600080fd5b600073ffffffffffffffffffffffffffffffffffffffff82169050919050565b6000610b3382610b08565b9050919050565b610b4381610b28565b8114610b4e57600080fd5b50565b600081359050610b6081610b3a565b92915050565b6000819050919050565b610b7981610b66565b8114610b8457600080fd5b50565b600081359050610b9681610b70565b92915050565b60008060408385031215610bb357610bb2610b03565b5b6000610bc185828601610b51565b9250506020610bd285828601610b87565b9150509250929050565b60008115159050919050565b610bf181610bdc565b82525050565b6000602082019050610c0c6000830184610be8565b92915050565b610c1b81610b66565b82525050565b6000602082019050610c366000830184610c12565b92915050565b600080600060608486031215610c5557610c54610b03565b5b6000610c6386828701610b51565b9350506020610c7486828701610b51565b9250506040610c8586828701610b87565b9150509250925092565b600060208284031215610ca557610ca4610b03565b5b6000610cb384828501610b87565b91505092915050565b600060208284031215610cd257610cd1610b03565b5b6000610ce084828501610b51565b91505092915050565b60008060408385031215610d0057610cff610b03565b5b6000610d0e85828601610b51565b9250506020610d1f85828601610b51565b9150509250929050565b7f4e487b7100000000000000000000000000000000000000000000000000000000600052602260045260246000fd5b60006002820490506001821680610d7057607f821691505b602082108103610d8357610d82610d29565b5b50919050565b7f496e76616c696420616c6c6f77616e6365000000000000000000000000000000600082015250565b6000610dbf601183610a5c565b9150610dca82610d89565b602082019050919050565b60006020820190508181036000830152610dee81610db2565b9050919050565b7f4e487b7100000000000000000000000000000000000000000000000000000000600052601160045260246000fd5b6000610e2f82610b66565b9150610e3a83610b66565b9250828203905081811115610e5257610e51610df5565b5b92915050565b6000610e6382610b66565b9150610e6e83610b66565b9250828201905080821115610e8657610e85610df5565b5b92915050565b7f4e487b7100000000000000000000000000000000000000000000000000000000600052600160045260246000fdfea2646970667358221220f727853b8102eca2b4f29489551bcce2708040ca52f5f562b9947f496b66a31f64736f6c63430008130033a26469706673582212201574265b41761c8180f73c40a5d76269f4dcdbc25fc592d5017b090344dc887e64736f6c63430008130033","opcodes":"PUSH1 0x80 PUSH1 0x40 MSTORE CALLVALUE DUP1 ISZERO PUSH3 0x11 JUMPI PUSH1 0x0 DUP1 REVERT JUMPDEST POP PUSH1 0x40 MLOAD PUSH3 0x52E6 CODESIZE SUB DUP1 PUSH3 0x52E6 DUP4 CODECOPY DUP2 DUP2 ADD PUSH1 0x40 MSTORE DUP2 ADD SWAP1 PUSH3 0x37 SWAP2 SWAP1 PUSH3 0x28B JUMP JUMPDEST PUSH1 0x0 DUP3 DUP3 DUP3 PUSH1 0x2 DUP2 SWAP1 SSTORE POP PUSH1 0x2 SLOAD PUSH1 0x3 PUSH1 0x0 CALLER PUSH20 0xFFFFFFFFFFFFFFFFFFFFFFFFFFFFFFFFFFFFFFFF AND PUSH20 0xFFFFFFFFFFFFFFFFFFFFFFFFFFFFFFFFFFFFFFFF AND DUP2 MSTORE PUSH1 0x20 ADD SWAP1 DUP2 MSTORE PUSH1 0x20 ADD PUSH1 0x0 KECCAK256 DUP2 SWAP1 SSTORE POP DUP2 PUSH1 0x0 SWAP1 DUP2 PUSH3 0x99 SWAP2 SWAP1 PUSH3 0x55B JUMP JUMPDEST POP DUP1 PUSH1 0x1 SWAP1 DUP2 PUSH3 0xAB SWAP2 SWAP1 PUSH3 0x55B JUMP JUMPDEST POP POP POP POP CALLER PUSH1 0x7 PUSH1 0x0 PUSH2 0x100 EXP DUP2 SLOAD DUP2 PUSH20 0xFFFFFFFFFFFFFFFFFFFFFFFFFFFFFFFFFFFFFFFF MUL NOT AND SWAP1 DUP4 PUSH20 0xFFFFFFFFFFFFFFFFFFFFFFFFFFFFFFFFFFFFFFFF AND MUL OR SWAP1 SSTORE POP POP POP PUSH3 0x642 JUMP JUMPDEST PUSH1 0x0 PUSH1 0x40 MLOAD SWAP1 POP SWAP1 JUMP JUMPDEST PUSH1 0x0 DUP1 REVERT JUMPDEST PUSH1 0x0 DUP1 REVERT JUMPDEST PUSH1 0x0 DUP1 REVERT JUMPDEST PUSH1 0x0 DUP1 REVERT JUMPDEST PUSH1 0x0 PUSH1 0x1F NOT PUSH1 0x1F DUP4 ADD AND SWAP1 POP SWAP2 SWAP1 POP JUMP JUMPDEST PUSH32 0x4E487B7100000000000000000000000000000000000000000000000000000000 PUSH1 0x0 MSTORE PUSH1 0x41 PUSH1 0x4 MSTORE PUSH1 0x24 PUSH1 0x0 REVERT JUMPDEST PUSH3 0x161 DUP3 PUSH3 0x116 JUMP JUMPDEST DUP2 ADD DUP2 DUP2 LT PUSH8 0xFFFFFFFFFFFFFFFF DUP3 GT OR ISZERO PUSH3 0x183 JUMPI PUSH3 0x182 PUSH3 0x127 JUMP JUMPDEST JUMPDEST DUP1 PUSH1 0x40 MSTORE POP POP POP JUMP JUMPDEST PUSH1 0x0 PUSH3 0x198 PUSH3 0xF8 JUMP JUMPDEST SWAP1 POP PUSH3 0x1A6 DUP3 DUP3 PUSH3 0x156 JUMP JUMPDEST SWAP2 SWAP1 POP JUMP JUMPDEST PUSH1 0x0 PUSH8 0xFFFFFFFFFFFFFFFF DUP3 GT ISZERO PUSH3 0x1C9 JUMPI PUSH3 0x1C8 PUSH3 0x127 JUMP JUMPDEST JUMPDEST PUSH3 0x1D4 DUP3 PUSH3 0x116 JUMP JUMPDEST SWAP1 POP PUSH1 0x20 DUP2 ADD SWAP1 POP SWAP2 SWAP1 POP JUMP JUMPDEST PUSH1 0x0 JUMPDEST DUP4 DUP2 LT ISZERO PUSH3 0x201 JUMPI DUP1 DUP3 ADD MLOAD DUP2 DUP5 ADD MSTORE PUSH1 0x20 DUP2 ADD SWAP1 POP PUSH3 0x1E4 JUMP JUMPDEST PUSH1 0x0 DUP5 DUP5 ADD MSTORE POP POP POP POP JUMP JUMPDEST PUSH1 0x0 PUSH3 0x224 PUSH3 0x21E DUP5 PUSH3 0x1AB JUMP JUMPDEST PUSH3 0x18C JUMP JUMPDEST SWAP1 POP DUP3 DUP2 MSTORE PUSH1 0x20 DUP2 ADD DUP5 DUP5 DUP5 ADD GT ISZERO PUSH3 0x243 JUMPI PUSH3 0x242 PUSH3 0x111 JUMP JUMPDEST JUMPDEST PUSH3 0x250 DUP5 DUP3 DUP6 PUSH3 0x1E1 JUMP JUMPDEST POP SWAP4 SWAP3 POP POP POP JUMP JUMPDEST PUSH1 0x0 DUP3 PUSH1 0x1F DUP4 ADD SLT PUSH3 0x270 JUMPI PUSH3 0x26F PUSH3 0x10C JUMP JUMPDEST JUMPDEST DUP2 MLOAD PUSH3 0x282 DUP5 DUP3 PUSH1 0x20 DUP7 ADD PUSH3 0x20D JUMP JUMPDEST SWAP2 POP POP SWAP3 SWAP2 POP POP JUMP JUMPDEST PUSH1 0x0 DUP1 PUSH1 0x40 DUP4 DUP6 SUB SLT ISZERO PUSH3 0x2A5 JUMPI PUSH3 0x2A4 PUSH3 0x102 JUMP JUMPDEST JUMPDEST PUSH1 0x0 DUP4 ADD MLOAD PUSH8 0xFFFFFFFFFFFFFFFF DUP2 GT ISZERO PUSH3 0x2C6 JUMPI PUSH3 0x2C5 PUSH3 0x107 JUMP JUMPDEST JUMPDEST PUSH3 0x2D4 DUP6 DUP3 DUP7 ADD PUSH3 0x258 JUMP JUMPDEST SWAP3 POP POP PUSH1 0x20 DUP4 ADD MLOAD PUSH8 0xFFFFFFFFFFFFFFFF DUP2 GT ISZERO PUSH3 0x2F8 JUMPI PUSH3 0x2F7 PUSH3 0x107 JUMP JUMPDEST JUMPDEST PUSH3 0x306 DUP6 DUP3 DUP7 ADD PUSH3 0x258 JUMP JUMPDEST SWAP2 POP POP SWAP3 POP SWAP3 SWAP1 POP JUMP JUMPDEST PUSH1 0x0 DUP2 MLOAD SWAP1 POP SWAP2 SWAP1 POP JUMP JUMPDEST PUSH32 0x4E487B7100000000000000000000000000000000000000000000000000000000 PUSH1 0x0 MSTORE PUSH1 0x22 PUSH1 0x4 MSTORE PUSH1 0x24 PUSH1 0x0 REVERT JUMPDEST PUSH1 0x0 PUSH1 0x2 DUP3 DIV SWAP1 POP PUSH1 0x1 DUP3 AND DUP1 PUSH3 0x363 JUMPI PUSH1 0x7F DUP3 AND SWAP2 POP JUMPDEST PUSH1 0x20 DUP3 LT DUP2 SUB PUSH3 0x379 JUMPI PUSH3 0x378 PUSH3 0x31B JUMP JUMPDEST JUMPDEST POP SWAP2 SWAP1 POP JUMP JUMPDEST PUSH1 0x0 DUP2 SWAP1 POP DUP2 PUSH1 0x0 MSTORE PUSH1 0x20 PUSH1 0x0 KECCAK256 SWAP1 POP SWAP2 SWAP1 POP JUMP JUMPDEST PUSH1 0x0 PUSH1 0x20 PUSH1 0x1F DUP4 ADD DIV SWAP1 POP SWAP2 SWAP1 POP JUMP JUMPDEST PUSH1 0x0 DUP3 DUP3 SHL SWAP1 POP SWAP3 SWAP2 POP POP JUMP JUMPDEST PUSH1 0x0 PUSH1 0x8 DUP4 MUL PUSH3 0x3E3 PUSH32 0xFFFFFFFFFFFFFFFFFFFFFFFFFFFFFFFFFFFFFFFFFFFFFFFFFFFFFFFFFFFFFFFF DUP3 PUSH3 0x3A4 JUMP JUMPDEST PUSH3 0x3EF DUP7 DUP4 PUSH3 0x3A4 JUMP JUMPDEST SWAP6 POP DUP1 NOT DUP5 AND SWAP4 POP DUP1 DUP7 AND DUP5 OR SWAP3 POP POP POP SWAP4 SWAP3 POP POP POP JUMP JUMPDEST PUSH1 0x0 DUP2 SWAP1 POP SWAP2 SWAP1 POP JUMP JUMPDEST PUSH1 0x0 DUP2 SWAP1 POP SWAP2 SWAP1 POP JUMP JUMPDEST PUSH1 0x0 PUSH3 0x43C PUSH3 0x436 PUSH3 0x430 DUP5 PUSH3 0x407 JUMP JUMPDEST PUSH3 0x411 JUMP JUMPDEST PUSH3 0x407 JUMP JUMPDEST SWAP1 POP SWAP2 SWAP1 POP JUMP JUMPDEST PUSH1 0x0 DUP2 SWAP1 POP SWAP2 SWAP1 POP JUMP JUMPDEST PUSH3 0x458 DUP4 PUSH3 0x41B JUMP JUMPDEST PUSH3 0x470 PUSH3 0x467 DUP3 PUSH3 0x443 JUMP JUMPDEST DUP5 DUP5 SLOAD PUSH3 0x3B1 JUMP JUMPDEST DUP3 SSTORE POP POP POP POP JUMP JUMPDEST PUSH1 0x0 SWAP1 JUMP JUMPDEST PUSH3 0x487 PUSH3 0x478 JUMP JUMPDEST PUSH3 0x494 DUP2 DUP5 DUP5 PUSH3 0x44D JUMP JUMPDEST POP POP POP JUMP JUMPDEST JUMPDEST DUP2 DUP2 LT ISZERO PUSH3 0x4BC JUMPI PUSH3 0x4B0 PUSH1 0x0 DUP3 PUSH3 0x47D JUMP JUMPDEST PUSH1 0x1 DUP2 ADD SWAP1 POP PUSH3 0x49A JUMP JUMPDEST POP POP JUMP JUMPDEST PUSH1 0x1F DUP3 GT ISZERO PUSH3 0x50B JUMPI PUSH3 0x4D5 DUP2 PUSH3 0x37F JUMP JUMPDEST PUSH3 0x4E0 DUP5 PUSH3 0x394 JUMP JUMPDEST DUP2 ADD PUSH1 0x20 DUP6 LT ISZERO PUSH3 0x4F0 JUMPI DUP2 SWAP1 POP JUMPDEST PUSH3 0x508 PUSH3 0x4FF DUP6 PUSH3 0x394 JUMP JUMPDEST DUP4 ADD DUP3 PUSH3 0x499 JUMP JUMPDEST POP POP JUMPDEST POP POP POP JUMP JUMPDEST PUSH1 0x0 DUP3 DUP3 SHR SWAP1 POP SWAP3 SWAP2 POP POP JUMP JUMPDEST PUSH1 0x0 PUSH3 0x530 PUSH1 0x0 NOT DUP5 PUSH1 0x8 MUL PUSH3 0x510 JUMP JUMPDEST NOT DUP1 DUP4 AND SWAP2 POP POP SWAP3 SWAP2 POP POP JUMP JUMPDEST PUSH1 0x0 PUSH3 0x54B DUP4 DUP4 PUSH3 0x51D JUMP JUMPDEST SWAP2 POP DUP3 PUSH1 0x2 MUL DUP3 OR SWAP1 POP SWAP3 SWAP2 POP POP JUMP JUMPDEST PUSH3 0x566 DUP3 PUSH3 0x310 JUMP JUMPDEST PUSH8 0xFFFFFFFFFFFFFFFF DUP2 GT ISZERO PUSH3 0x582 JUMPI PUSH3 0x581 PUSH3 0x127 JUMP JUMPDEST JUMPDEST PUSH3 0x58E DUP3 SLOAD PUSH3 0x34A JUMP JUMPDEST PUSH3 0x59B DUP3 DUP3 DUP6 PUSH3 0x4C0 JUMP JUMPDEST PUSH1 0x0 PUSH1 0x20 SWAP1 POP PUSH1 0x1F DUP4 GT PUSH1 0x1 DUP2 EQ PUSH3 0x5D3 JUMPI PUSH1 0x0 DUP5 ISZERO PUSH3 0x5BE JUMPI DUP3 DUP8 ADD MLOAD SWAP1 POP JUMPDEST PUSH3 0x5CA DUP6 DUP3 PUSH3 0x53D JUMP JUMPDEST DUP7 SSTORE POP PUSH3 0x63A JUMP JUMPDEST PUSH1 0x1F NOT DUP5 AND PUSH3 0x5E3 DUP7 PUSH3 0x37F JUMP JUMPDEST PUSH1 0x0 JUMPDEST DUP3 DUP2 LT ISZERO PUSH3 0x60D JUMPI DUP5 DUP10 ADD MLOAD DUP3 SSTORE PUSH1 0x1 DUP3 ADD SWAP2 POP PUSH1 0x20 DUP6 ADD SWAP5 POP PUSH1 0x20 DUP2 ADD SWAP1 POP PUSH3 0x5E6 JUMP JUMPDEST DUP7 DUP4 LT ISZERO PUSH3 0x62D JUMPI DUP5 DUP10 ADD MLOAD PUSH3 0x629 PUSH1 0x1F DUP10 AND DUP3 PUSH3 0x51D JUMP JUMPDEST DUP4 SSTORE POP JUMPDEST PUSH1 0x1 PUSH1 0x2 DUP9 MUL ADD DUP9 SSTORE POP POP POP JUMPDEST POP POP POP POP POP POP JUMP JUMPDEST PUSH2 0x4C94 DUP1 PUSH3 0x652 PUSH1 0x0 CODECOPY PUSH1 0x0 RETURN INVALID PUSH1 0x80 PUSH1 0x40 MSTORE CALLVALUE DUP1 ISZERO PUSH3 0x11 JUMPI PUSH1 0x0 DUP1 REVERT JUMPDEST POP PUSH1 0x4 CALLDATASIZE LT PUSH3 0x196 JUMPI PUSH1 0x0 CALLDATALOAD PUSH1 0xE0 SHR DUP1 PUSH4 0x8DE6959B GT PUSH3 0xF3 JUMPI DUP1 PUSH4 0xC248320C GT PUSH3 0xA5 JUMPI DUP1 PUSH4 0xE9A7FB69 GT PUSH3 0x7B JUMPI DUP1 PUSH4 0xE9A7FB69 EQ PUSH3 0x556 JUMPI DUP1 PUSH4 0xF4F31EDE EQ PUSH3 0x578 JUMPI DUP1 PUSH4 0xF9C1D677 EQ PUSH3 0x5AE JUMPI DUP1 PUSH4 0xFFF6CAE9 EQ PUSH3 0x5D0 JUMPI PUSH3 0x196 JUMP JUMPDEST DUP1 PUSH4 0xC248320C EQ PUSH3 0x4C8 JUMPI DUP1 PUSH4 0xDCDF60E8 EQ PUSH3 0x4EA JUMPI DUP1 PUSH4 0xDD62ED3E EQ PUSH3 0x520 JUMPI PUSH3 0x196 JUMP JUMPDEST DUP1 PUSH4 0x8DE6959B EQ PUSH3 0x3BF JUMPI DUP1 PUSH4 0x8FE4A565 EQ PUSH3 0x3E1 JUMPI DUP1 PUSH4 0x95D89B41 EQ PUSH3 0x403 JUMPI DUP1 PUSH4 0x9C8F9F23 EQ PUSH3 0x425 JUMPI DUP1 PUSH4 0xA9059CBB EQ PUSH3 0x45C JUMPI DUP1 PUSH4 0xBA4C28C3 EQ PUSH3 0x492 JUMPI PUSH3 0x196 JUMP JUMPDEST DUP1 PUSH4 0x23B872DD GT PUSH3 0x14D JUMPI DUP1 PUSH4 0x23B872DD EQ PUSH3 0x28F JUMPI DUP1 PUSH4 0x42966C68 EQ PUSH3 0x2C5 JUMPI DUP1 PUSH4 0x597F670F EQ PUSH3 0x2FB JUMPI DUP1 PUSH4 0x653D588D EQ PUSH3 0x331 JUMPI DUP1 PUSH4 0x70A08231 EQ PUSH3 0x367 JUMPI DUP1 PUSH4 0x8DA5CB5B EQ PUSH3 0x39D JUMPI PUSH3 0x196 JUMP JUMPDEST DUP1 PUSH4 0x6FDDE03 EQ PUSH3 0x19B JUMPI DUP1 PUSH4 0x95EA7B3 EQ PUSH3 0x1BD JUMPI DUP1 PUSH4 0xC6ED932 EQ PUSH3 0x1F3 JUMPI DUP1 PUSH4 0x15770F92 EQ PUSH3 0x229 JUMPI DUP1 PUSH4 0x18160DDD EQ PUSH3 0x24B JUMPI DUP1 PUSH4 0x19B16AA6 EQ PUSH3 0x26D JUMPI JUMPDEST PUSH1 0x0 DUP1 REVERT JUMPDEST PUSH3 0x1A5 PUSH3 0x5DC JUMP JUMPDEST PUSH1 0x40 MLOAD PUSH3 0x1B4 SWAP2 SWAP1 PUSH3 0x2806 JUMP JUMPDEST PUSH1 0x40 MLOAD DUP1 SWAP2 SUB SWAP1 RETURN JUMPDEST PUSH3 0x1DB PUSH1 0x4 DUP1 CALLDATASIZE SUB DUP2 ADD SWAP1 PUSH3 0x1D5 SWAP2 SWAP1 PUSH3 0x28DE JUMP JUMPDEST PUSH3 0x672 JUMP JUMPDEST PUSH1 0x40 MLOAD PUSH3 0x1EA SWAP2 SWAP1 PUSH3 0x2942 JUMP JUMPDEST PUSH1 0x40 MLOAD DUP1 SWAP2 SUB SWAP1 RETURN JUMPDEST PUSH3 0x211 PUSH1 0x4 DUP1 CALLDATASIZE SUB DUP2 ADD SWAP1 PUSH3 0x20B SWAP2 SWAP1 PUSH3 0x2AB0 JUMP JUMPDEST PUSH3 0x766 JUMP JUMPDEST PUSH1 0x40 MLOAD PUSH3 0x220 SWAP2 SWAP1 PUSH3 0x2B71 JUMP JUMPDEST PUSH1 0x40 MLOAD DUP1 SWAP2 SUB SWAP1 RETURN JUMPDEST PUSH3 0x233 PUSH3 0xD81 JUMP JUMPDEST PUSH1 0x40 MLOAD PUSH3 0x242 SWAP2 SWAP1 PUSH3 0x2B9F JUMP JUMPDEST PUSH1 0x40 MLOAD DUP1 SWAP2 SUB SWAP1 RETURN JUMPDEST PUSH3 0x255 PUSH3 0xD87 JUMP JUMPDEST PUSH1 0x40 MLOAD PUSH3 0x264 SWAP2 SWAP1 PUSH3 0x2B9F JUMP JUMPDEST PUSH1 0x40 MLOAD DUP1 SWAP2 SUB SWAP1 RETURN JUMPDEST PUSH3 0x277 PUSH3 0xD8D JUMP JUMPDEST PUSH1 0x40 MLOAD PUSH3 0x286 SWAP2 SWAP1 PUSH3 0x2B9F JUMP JUMPDEST PUSH1 0x40 MLOAD DUP1 SWAP2 SUB SWAP1 RETURN JUMPDEST PUSH3 0x2AD PUSH1 0x4 DUP1 CALLDATASIZE SUB DUP2 ADD SWAP1 PUSH3 0x2A7 SWAP2 SWAP1 PUSH3 0x2BBC JUMP JUMPDEST PUSH3 0xD93 JUMP JUMPDEST PUSH1 0x40 MLOAD PUSH3 0x2BC SWAP2 SWAP1 PUSH3 0x2942 JUMP JUMPDEST PUSH1 0x40 MLOAD DUP1 SWAP2 SUB SWAP1 RETURN JUMPDEST PUSH3 0x2E3 PUSH1 0x4 DUP1 CALLDATASIZE SUB DUP2 ADD SWAP1 PUSH3 0x2DD SWAP2 SWAP1 PUSH3 0x2C18 JUMP JUMPDEST PUSH3 0xF04 JUMP JUMPDEST PUSH1 0x40 MLOAD PUSH3 0x2F2 SWAP2 SWAP1 PUSH3 0x2942 JUMP JUMPDEST PUSH1 0x40 MLOAD DUP1 SWAP2 SUB SWAP1 RETURN JUMPDEST PUSH3 0x319 PUSH1 0x4 DUP1 CALLDATASIZE SUB DUP2 ADD SWAP1 PUSH3 0x313 SWAP2 SWAP1 PUSH3 0x28DE JUMP JUMPDEST PUSH3 0x101F JUMP JUMPDEST PUSH1 0x40 MLOAD PUSH3 0x328 SWAP2 SWAP1 PUSH3 0x2B9F JUMP JUMPDEST PUSH1 0x40 MLOAD DUP1 SWAP2 SUB SWAP1 RETURN JUMPDEST PUSH3 0x34F PUSH1 0x4 DUP1 CALLDATASIZE SUB DUP2 ADD SWAP1 PUSH3 0x349 SWAP2 SWAP1 PUSH3 0x2C4A JUMP JUMPDEST PUSH3 0x1207 JUMP JUMPDEST PUSH1 0x40 MLOAD PUSH3 0x35E SWAP2 SWAP1 PUSH3 0x2942 JUMP JUMPDEST PUSH1 0x40 MLOAD DUP1 SWAP2 SUB SWAP1 RETURN JUMPDEST PUSH3 0x385 PUSH1 0x4 DUP1 CALLDATASIZE SUB DUP2 ADD SWAP1 PUSH3 0x37F SWAP2 SWAP1 PUSH3 0x2CBC JUMP JUMPDEST PUSH3 0x161A JUMP JUMPDEST PUSH1 0x40 MLOAD PUSH3 0x394 SWAP2 SWAP1 PUSH3 0x2B9F JUMP JUMPDEST PUSH1 0x40 MLOAD DUP1 SWAP2 SUB SWAP1 RETURN JUMPDEST PUSH3 0x3A7 PUSH3 0x1632 JUMP JUMPDEST PUSH1 0x40 MLOAD PUSH3 0x3B6 SWAP2 SWAP1 PUSH3 0x2B71 JUMP JUMPDEST PUSH1 0x40 MLOAD DUP1 SWAP2 SUB SWAP1 RETURN JUMPDEST PUSH3 0x3C9 PUSH3 0x1658 JUMP JUMPDEST PUSH1 0x40 MLOAD PUSH3 0x3D8 SWAP2 SWAP1 PUSH3 0x2B9F JUMP JUMPDEST PUSH1 0x40 MLOAD DUP1 SWAP2 SUB SWAP1 RETURN JUMPDEST PUSH3 0x3EB PUSH3 0x165E JUMP JUMPDEST PUSH1 0x40 MLOAD PUSH3 0x3FA SWAP2 SWAP1 PUSH3 0x2B9F JUMP JUMPDEST PUSH1 0x40 MLOAD DUP1 SWAP2 SUB SWAP1 RETURN JUMPDEST PUSH3 0x40D PUSH3 0x1664 JUMP JUMPDEST PUSH1 0x40 MLOAD PUSH3 0x41C SWAP2 SWAP1 PUSH3 0x2806 JUMP JUMPDEST PUSH1 0x40 MLOAD DUP1 SWAP2 SUB SWAP1 RETURN JUMPDEST PUSH3 0x443 PUSH1 0x4 DUP1 CALLDATASIZE SUB DUP2 ADD SWAP1 PUSH3 0x43D SWAP2 SWAP1 PUSH3 0x2C18 JUMP JUMPDEST PUSH3 0x16FA JUMP JUMPDEST PUSH1 0x40 MLOAD PUSH3 0x453 SWAP3 SWAP2 SWAP1 PUSH3 0x2CEE JUMP JUMPDEST PUSH1 0x40 MLOAD DUP1 SWAP2 SUB SWAP1 RETURN JUMPDEST PUSH3 0x47A PUSH1 0x4 DUP1 CALLDATASIZE SUB DUP2 ADD SWAP1 PUSH3 0x474 SWAP2 SWAP1 PUSH3 0x28DE JUMP JUMPDEST PUSH3 0x1ADA JUMP JUMPDEST PUSH1 0x40 MLOAD PUSH3 0x489 SWAP2 SWAP1 PUSH3 0x2942 JUMP JUMPDEST PUSH1 0x40 MLOAD DUP1 SWAP2 SUB SWAP1 RETURN JUMPDEST PUSH3 0x4B0 PUSH1 0x4 DUP1 CALLDATASIZE SUB DUP2 ADD SWAP1 PUSH3 0x4AA SWAP2 SWAP1 PUSH3 0x2CBC JUMP JUMPDEST PUSH3 0x1AF3 JUMP JUMPDEST PUSH1 0x40 MLOAD PUSH3 0x4BF SWAP2 SWAP1 PUSH3 0x2B9F JUMP JUMPDEST PUSH1 0x40 MLOAD DUP1 SWAP2 SUB SWAP1 RETURN JUMPDEST PUSH3 0x4D2 PUSH3 0x1B0B JUMP JUMPDEST PUSH1 0x40 MLOAD PUSH3 0x4E1 SWAP2 SWAP1 PUSH3 0x2B9F JUMP JUMPDEST PUSH1 0x40 MLOAD DUP1 SWAP2 SUB SWAP1 RETURN JUMPDEST PUSH3 0x508 PUSH1 0x4 DUP1 CALLDATASIZE SUB DUP2 ADD SWAP1 PUSH3 0x502 SWAP2 SWAP1 PUSH3 0x2C18 JUMP JUMPDEST PUSH3 0x1B11 JUMP JUMPDEST PUSH1 0x40 MLOAD PUSH3 0x517 SWAP2 SWAP1 PUSH3 0x2B71 JUMP JUMPDEST PUSH1 0x40 MLOAD DUP1 SWAP2 SUB SWAP1 RETURN JUMPDEST PUSH3 0x53E PUSH1 0x4 DUP1 CALLDATASIZE SUB DUP2 ADD SWAP1 PUSH3 0x538 SWAP2 SWAP1 PUSH3 0x2D1B JUMP JUMPDEST PUSH3 0x1B51 JUMP JUMPDEST PUSH1 0x40 MLOAD PUSH3 0x54D SWAP2 SWAP1 PUSH3 0x2B9F JUMP JUMPDEST PUSH1 0x40 MLOAD DUP1 SWAP2 SUB SWAP1 RETURN JUMPDEST PUSH3 0x560 PUSH3 0x1B76 JUMP JUMPDEST PUSH1 0x40 MLOAD PUSH3 0x56F SWAP2 SWAP1 PUSH3 0x2B71 JUMP JUMPDEST PUSH1 0x40 MLOAD DUP1 SWAP2 SUB SWAP1 RETURN JUMPDEST PUSH3 0x596 PUSH1 0x4 DUP1 CALLDATASIZE SUB DUP2 ADD SWAP1 PUSH3 0x590 SWAP2 SWAP1 PUSH3 0x2D1B JUMP JUMPDEST PUSH3 0x1B9C JUMP JUMPDEST PUSH1 0x40 MLOAD PUSH3 0x5A5 SWAP2 SWAP1 PUSH3 0x2B71 JUMP JUMPDEST PUSH1 0x40 MLOAD DUP1 SWAP2 SUB SWAP1 RETURN JUMPDEST PUSH3 0x5B8 PUSH3 0x1BDE JUMP JUMPDEST PUSH1 0x40 MLOAD PUSH3 0x5C7 SWAP2 SWAP1 PUSH3 0x2B71 JUMP JUMPDEST PUSH1 0x40 MLOAD DUP1 SWAP2 SUB SWAP1 RETURN JUMPDEST PUSH3 0x5DA PUSH3 0x1C04 JUMP JUMPDEST STOP JUMPDEST PUSH1 0x0 DUP1 SLOAD PUSH3 0x5EB SWAP1 PUSH3 0x2D91 JUMP JUMPDEST DUP1 PUSH1 0x1F ADD PUSH1 0x20 DUP1 SWAP2 DIV MUL PUSH1 0x20 ADD PUSH1 0x40 MLOAD SWAP1 DUP2 ADD PUSH1 0x40 MSTORE DUP1 SWAP3 SWAP2 SWAP1 DUP2 DUP2 MSTORE PUSH1 0x20 ADD DUP3 DUP1 SLOAD PUSH3 0x619 SWAP1 PUSH3 0x2D91 JUMP JUMPDEST DUP1 ISZERO PUSH3 0x66A JUMPI DUP1 PUSH1 0x1F LT PUSH3 0x63E JUMPI PUSH2 0x100 DUP1 DUP4 SLOAD DIV MUL DUP4 MSTORE SWAP2 PUSH1 0x20 ADD SWAP2 PUSH3 0x66A JUMP JUMPDEST DUP3 ADD SWAP2 SWAP1 PUSH1 0x0 MSTORE PUSH1 0x20 PUSH1 0x0 KECCAK256 SWAP1 JUMPDEST DUP2 SLOAD DUP2 MSTORE SWAP1 PUSH1 0x1 ADD SWAP1 PUSH1 0x20 ADD DUP1 DUP4 GT PUSH3 0x64C JUMPI DUP3 SWAP1 SUB PUSH1 0x1F AND DUP3 ADD SWAP2 JUMPDEST POP POP POP POP POP DUP2 JUMP JUMPDEST PUSH1 0x0 DUP2 PUSH1 0x4 PUSH1 0x0 CALLER PUSH20 0xFFFFFFFFFFFFFFFFFFFFFFFFFFFFFFFFFFFFFFFF AND PUSH20 0xFFFFFFFFFFFFFFFFFFFFFFFFFFFFFFFFFFFFFFFF AND DUP2 MSTORE PUSH1 0x20 ADD SWAP1 DUP2 MSTORE PUSH1 0x20 ADD PUSH1 0x0 KECCAK256 PUSH1 0x0 DUP6 PUSH20 0xFFFFFFFFFFFFFFFFFFFFFFFFFFFFFFFFFFFFFFFF AND PUSH20 0xFFFFFFFFFFFFFFFFFFFFFFFFFFFFFFFFFFFFFFFF AND DUP2 MSTORE PUSH1 0x20 ADD SWAP1 DUP2 MSTORE PUSH1 0x20 ADD PUSH1 0x0 KECCAK256 DUP2 SWAP1 SSTORE POP DUP3 PUSH20 0xFFFFFFFFFFFFFFFFFFFFFFFFFFFFFFFFFFFFFFFF AND CALLER PUSH20 0xFFFFFFFFFFFFFFFFFFFFFFFFFFFFFFFFFFFFFFFF AND PUSH32 0x8C5BE1E5EBEC7D5BD14F71427D1E84F3DD0314C0F7B2291E5B200AC8C7C3B925 DUP5 PUSH1 0x40 MLOAD PUSH3 0x754 SWAP2 SWAP1 PUSH3 0x2B9F JUMP JUMPDEST PUSH1 0x40 MLOAD DUP1 SWAP2 SUB SWAP1 LOG3 PUSH1 0x1 SWAP1 POP SWAP3 SWAP2 POP POP JUMP JUMPDEST PUSH1 0x0 DUP2 PUSH20 0xFFFFFFFFFFFFFFFFFFFFFFFFFFFFFFFFFFFFFFFF AND DUP4 PUSH20 0xFFFFFFFFFFFFFFFFFFFFFFFFFFFFFFFFFFFFFFFF AND SUB PUSH3 0x7D9 JUMPI PUSH1 0x40 MLOAD PUSH32 0x8C379A000000000000000000000000000000000000000000000000000000000 DUP2 MSTORE PUSH1 0x4 ADD PUSH3 0x7D0 SWAP1 PUSH3 0x2E16 JUMP JUMPDEST PUSH1 0x40 MLOAD DUP1 SWAP2 SUB SWAP1 REVERT JUMPDEST PUSH1 0x0 PUSH20 0xFFFFFFFFFFFFFFFFFFFFFFFFFFFFFFFFFFFFFFFF AND DUP4 PUSH20 0xFFFFFFFFFFFFFFFFFFFFFFFFFFFFFFFFFFFFFFFF AND SUB PUSH3 0x84B JUMPI PUSH1 0x40 MLOAD PUSH32 0x8C379A000000000000000000000000000000000000000000000000000000000 DUP2 MSTORE PUSH1 0x4 ADD PUSH3 0x842 SWAP1 PUSH3 0x2E88 JUMP JUMPDEST PUSH1 0x40 MLOAD DUP1 SWAP2 SUB SWAP1 REVERT JUMPDEST PUSH1 0x0 PUSH20 0xFFFFFFFFFFFFFFFFFFFFFFFFFFFFFFFFFFFFFFFF AND DUP3 PUSH20 0xFFFFFFFFFFFFFFFFFFFFFFFFFFFFFFFFFFFFFFFF AND SUB PUSH3 0x8BD JUMPI PUSH1 0x40 MLOAD PUSH32 0x8C379A000000000000000000000000000000000000000000000000000000000 DUP2 MSTORE PUSH1 0x4 ADD PUSH3 0x8B4 SWAP1 PUSH3 0x2E88 JUMP JUMPDEST PUSH1 0x40 MLOAD DUP1 SWAP2 SUB SWAP1 REVERT JUMPDEST PUSH1 0x0 PUSH20 0xFFFFFFFFFFFFFFFFFFFFFFFFFFFFFFFFFFFFFFFF AND PUSH1 0xF PUSH1 0x0 DUP6 PUSH20 0xFFFFFFFFFFFFFFFFFFFFFFFFFFFFFFFFFFFFFFFF AND PUSH20 0xFFFFFFFFFFFFFFFFFFFFFFFFFFFFFFFFFFFFFFFF AND DUP2 MSTORE PUSH1 0x20 ADD SWAP1 DUP2 MSTORE PUSH1 0x20 ADD PUSH1 0x0 KECCAK256 PUSH1 0x0 DUP5 PUSH20 0xFFFFFFFFFFFFFFFFFFFFFFFFFFFFFFFFFFFFFFFF AND PUSH20 0xFFFFFFFFFFFFFFFFFFFFFFFFFFFFFFFFFFFFFFFF AND DUP2 MSTORE PUSH1 0x20 ADD SWAP1 DUP2 MSTORE PUSH1 0x20 ADD PUSH1 0x0 KECCAK256 PUSH1 0x0 SWAP1 SLOAD SWAP1 PUSH2 0x100 EXP SWAP1 DIV PUSH20 0xFFFFFFFFFFFFFFFFFFFFFFFFFFFFFFFFFFFFFFFF AND PUSH20 0xFFFFFFFFFFFFFFFFFFFFFFFFFFFFFFFFFFFFFFFF AND EQ PUSH3 0x9CB JUMPI PUSH1 0x40 MLOAD PUSH32 0x8C379A000000000000000000000000000000000000000000000000000000000 DUP2 MSTORE PUSH1 0x4 ADD PUSH3 0x9C2 SWAP1 PUSH3 0x2EFA JUMP JUMPDEST PUSH1 0x40 MLOAD DUP1 SWAP2 SUB SWAP1 REVERT JUMPDEST PUSH1 0x0 PUSH20 0xFFFFFFFFFFFFFFFFFFFFFFFFFFFFFFFFFFFFFFFF AND PUSH1 0xF PUSH1 0x0 DUP5 PUSH20 0xFFFFFFFFFFFFFFFFFFFFFFFFFFFFFFFFFFFFFFFF AND PUSH20 0xFFFFFFFFFFFFFFFFFFFFFFFFFFFFFFFFFFFFFFFF AND DUP2 MSTORE PUSH1 0x20 ADD SWAP1 DUP2 MSTORE PUSH1 0x20 ADD PUSH1 0x0 KECCAK256 PUSH1 0x0 DUP6 PUSH20 0xFFFFFFFFFFFFFFFFFFFFFFFFFFFFFFFFFFFFFFFF AND PUSH20 0xFFFFFFFFFFFFFFFFFFFFFFFFFFFFFFFFFFFFFFFF AND DUP2 MSTORE PUSH1 0x20 ADD SWAP1 DUP2 MSTORE PUSH1 0x20 ADD PUSH1 0x0 KECCAK256 PUSH1 0x0 SWAP1 SLOAD SWAP1 PUSH2 0x100 EXP SWAP1 DIV PUSH20 0xFFFFFFFFFFFFFFFFFFFFFFFFFFFFFFFFFFFFFFFF AND PUSH20 0xFFFFFFFFFFFFFFFFFFFFFFFFFFFFFFFFFFFFFFFF AND EQ PUSH3 0xAD9 JUMPI PUSH1 0x40 MLOAD PUSH32 0x8C379A000000000000000000000000000000000000000000000000000000000 DUP2 MSTORE PUSH1 0x4 ADD PUSH3 0xAD0 SWAP1 PUSH3 0x2EFA JUMP JUMPDEST PUSH1 0x40 MLOAD DUP1 SWAP2 SUB SWAP1 REVERT JUMPDEST PUSH1 0x0 DUP1 DUP7 DUP7 PUSH1 0x40 MLOAD PUSH3 0xAEC SWAP1 PUSH3 0x275E JUMP JUMPDEST PUSH3 0xAFA SWAP4 SWAP3 SWAP2 SWAP1 PUSH3 0x2F69 JUMP JUMPDEST PUSH1 0x40 MLOAD DUP1 SWAP2 SUB SWAP1 PUSH1 0x0 CREATE DUP1 ISZERO DUP1 ISZERO PUSH3 0xB17 JUMPI RETURNDATASIZE PUSH1 0x0 DUP1 RETURNDATACOPY RETURNDATASIZE PUSH1 0x0 REVERT JUMPDEST POP SWAP1 POP DUP4 PUSH1 0x5 PUSH1 0x0 PUSH2 0x100 EXP DUP2 SLOAD DUP2 PUSH20 0xFFFFFFFFFFFFFFFFFFFFFFFFFFFFFFFFFFFFFFFF MUL NOT AND SWAP1 DUP4 PUSH20 0xFFFFFFFFFFFFFFFFFFFFFFFFFFFFFFFFFFFFFFFF AND MUL OR SWAP1 SSTORE POP DUP3 PUSH1 0x6 PUSH1 0x0 PUSH2 0x100 EXP DUP2 SLOAD DUP2 PUSH20 0xFFFFFFFFFFFFFFFFFFFFFFFFFFFFFFFFFFFFFFFF MUL NOT AND SWAP1 DUP4 PUSH20 0xFFFFFFFFFFFFFFFFFFFFFFFFFFFFFFFFFFFFFFFF AND MUL OR SWAP1 SSTORE POP DUP1 PUSH1 0xF PUSH1 0x0 DUP7 PUSH20 0xFFFFFFFFFFFFFFFFFFFFFFFFFFFFFFFFFFFFFFFF AND PUSH20 0xFFFFFFFFFFFFFFFFFFFFFFFFFFFFFFFFFFFFFFFF AND DUP2 MSTORE PUSH1 0x20 ADD SWAP1 DUP2 MSTORE PUSH1 0x20 ADD PUSH1 0x0 KECCAK256 PUSH1 0x0 DUP6 PUSH20 0xFFFFFFFFFFFFFFFFFFFFFFFFFFFFFFFFFFFFFFFF AND PUSH20 0xFFFFFFFFFFFFFFFFFFFFFFFFFFFFFFFFFFFFFFFF AND DUP2 MSTORE PUSH1 0x20 ADD SWAP1 DUP2 MSTORE PUSH1 0x20 ADD PUSH1 0x0 KECCAK256 PUSH1 0x0 PUSH2 0x100 EXP DUP2 SLOAD DUP2 PUSH20 0xFFFFFFFFFFFFFFFFFFFFFFFFFFFFFFFFFFFFFFFF MUL NOT AND SWAP1 DUP4 PUSH20 0xFFFFFFFFFFFFFFFFFFFFFFFFFFFFFFFFFFFFFFFF AND MUL OR SWAP1 SSTORE POP DUP1 PUSH1 0xF PUSH1 0x0 DUP6 PUSH20 0xFFFFFFFFFFFFFFFFFFFFFFFFFFFFFFFFFFFFFFFF AND PUSH20 0xFFFFFFFFFFFFFFFFFFFFFFFFFFFFFFFFFFFFFFFF AND DUP2 MSTORE PUSH1 0x20 ADD SWAP1 DUP2 MSTORE PUSH1 0x20 ADD PUSH1 0x0 KECCAK256 PUSH1 0x0 DUP7 PUSH20 0xFFFFFFFFFFFFFFFFFFFFFFFFFFFFFFFFFFFFFFFF AND PUSH20 0xFFFFFFFFFFFFFFFFFFFFFFFFFFFFFFFFFFFFFFFF AND DUP2 MSTORE PUSH1 0x20 ADD SWAP1 DUP2 MSTORE PUSH1 0x20 ADD PUSH1 0x0 KECCAK256 PUSH1 0x0 PUSH2 0x100 EXP DUP2 SLOAD DUP2 PUSH20 0xFFFFFFFFFFFFFFFFFFFFFFFFFFFFFFFFFFFFFFFF MUL NOT AND SWAP1 DUP4 PUSH20 0xFFFFFFFFFFFFFFFFFFFFFFFFFFFFFFFFFFFFFFFF AND MUL OR SWAP1 SSTORE POP PUSH1 0x10 DUP2 SWAP1 DUP1 PUSH1 0x1 DUP2 SLOAD ADD DUP1 DUP3 SSTORE DUP1 SWAP2 POP POP PUSH1 0x1 SWAP1 SUB SWAP1 PUSH1 0x0 MSTORE PUSH1 0x20 PUSH1 0x0 KECCAK256 ADD PUSH1 0x0 SWAP1 SWAP2 SWAP1 SWAP2 SWAP1 SWAP2 PUSH2 0x100 EXP DUP2 SLOAD DUP2 PUSH20 0xFFFFFFFFFFFFFFFFFFFFFFFFFFFFFFFFFFFFFFFF MUL NOT AND SWAP1 DUP4 PUSH20 0xFFFFFFFFFFFFFFFFFFFFFFFFFFFFFFFFFFFFFFFF AND MUL OR SWAP1 SSTORE POP DUP1 SWAP2 POP POP SWAP5 SWAP4 POP POP POP POP JUMP JUMPDEST PUSH1 0xD SLOAD DUP2 JUMP JUMPDEST PUSH1 0x2 SLOAD DUP2 JUMP JUMPDEST PUSH1 0x9 SLOAD DUP2 JUMP JUMPDEST PUSH1 0x0 PUSH1 0x4 PUSH1 0x0 DUP6 PUSH20 0xFFFFFFFFFFFFFFFFFFFFFFFFFFFFFFFFFFFFFFFF AND PUSH20 0xFFFFFFFFFFFFFFFFFFFFFFFFFFFFFFFFFFFFFFFF AND DUP2 MSTORE PUSH1 0x20 ADD SWAP1 DUP2 MSTORE PUSH1 0x20 ADD PUSH1 0x0 KECCAK256 PUSH1 0x0 CALLER PUSH20 0xFFFFFFFFFFFFFFFFFFFFFFFFFFFFFFFFFFFFFFFF AND PUSH20 0xFFFFFFFFFFFFFFFFFFFFFFFFFFFFFFFFFFFFFFFF AND DUP2 MSTORE PUSH1 0x20 ADD SWAP1 DUP2 MSTORE PUSH1 0x20 ADD PUSH1 0x0 KECCAK256 SLOAD DUP3 GT ISZERO PUSH3 0xE57 JUMPI PUSH1 0x40 MLOAD PUSH32 0x8C379A000000000000000000000000000000000000000000000000000000000 DUP2 MSTORE PUSH1 0x4 ADD PUSH3 0xE4E SWAP1 PUSH3 0x3004 JUMP JUMPDEST PUSH1 0x40 MLOAD DUP1 SWAP2 SUB SWAP1 REVERT JUMPDEST DUP2 PUSH1 0x4 PUSH1 0x0 DUP7 PUSH20 0xFFFFFFFFFFFFFFFFFFFFFFFFFFFFFFFFFFFFFFFF AND PUSH20 0xFFFFFFFFFFFFFFFFFFFFFFFFFFFFFFFFFFFFFFFF AND DUP2 MSTORE PUSH1 0x20 ADD SWAP1 DUP2 MSTORE PUSH1 0x20 ADD PUSH1 0x0 KECCAK256 PUSH1 0x0 CALLER PUSH20 0xFFFFFFFFFFFFFFFFFFFFFFFFFFFFFFFFFFFFFFFF AND PUSH20 0xFFFFFFFFFFFFFFFFFFFFFFFFFFFFFFFFFFFFFFFF AND DUP2 MSTORE PUSH1 0x20 ADD SWAP1 DUP2 MSTORE PUSH1 0x20 ADD PUSH1 0x0 KECCAK256 PUSH1 0x0 DUP3 DUP3 SLOAD PUSH3 0xEE5 SWAP2 SWAP1 PUSH3 0x3055 JUMP JUMPDEST SWAP3 POP POP DUP2 SWAP1 SSTORE POP PUSH3 0xEF9 DUP5 DUP5 DUP5 PUSH3 0x1D58 JUMP JUMPDEST PUSH1 0x1 SWAP1 POP SWAP4 SWAP3 POP POP POP JUMP JUMPDEST PUSH1 0x0 DUP2 PUSH1 0x3 PUSH1 0x0 CALLER PUSH20 0xFFFFFFFFFFFFFFFFFFFFFFFFFFFFFFFFFFFFFFFF AND PUSH20 0xFFFFFFFFFFFFFFFFFFFFFFFFFFFFFFFFFFFFFFFF AND DUP2 MSTORE PUSH1 0x20 ADD SWAP1 DUP2 MSTORE PUSH1 0x20 ADD PUSH1 0x0 KECCAK256 SLOAD LT ISZERO PUSH3 0xF53 JUMPI PUSH1 0x0 DUP1 REVERT JUMPDEST DUP2 PUSH1 0x3 PUSH1 0x0 CALLER PUSH20 0xFFFFFFFFFFFFFFFFFFFFFFFFFFFFFFFFFFFFFFFF AND PUSH20 0xFFFFFFFFFFFFFFFFFFFFFFFFFFFFFFFFFFFFFFFF AND DUP2 MSTORE PUSH1 0x20 ADD SWAP1 DUP2 MSTORE PUSH1 0x20 ADD PUSH1 0x0 KECCAK256 PUSH1 0x0 DUP3 DUP3 SLOAD PUSH3 0xFA4 SWAP2 SWAP1 PUSH3 0x3055 JUMP JUMPDEST SWAP3 POP POP DUP2 SWAP1 SSTORE POP DUP2 PUSH1 0x2 PUSH1 0x0 DUP3 DUP3 SLOAD PUSH3 0xFBF SWAP2 SWAP1 PUSH3 0x3055 JUMP JUMPDEST SWAP3 POP POP DUP2 SWAP1 SSTORE POP CALLER PUSH20 0xFFFFFFFFFFFFFFFFFFFFFFFFFFFFFFFFFFFFFFFF AND PUSH32 0xCC16F5DBB4873280815C1EE09DBD06736CFFCC184412CF7A71A0FDB75D397CA5 DUP4 PUSH1 0x40 MLOAD PUSH3 0x100E SWAP2 SWAP1 PUSH3 0x2B9F JUMP JUMPDEST PUSH1 0x40 MLOAD DUP1 SWAP2 SUB SWAP1 LOG2 PUSH1 0x1 SWAP1 POP SWAP2 SWAP1 POP JUMP JUMPDEST PUSH1 0x0 DUP1 PUSH1 0x8 SLOAD GT DUP1 ISZERO PUSH3 0x1035 JUMPI POP PUSH1 0x0 PUSH1 0x9 SLOAD GT JUMPDEST PUSH3 0x1077 JUMPI PUSH1 0x40 MLOAD PUSH32 0x8C379A000000000000000000000000000000000000000000000000000000000 DUP2 MSTORE PUSH1 0x4 ADD PUSH3 0x106E SWAP1 PUSH3 0x30E0 JUMP JUMPDEST PUSH1 0x40 MLOAD DUP1 SWAP2 SUB SWAP1 REVERT JUMPDEST PUSH1 0x0 DUP1 PUSH1 0x5 PUSH1 0x0 SWAP1 SLOAD SWAP1 PUSH2 0x100 EXP SWAP1 DIV PUSH20 0xFFFFFFFFFFFFFFFFFFFFFFFFFFFFFFFFFFFFFFFF AND PUSH20 0xFFFFFFFFFFFFFFFFFFFFFFFFFFFFFFFFFFFFFFFF AND DUP6 PUSH20 0xFFFFFFFFFFFFFFFFFFFFFFFFFFFFFFFFFFFFFFFF AND SUB PUSH3 0x1138 JUMPI DUP4 PUSH1 0x8 SLOAD PUSH3 0x10E0 SWAP2 SWAP1 PUSH3 0x3102 JUMP JUMPDEST SWAP2 POP PUSH1 0x0 DUP3 GT ISZERO PUSH3 0x1132 JUMPI DUP2 PUSH1 0x2 SLOAD PUSH3 0x10FC SWAP2 SWAP1 PUSH3 0x316C JUMP JUMPDEST SWAP1 POP DUP1 PUSH1 0x9 SLOAD GT PUSH3 0x111E JUMPI PUSH1 0x9 SLOAD DUP2 PUSH3 0x1118 SWAP2 SWAP1 PUSH3 0x3055 JUMP JUMPDEST PUSH3 0x112F JUMP JUMPDEST DUP1 PUSH1 0x9 SLOAD PUSH3 0x112E SWAP2 SWAP1 PUSH3 0x3055 JUMP JUMPDEST JUMPDEST SWAP3 POP JUMPDEST PUSH3 0x11F2 JUMP JUMPDEST PUSH1 0x6 PUSH1 0x0 SWAP1 SLOAD SWAP1 PUSH2 0x100 EXP SWAP1 DIV PUSH20 0xFFFFFFFFFFFFFFFFFFFFFFFFFFFFFFFFFFFFFFFF AND PUSH20 0xFFFFFFFFFFFFFFFFFFFFFFFFFFFFFFFFFFFFFFFF AND DUP6 PUSH20 0xFFFFFFFFFFFFFFFFFFFFFFFFFFFFFFFFFFFFFFFF AND SUB PUSH3 0x11F1 JUMPI DUP4 PUSH1 0x9 SLOAD PUSH3 0x119E SWAP2 SWAP1 PUSH3 0x3102 JUMP JUMPDEST SWAP2 POP PUSH1 0x0 DUP3 GT ISZERO PUSH3 0x11F0 JUMPI DUP2 PUSH1 0x2 SLOAD PUSH3 0x11BA SWAP2 SWAP1 PUSH3 0x316C JUMP JUMPDEST SWAP1 POP DUP1 PUSH1 0x8 SLOAD GT PUSH3 0x11DC JUMPI PUSH1 0x8 SLOAD DUP2 PUSH3 0x11D6 SWAP2 SWAP1 PUSH3 0x3055 JUMP JUMPDEST PUSH3 0x11ED JUMP JUMPDEST DUP1 PUSH1 0x8 SLOAD PUSH3 0x11EC SWAP2 SWAP1 PUSH3 0x3055 JUMP JUMPDEST JUMPDEST SWAP3 POP JUMPDEST JUMPDEST JUMPDEST PUSH3 0x11FD DUP4 PUSH3 0x20C3 JUMP JUMPDEST SWAP3 POP POP POP SWAP3 SWAP2 POP POP JUMP JUMPDEST PUSH1 0x0 DUP1 PUSH20 0xFFFFFFFFFFFFFFFFFFFFFFFFFFFFFFFFFFFFFFFF AND PUSH1 0xF PUSH1 0x0 DUP6 PUSH20 0xFFFFFFFFFFFFFFFFFFFFFFFFFFFFFFFFFFFFFFFF AND PUSH20 0xFFFFFFFFFFFFFFFFFFFFFFFFFFFFFFFFFFFFFFFF AND DUP2 MSTORE PUSH1 0x20 ADD SWAP1 DUP2 MSTORE PUSH1 0x20 ADD PUSH1 0x0 KECCAK256 PUSH1 0x0 DUP5 PUSH20 0xFFFFFFFFFFFFFFFFFFFFFFFFFFFFFFFFFFFFFFFF AND PUSH20 0xFFFFFFFFFFFFFFFFFFFFFFFFFFFFFFFFFFFFFFFF AND DUP2 MSTORE PUSH1 0x20 ADD SWAP1 DUP2 MSTORE PUSH1 0x20 ADD PUSH1 0x0 KECCAK256 PUSH1 0x0 SWAP1 SLOAD SWAP1 PUSH2 0x100 EXP SWAP1 DIV PUSH20 0xFFFFFFFFFFFFFFFFFFFFFFFFFFFFFFFFFFFFFFFF AND PUSH20 0xFFFFFFFFFFFFFFFFFFFFFFFFFFFFFFFFFFFFFFFF AND SUB PUSH3 0x1316 JUMPI PUSH1 0x40 MLOAD PUSH32 0x8C379A000000000000000000000000000000000000000000000000000000000 DUP2 MSTORE PUSH1 0x4 ADD PUSH3 0x130D SWAP1 PUSH3 0x31F4 JUMP JUMPDEST PUSH1 0x40 MLOAD DUP1 SWAP2 SUB SWAP1 REVERT JUMPDEST PUSH1 0x0 PUSH20 0xFFFFFFFFFFFFFFFFFFFFFFFFFFFFFFFFFFFFFFFF AND PUSH1 0xF PUSH1 0x0 DUP5 PUSH20 0xFFFFFFFFFFFFFFFFFFFFFFFFFFFFFFFFFFFFFFFF AND PUSH20 0xFFFFFFFFFFFFFFFFFFFFFFFFFFFFFFFFFFFFFFFF AND DUP2 MSTORE PUSH1 0x20 ADD SWAP1 DUP2 MSTORE PUSH1 0x20 ADD PUSH1 0x0 KECCAK256 PUSH1 0x0 DUP6 PUSH20 0xFFFFFFFFFFFFFFFFFFFFFFFFFFFFFFFFFFFFFFFF AND PUSH20 0xFFFFFFFFFFFFFFFFFFFFFFFFFFFFFFFFFFFFFFFF AND DUP2 MSTORE PUSH1 0x20 ADD SWAP1 DUP2 MSTORE PUSH1 0x20 ADD PUSH1 0x0 KECCAK256 PUSH1 0x0 SWAP1 SLOAD SWAP1 PUSH2 0x100 EXP SWAP1 DIV PUSH20 0xFFFFFFFFFFFFFFFFFFFFFFFFFFFFFFFFFFFFFFFF AND PUSH20 0xFFFFFFFFFFFFFFFFFFFFFFFFFFFFFFFFFFFFFFFF AND SUB PUSH3 0x1424 JUMPI PUSH1 0x40 MLOAD PUSH32 0x8C379A000000000000000000000000000000000000000000000000000000000 DUP2 MSTORE PUSH1 0x4 ADD PUSH3 0x141B SWAP1 PUSH3 0x31F4 JUMP JUMPDEST PUSH1 0x40 MLOAD DUP1 SWAP2 SUB SWAP1 REVERT JUMPDEST PUSH1 0x0 PUSH1 0x5 PUSH1 0x0 SWAP1 SLOAD SWAP1 PUSH2 0x100 EXP SWAP1 DIV PUSH20 0xFFFFFFFFFFFFFFFFFFFFFFFFFFFFFFFFFFFFFFFF AND SWAP1 POP DUP1 PUSH20 0xFFFFFFFFFFFFFFFFFFFFFFFFFFFFFFFFFFFFFFFF AND PUSH4 0x23B872DD CALLER ADDRESS DUP10 PUSH1 0x40 MLOAD DUP5 PUSH4 0xFFFFFFFF AND PUSH1 0xE0 SHL DUP2 MSTORE PUSH1 0x4 ADD PUSH3 0x148A SWAP4 SWAP3 SWAP2 SWAP1 PUSH3 0x3216 JUMP JUMPDEST PUSH1 0x20 PUSH1 0x40 MLOAD DUP1 DUP4 SUB DUP2 PUSH1 0x0 DUP8 GAS CALL ISZERO DUP1 ISZERO PUSH3 0x14AA JUMPI RETURNDATASIZE PUSH1 0x0 DUP1 RETURNDATACOPY RETURNDATASIZE PUSH1 0x0 REVERT JUMPDEST POP POP POP POP PUSH1 0x40 MLOAD RETURNDATASIZE PUSH1 0x1F NOT PUSH1 0x1F DUP3 ADD AND DUP3 ADD DUP1 PUSH1 0x40 MSTORE POP DUP2 ADD SWAP1 PUSH3 0x14D0 SWAP2 SWAP1 PUSH3 0x3284 JUMP JUMPDEST PUSH3 0x1512 JUMPI PUSH1 0x40 MLOAD PUSH32 0x8C379A000000000000000000000000000000000000000000000000000000000 DUP2 MSTORE PUSH1 0x4 ADD PUSH3 0x1509 SWAP1 PUSH3 0x3306 JUMP JUMPDEST PUSH1 0x40 MLOAD DUP1 SWAP2 SUB SWAP1 REVERT JUMPDEST PUSH1 0x0 PUSH1 0x6 PUSH1 0x0 SWAP1 SLOAD SWAP1 PUSH2 0x100 EXP SWAP1 DIV PUSH20 0xFFFFFFFFFFFFFFFFFFFFFFFFFFFFFFFFFFFFFFFF AND SWAP1 POP DUP1 PUSH20 0xFFFFFFFFFFFFFFFFFFFFFFFFFFFFFFFFFFFFFFFF AND PUSH4 0x23B872DD CALLER ADDRESS DUP10 PUSH1 0x40 MLOAD DUP5 PUSH4 0xFFFFFFFF AND PUSH1 0xE0 SHL DUP2 MSTORE PUSH1 0x4 ADD PUSH3 0x1578 SWAP4 SWAP3 SWAP2 SWAP1 PUSH3 0x3216 JUMP JUMPDEST PUSH1 0x20 PUSH1 0x40 MLOAD DUP1 DUP4 SUB DUP2 PUSH1 0x0 DUP8 GAS CALL ISZERO DUP1 ISZERO PUSH3 0x1598 JUMPI RETURNDATASIZE PUSH1 0x0 DUP1 RETURNDATACOPY RETURNDATASIZE PUSH1 0x0 REVERT JUMPDEST POP POP POP POP PUSH1 0x40 MLOAD RETURNDATASIZE PUSH1 0x1F NOT PUSH1 0x1F DUP3 ADD AND DUP3 ADD DUP1 PUSH1 0x40 MSTORE POP DUP2 ADD SWAP1 PUSH3 0x15BE SWAP2 SWAP1 PUSH3 0x3284 JUMP JUMPDEST PUSH3 0x1600 JUMPI PUSH1 0x40 MLOAD PUSH32 0x8C379A000000000000000000000000000000000000000000000000000000000 DUP2 MSTORE PUSH1 0x4 ADD PUSH3 0x15F7 SWAP1 PUSH3 0x3306 JUMP JUMPDEST PUSH1 0x40 MLOAD DUP1 SWAP2 SUB SWAP1 REVERT JUMPDEST PUSH3 0x160B CALLER PUSH3 0x20E9 JUMP JUMPDEST POP PUSH1 0x1 SWAP3 POP POP POP SWAP5 SWAP4 POP POP POP POP JUMP JUMPDEST PUSH1 0x3 PUSH1 0x20 MSTORE DUP1 PUSH1 0x0 MSTORE PUSH1 0x40 PUSH1 0x0 KECCAK256 PUSH1 0x0 SWAP2 POP SWAP1 POP SLOAD DUP2 JUMP JUMPDEST PUSH1 0x7 PUSH1 0x0 SWAP1 SLOAD SWAP1 PUSH2 0x100 EXP SWAP1 DIV PUSH20 0xFFFFFFFFFFFFFFFFFFFFFFFFFFFFFFFFFFFFFFFF AND DUP2 JUMP JUMPDEST PUSH1 0xC SLOAD DUP2 JUMP JUMPDEST PUSH1 0xB SLOAD DUP2 JUMP JUMPDEST PUSH1 0x1 DUP1 SLOAD PUSH3 0x1673 SWAP1 PUSH3 0x2D91 JUMP JUMPDEST DUP1 PUSH1 0x1F ADD PUSH1 0x20 DUP1 SWAP2 DIV MUL PUSH1 0x20 ADD PUSH1 0x40 MLOAD SWAP1 DUP2 ADD PUSH1 0x40 MSTORE DUP1 SWAP3 SWAP2 SWAP1 DUP2 DUP2 MSTORE PUSH1 0x20 ADD DUP3 DUP1 SLOAD PUSH3 0x16A1 SWAP1 PUSH3 0x2D91 JUMP JUMPDEST DUP1 ISZERO PUSH3 0x16F2 JUMPI DUP1 PUSH1 0x1F LT PUSH3 0x16C6 JUMPI PUSH2 0x100 DUP1 DUP4 SLOAD DIV MUL DUP4 MSTORE SWAP2 PUSH1 0x20 ADD SWAP2 PUSH3 0x16F2 JUMP JUMPDEST DUP3 ADD SWAP2 SWAP1 PUSH1 0x0 MSTORE PUSH1 0x20 PUSH1 0x0 KECCAK256 SWAP1 JUMPDEST DUP2 SLOAD DUP2 MSTORE SWAP1 PUSH1 0x1 ADD SWAP1 PUSH1 0x20 ADD DUP1 DUP4 GT PUSH3 0x16D4 JUMPI DUP3 SWAP1 SUB PUSH1 0x1F AND DUP3 ADD SWAP2 JUMPDEST POP POP POP POP POP DUP2 JUMP JUMPDEST PUSH1 0x0 DUP1 DUP3 PUSH1 0xE PUSH1 0x0 CALLER PUSH20 0xFFFFFFFFFFFFFFFFFFFFFFFFFFFFFFFFFFFFFFFF AND PUSH20 0xFFFFFFFFFFFFFFFFFFFFFFFFFFFFFFFFFFFFFFFF AND DUP2 MSTORE PUSH1 0x20 ADD SWAP1 DUP2 MSTORE PUSH1 0x20 ADD PUSH1 0x0 KECCAK256 SLOAD LT ISZERO PUSH3 0x1782 JUMPI PUSH1 0x40 MLOAD PUSH32 0x8C379A000000000000000000000000000000000000000000000000000000000 DUP2 MSTORE PUSH1 0x4 ADD PUSH3 0x1779 SWAP1 PUSH3 0x3378 JUMP JUMPDEST PUSH1 0x40 MLOAD DUP1 SWAP2 SUB SWAP1 REVERT JUMPDEST PUSH1 0x0 PUSH1 0x5 PUSH1 0x0 SWAP1 SLOAD SWAP1 PUSH2 0x100 EXP SWAP1 DIV PUSH20 0xFFFFFFFFFFFFFFFFFFFFFFFFFFFFFFFFFFFFFFFF AND PUSH20 0xFFFFFFFFFFFFFFFFFFFFFFFFFFFFFFFFFFFFFFFF AND PUSH4 0x70A08231 ADDRESS PUSH1 0x40 MLOAD DUP3 PUSH4 0xFFFFFFFF AND PUSH1 0xE0 SHL DUP2 MSTORE PUSH1 0x4 ADD PUSH3 0x17E1 SWAP2 SWAP1 PUSH3 0x2B71 JUMP JUMPDEST PUSH1 0x20 PUSH1 0x40 MLOAD DUP1 DUP4 SUB DUP2 DUP7 GAS STATICCALL ISZERO DUP1 ISZERO PUSH3 0x17FF JUMPI RETURNDATASIZE PUSH1 0x0 DUP1 RETURNDATACOPY RETURNDATASIZE PUSH1 0x0 REVERT JUMPDEST POP POP POP POP PUSH1 0x40 MLOAD RETURNDATASIZE PUSH1 0x1F NOT PUSH1 0x1F DUP3 ADD AND DUP3 ADD DUP1 PUSH1 0x40 MSTORE POP DUP2 ADD SWAP1 PUSH3 0x1825 SWAP2 SWAP1 PUSH3 0x33B1 JUMP JUMPDEST SWAP1 POP PUSH1 0x0 PUSH1 0x6 PUSH1 0x0 SWAP1 SLOAD SWAP1 PUSH2 0x100 EXP SWAP1 DIV PUSH20 0xFFFFFFFFFFFFFFFFFFFFFFFFFFFFFFFFFFFFFFFF AND PUSH20 0xFFFFFFFFFFFFFFFFFFFFFFFFFFFFFFFFFFFFFFFF AND PUSH4 0x70A08231 ADDRESS PUSH1 0x40 MLOAD DUP3 PUSH4 0xFFFFFFFF AND PUSH1 0xE0 SHL DUP2 MSTORE PUSH1 0x4 ADD PUSH3 0x1886 SWAP2 SWAP1 PUSH3 0x2B71 JUMP JUMPDEST PUSH1 0x20 PUSH1 0x40 MLOAD DUP1 DUP4 SUB DUP2 DUP7 GAS STATICCALL ISZERO DUP1 ISZERO PUSH3 0x18A4 JUMPI RETURNDATASIZE PUSH1 0x0 DUP1 RETURNDATACOPY RETURNDATASIZE PUSH1 0x0 REVERT JUMPDEST POP POP POP POP PUSH1 0x40 MLOAD RETURNDATASIZE PUSH1 0x1F NOT PUSH1 0x1F DUP3 ADD AND DUP3 ADD DUP1 PUSH1 0x40 MSTORE POP DUP2 ADD SWAP1 PUSH3 0x18CA SWAP2 SWAP1 PUSH3 0x33B1 JUMP JUMPDEST SWAP1 POP PUSH1 0x0 PUSH1 0xD SLOAD SWAP1 POP DUP1 DUP4 DUP8 PUSH3 0x18E2 SWAP2 SWAP1 PUSH3 0x33E3 JUMP JUMPDEST PUSH3 0x18EE SWAP2 SWAP1 PUSH3 0x316C JUMP JUMPDEST SWAP5 POP DUP1 DUP3 DUP8 PUSH3 0x18FF SWAP2 SWAP1 PUSH3 0x33E3 JUMP JUMPDEST PUSH3 0x190B SWAP2 SWAP1 PUSH3 0x316C JUMP JUMPDEST SWAP4 POP PUSH1 0x0 DUP6 GT DUP1 ISZERO PUSH3 0x191E JUMPI POP PUSH1 0x0 DUP5 GT JUMPDEST PUSH3 0x1960 JUMPI PUSH1 0x40 MLOAD PUSH32 0x8C379A000000000000000000000000000000000000000000000000000000000 DUP2 MSTORE PUSH1 0x4 ADD PUSH3 0x1957 SWAP1 PUSH3 0x347E JUMP JUMPDEST PUSH1 0x40 MLOAD DUP1 SWAP2 SUB SWAP1 REVERT JUMPDEST PUSH3 0x196B DUP7 PUSH3 0xF04 JUMP JUMPDEST POP PUSH3 0x1978 CALLER DUP8 PUSH3 0x23B0 JUMP JUMPDEST PUSH3 0x1986 DUP4 DUP4 DUP8 DUP8 PUSH3 0x2427 JUMP JUMPDEST PUSH1 0x5 PUSH1 0x0 SWAP1 SLOAD SWAP1 PUSH2 0x100 EXP SWAP1 DIV PUSH20 0xFFFFFFFFFFFFFFFFFFFFFFFFFFFFFFFFFFFFFFFF AND PUSH20 0xFFFFFFFFFFFFFFFFFFFFFFFFFFFFFFFFFFFFFFFF AND PUSH4 0xA9059CBB CALLER DUP8 PUSH1 0x40 MLOAD DUP4 PUSH4 0xFFFFFFFF AND PUSH1 0xE0 SHL DUP2 MSTORE PUSH1 0x4 ADD PUSH3 0x19E5 SWAP3 SWAP2 SWAP1 PUSH3 0x34A0 JUMP JUMPDEST PUSH1 0x20 PUSH1 0x40 MLOAD DUP1 DUP4 SUB DUP2 PUSH1 0x0 DUP8 GAS CALL ISZERO DUP1 ISZERO PUSH3 0x1A05 JUMPI RETURNDATASIZE PUSH1 0x0 DUP1 RETURNDATACOPY RETURNDATASIZE PUSH1 0x0 REVERT JUMPDEST POP POP POP POP PUSH1 0x40 MLOAD RETURNDATASIZE PUSH1 0x1F NOT PUSH1 0x1F DUP3 ADD AND DUP3 ADD DUP1 PUSH1 0x40 MSTORE POP DUP2 ADD SWAP1 PUSH3 0x1A2B SWAP2 SWAP1 PUSH3 0x3284 JUMP JUMPDEST POP PUSH1 0x6 PUSH1 0x0 SWAP1 SLOAD SWAP1 PUSH2 0x100 EXP SWAP1 DIV PUSH20 0xFFFFFFFFFFFFFFFFFFFFFFFFFFFFFFFFFFFFFFFF AND PUSH20 0xFFFFFFFFFFFFFFFFFFFFFFFFFFFFFFFFFFFFFFFF AND PUSH4 0xA9059CBB CALLER DUP7 PUSH1 0x40 MLOAD DUP4 PUSH4 0xFFFFFFFF AND PUSH1 0xE0 SHL DUP2 MSTORE PUSH1 0x4 ADD PUSH3 0x1A8B SWAP3 SWAP2 SWAP1 PUSH3 0x34A0 JUMP JUMPDEST PUSH1 0x20 PUSH1 0x40 MLOAD DUP1 DUP4 SUB DUP2 PUSH1 0x0 DUP8 GAS CALL ISZERO DUP1 ISZERO PUSH3 0x1AAB JUMPI RETURNDATASIZE PUSH1 0x0 DUP1 RETURNDATACOPY RETURNDATASIZE PUSH1 0x0 REVERT JUMPDEST POP POP POP POP PUSH1 0x40 MLOAD RETURNDATASIZE PUSH1 0x1F NOT PUSH1 0x1F DUP3 ADD AND DUP3 ADD DUP1 PUSH1 0x40 MSTORE POP DUP2 ADD SWAP1 PUSH3 0x1AD1 SWAP2 SWAP1 PUSH3 0x3284 JUMP JUMPDEST POP POP POP POP SWAP2 POP SWAP2 JUMP JUMPDEST PUSH1 0x0 PUSH3 0x1AE9 CALLER DUP5 DUP5 PUSH3 0x1D58 JUMP JUMPDEST PUSH1 0x1 SWAP1 POP SWAP3 SWAP2 POP POP JUMP JUMPDEST PUSH1 0xE PUSH1 0x20 MSTORE DUP1 PUSH1 0x0 MSTORE PUSH1 0x40 PUSH1 0x0 KECCAK256 PUSH1 0x0 SWAP2 POP SWAP1 POP SLOAD DUP2 JUMP JUMPDEST PUSH1 0x8 SLOAD DUP2 JUMP JUMPDEST PUSH1 0x10 DUP2 DUP2 SLOAD DUP2 LT PUSH3 0x1B22 JUMPI PUSH1 0x0 DUP1 REVERT JUMPDEST SWAP1 PUSH1 0x0 MSTORE PUSH1 0x20 PUSH1 0x0 KECCAK256 ADD PUSH1 0x0 SWAP2 POP SLOAD SWAP1 PUSH2 0x100 EXP SWAP1 DIV PUSH20 0xFFFFFFFFFFFFFFFFFFFFFFFFFFFFFFFFFFFFFFFF AND DUP2 JUMP JUMPDEST PUSH1 0x4 PUSH1 0x20 MSTORE DUP2 PUSH1 0x0 MSTORE PUSH1 0x40 PUSH1 0x0 KECCAK256 PUSH1 0x20 MSTORE DUP1 PUSH1 0x0 MSTORE PUSH1 0x40 PUSH1 0x0 KECCAK256 PUSH1 0x0 SWAP2 POP SWAP2 POP POP SLOAD DUP2 JUMP JUMPDEST PUSH1 0x5 PUSH1 0x0 SWAP1 SLOAD SWAP1 PUSH2 0x100 EXP SWAP1 DIV PUSH20 0xFFFFFFFFFFFFFFFFFFFFFFFFFFFFFFFFFFFFFFFF AND DUP2 JUMP JUMPDEST PUSH1 0xF PUSH1 0x20 MSTORE DUP2 PUSH1 0x0 MSTORE PUSH1 0x40 PUSH1 0x0 KECCAK256 PUSH1 0x20 MSTORE DUP1 PUSH1 0x0 MSTORE PUSH1 0x40 PUSH1 0x0 KECCAK256 PUSH1 0x0 SWAP2 POP SWAP2 POP SWAP1 SLOAD SWAP1 PUSH2 0x100 EXP SWAP1 DIV PUSH20 0xFFFFFFFFFFFFFFFFFFFFFFFFFFFFFFFFFFFFFFFF AND DUP2 JUMP JUMPDEST PUSH1 0x6 PUSH1 0x0 SWAP1 SLOAD SWAP1 PUSH2 0x100 EXP SWAP1 DIV PUSH20 0xFFFFFFFFFFFFFFFFFFFFFFFFFFFFFFFFFFFFFFFF AND DUP2 JUMP JUMPDEST PUSH3 0x1D56 PUSH1 0x5 PUSH1 0x0 SWAP1 SLOAD SWAP1 PUSH2 0x100 EXP SWAP1 DIV PUSH20 0xFFFFFFFFFFFFFFFFFFFFFFFFFFFFFFFFFFFFFFFF AND PUSH20 0xFFFFFFFFFFFFFFFFFFFFFFFFFFFFFFFFFFFFFFFF AND PUSH4 0x70A08231 ADDRESS PUSH1 0x40 MLOAD DUP3 PUSH4 0xFFFFFFFF AND PUSH1 0xE0 SHL DUP2 MSTORE PUSH1 0x4 ADD PUSH3 0x1C65 SWAP2 SWAP1 PUSH3 0x2B71 JUMP JUMPDEST PUSH1 0x20 PUSH1 0x40 MLOAD DUP1 DUP4 SUB DUP2 DUP7 GAS STATICCALL ISZERO DUP1 ISZERO PUSH3 0x1C83 JUMPI RETURNDATASIZE PUSH1 0x0 DUP1 RETURNDATACOPY RETURNDATASIZE PUSH1 0x0 REVERT JUMPDEST POP POP POP POP PUSH1 0x40 MLOAD RETURNDATASIZE PUSH1 0x1F NOT PUSH1 0x1F DUP3 ADD AND DUP3 ADD DUP1 PUSH1 0x40 MSTORE POP DUP2 ADD SWAP1 PUSH3 0x1CA9 SWAP2 SWAP1 PUSH3 0x33B1 JUMP JUMPDEST PUSH1 0x6 PUSH1 0x0 SWAP1 SLOAD SWAP1 PUSH2 0x100 EXP SWAP1 DIV PUSH20 0xFFFFFFFFFFFFFFFFFFFFFFFFFFFFFFFFFFFFFFFF AND PUSH20 0xFFFFFFFFFFFFFFFFFFFFFFFFFFFFFFFFFFFFFFFF AND PUSH4 0x70A08231 ADDRESS PUSH1 0x40 MLOAD DUP3 PUSH4 0xFFFFFFFF AND PUSH1 0xE0 SHL DUP2 MSTORE PUSH1 0x4 ADD PUSH3 0x1D06 SWAP2 SWAP1 PUSH3 0x2B71 JUMP JUMPDEST PUSH1 0x20 PUSH1 0x40 MLOAD DUP1 DUP4 SUB DUP2 DUP7 GAS STATICCALL ISZERO DUP1 ISZERO PUSH3 0x1D24 JUMPI RETURNDATASIZE PUSH1 0x0 DUP1 RETURNDATACOPY RETURNDATASIZE PUSH1 0x0 REVERT JUMPDEST POP POP POP POP PUSH1 0x40 MLOAD RETURNDATASIZE PUSH1 0x1F NOT PUSH1 0x1F DUP3 ADD AND DUP3 ADD DUP1 PUSH1 0x40 MSTORE POP DUP2 ADD SWAP1 PUSH3 0x1D4A SWAP2 SWAP1 PUSH3 0x33B1 JUMP JUMPDEST PUSH1 0x8 SLOAD PUSH1 0x9 SLOAD PUSH3 0x2427 JUMP JUMPDEST JUMP JUMPDEST PUSH1 0x0 PUSH20 0xFFFFFFFFFFFFFFFFFFFFFFFFFFFFFFFFFFFFFFFF AND DUP3 PUSH20 0xFFFFFFFFFFFFFFFFFFFFFFFFFFFFFFFFFFFFFFFF AND SUB PUSH3 0x1D92 JUMPI PUSH1 0x0 DUP1 REVERT JUMPDEST DUP1 PUSH1 0x3 PUSH1 0x0 DUP6 PUSH20 0xFFFFFFFFFFFFFFFFFFFFFFFFFFFFFFFFFFFFFFFF AND PUSH20 0xFFFFFFFFFFFFFFFFFFFFFFFFFFFFFFFFFFFFFFFF AND DUP2 MSTORE PUSH1 0x20 ADD SWAP1 DUP2 MSTORE PUSH1 0x20 ADD PUSH1 0x0 KECCAK256 SLOAD LT ISZERO PUSH3 0x1DDF JUMPI PUSH1 0x0 DUP1 REVERT JUMPDEST PUSH1 0x3 PUSH1 0x0 DUP4 PUSH20 0xFFFFFFFFFFFFFFFFFFFFFFFFFFFFFFFFFFFFFFFF AND PUSH20 0xFFFFFFFFFFFFFFFFFFFFFFFFFFFFFFFFFFFFFFFF AND DUP2 MSTORE PUSH1 0x20 ADD SWAP1 DUP2 MSTORE PUSH1 0x20 ADD PUSH1 0x0 KECCAK256 SLOAD DUP2 PUSH1 0x3 PUSH1 0x0 DUP6 PUSH20 0xFFFFFFFFFFFFFFFFFFFFFFFFFFFFFFFFFFFFFFFF AND PUSH20 0xFFFFFFFFFFFFFFFFFFFFFFFFFFFFFFFFFFFFFFFF AND DUP2 MSTORE PUSH1 0x20 ADD SWAP1 DUP2 MSTORE PUSH1 0x20 ADD PUSH1 0x0 KECCAK256 SLOAD PUSH3 0x1E6C SWAP2 SWAP1 PUSH3 0x3102 JUMP JUMPDEST LT ISZERO PUSH3 0x1E78 JUMPI PUSH1 0x0 DUP1 REVERT JUMPDEST PUSH1 0x0 PUSH1 0x3 PUSH1 0x0 DUP5 PUSH20 0xFFFFFFFFFFFFFFFFFFFFFFFFFFFFFFFFFFFFFFFF AND PUSH20 0xFFFFFFFFFFFFFFFFFFFFFFFFFFFFFFFFFFFFFFFF AND DUP2 MSTORE PUSH1 0x20 ADD SWAP1 DUP2 MSTORE PUSH1 0x20 ADD PUSH1 0x0 KECCAK256 SLOAD PUSH1 0x3 PUSH1 0x0 DUP7 PUSH20 0xFFFFFFFFFFFFFFFFFFFFFFFFFFFFFFFFFFFFFFFF AND PUSH20 0xFFFFFFFFFFFFFFFFFFFFFFFFFFFFFFFFFFFFFFFF AND DUP2 MSTORE PUSH1 0x20 ADD SWAP1 DUP2 MSTORE PUSH1 0x20 ADD PUSH1 0x0 KECCAK256 SLOAD PUSH3 0x1F06 SWAP2 SWAP1 PUSH3 0x3102 JUMP JUMPDEST SWAP1 POP DUP2 PUSH1 0x3 PUSH1 0x0 DUP7 PUSH20 0xFFFFFFFFFFFFFFFFFFFFFFFFFFFFFFFFFFFFFFFF AND PUSH20 0xFFFFFFFFFFFFFFFFFFFFFFFFFFFFFFFFFFFFFFFF AND DUP2 MSTORE PUSH1 0x20 ADD SWAP1 DUP2 MSTORE PUSH1 0x20 ADD PUSH1 0x0 KECCAK256 PUSH1 0x0 DUP3 DUP3 SLOAD PUSH3 0x1F59 SWAP2 SWAP1 PUSH3 0x3055 JUMP JUMPDEST SWAP3 POP POP DUP2 SWAP1 SSTORE POP DUP2 PUSH1 0x3 PUSH1 0x0 DUP6 PUSH20 0xFFFFFFFFFFFFFFFFFFFFFFFFFFFFFFFFFFFFFFFF AND PUSH20 0xFFFFFFFFFFFFFFFFFFFFFFFFFFFFFFFFFFFFFFFF AND DUP2 MSTORE PUSH1 0x20 ADD SWAP1 DUP2 MSTORE PUSH1 0x20 ADD PUSH1 0x0 KECCAK256 PUSH1 0x0 DUP3 DUP3 SLOAD PUSH3 0x1FB1 SWAP2 SWAP1 PUSH3 0x3102 JUMP JUMPDEST SWAP3 POP POP DUP2 SWAP1 SSTORE POP DUP3 PUSH20 0xFFFFFFFFFFFFFFFFFFFFFFFFFFFFFFFFFFFFFFFF AND DUP5 PUSH20 0xFFFFFFFFFFFFFFFFFFFFFFFFFFFFFFFFFFFFFFFF AND PUSH32 0xDDF252AD1BE2C89B69C2B068FC378DAA952BA7F163C4A11628F55A4DF523B3EF DUP5 PUSH1 0x40 MLOAD PUSH3 0x2017 SWAP2 SWAP1 PUSH3 0x2B9F JUMP JUMPDEST PUSH1 0x40 MLOAD DUP1 SWAP2 SUB SWAP1 LOG3 DUP1 PUSH1 0x3 PUSH1 0x0 DUP6 PUSH20 0xFFFFFFFFFFFFFFFFFFFFFFFFFFFFFFFFFFFFFFFF AND PUSH20 0xFFFFFFFFFFFFFFFFFFFFFFFFFFFFFFFFFFFFFFFF AND DUP2 MSTORE PUSH1 0x20 ADD SWAP1 DUP2 MSTORE PUSH1 0x20 ADD PUSH1 0x0 KECCAK256 SLOAD PUSH1 0x3 PUSH1 0x0 DUP8 PUSH20 0xFFFFFFFFFFFFFFFFFFFFFFFFFFFFFFFFFFFFFFFF AND PUSH20 0xFFFFFFFFFFFFFFFFFFFFFFFFFFFFFFFFFFFFFFFF AND DUP2 MSTORE PUSH1 0x20 ADD SWAP1 DUP2 MSTORE PUSH1 0x20 ADD PUSH1 0x0 KECCAK256 SLOAD PUSH3 0x20AC SWAP2 SWAP1 PUSH3 0x3102 JUMP JUMPDEST EQ PUSH3 0x20BD JUMPI PUSH3 0x20BC PUSH3 0x34CD JUMP JUMPDEST JUMPDEST POP POP POP POP JUMP JUMPDEST PUSH1 0x0 DUP1 DUP3 SLT ISZERO PUSH3 0x20E0 JUMPI DUP2 PUSH3 0x20DA SWAP1 PUSH3 0x3506 JUMP JUMPDEST PUSH3 0x20E2 JUMP JUMPDEST DUP2 JUMPDEST SWAP1 POP SWAP2 SWAP1 POP JUMP JUMPDEST PUSH1 0x0 DUP1 PUSH1 0x5 PUSH1 0x0 SWAP1 SLOAD SWAP1 PUSH2 0x100 EXP SWAP1 DIV PUSH20 0xFFFFFFFFFFFFFFFFFFFFFFFFFFFFFFFFFFFFFFFF AND PUSH20 0xFFFFFFFFFFFFFFFFFFFFFFFFFFFFFFFFFFFFFFFF AND PUSH4 0x70A08231 ADDRESS PUSH1 0x40 MLOAD DUP3 PUSH4 0xFFFFFFFF AND PUSH1 0xE0 SHL DUP2 MSTORE PUSH1 0x4 ADD PUSH3 0x2149 SWAP2 SWAP1 PUSH3 0x2B71 JUMP JUMPDEST PUSH1 0x20 PUSH1 0x40 MLOAD DUP1 DUP4 SUB DUP2 DUP7 GAS STATICCALL ISZERO DUP1 ISZERO PUSH3 0x2167 JUMPI RETURNDATASIZE PUSH1 0x0 DUP1 RETURNDATACOPY RETURNDATASIZE PUSH1 0x0 REVERT JUMPDEST POP POP POP POP PUSH1 0x40 MLOAD RETURNDATASIZE PUSH1 0x1F NOT PUSH1 0x1F DUP3 ADD AND DUP3 ADD DUP1 PUSH1 0x40 MSTORE POP DUP2 ADD SWAP1 PUSH3 0x218D SWAP2 SWAP1 PUSH3 0x33B1 JUMP JUMPDEST SWAP1 POP PUSH1 0x0 PUSH1 0x6 PUSH1 0x0 SWAP1 SLOAD SWAP1 PUSH2 0x100 EXP SWAP1 DIV PUSH20 0xFFFFFFFFFFFFFFFFFFFFFFFFFFFFFFFFFFFFFFFF AND PUSH20 0xFFFFFFFFFFFFFFFFFFFFFFFFFFFFFFFFFFFFFFFF AND PUSH4 0x70A08231 ADDRESS PUSH1 0x40 MLOAD DUP3 PUSH4 0xFFFFFFFF AND PUSH1 0xE0 SHL DUP2 MSTORE PUSH1 0x4 ADD PUSH3 0x21EE SWAP2 SWAP1 PUSH3 0x2B71 JUMP JUMPDEST PUSH1 0x20 PUSH1 0x40 MLOAD DUP1 DUP4 SUB DUP2 DUP7 GAS STATICCALL ISZERO DUP1 ISZERO PUSH3 0x220C JUMPI RETURNDATASIZE PUSH1 0x0 DUP1 RETURNDATACOPY RETURNDATASIZE PUSH1 0x0 REVERT JUMPDEST POP POP POP POP PUSH1 0x40 MLOAD RETURNDATASIZE PUSH1 0x1F NOT PUSH1 0x1F DUP3 ADD AND DUP3 ADD DUP1 PUSH1 0x40 MSTORE POP DUP2 ADD SWAP1 PUSH3 0x2232 SWAP2 SWAP1 PUSH3 0x33B1 JUMP JUMPDEST SWAP1 POP PUSH1 0x0 PUSH1 0x8 SLOAD SWAP1 POP PUSH1 0x0 PUSH1 0x9 SLOAD SWAP1 POP PUSH1 0x0 DUP3 DUP6 PUSH3 0x2252 SWAP2 SWAP1 PUSH3 0x3055 JUMP JUMPDEST SWAP1 POP PUSH1 0x0 DUP3 DUP6 PUSH3 0x2264 SWAP2 SWAP1 PUSH3 0x3055 JUMP JUMPDEST SWAP1 POP PUSH1 0x0 PUSH1 0x2 SLOAD SWAP1 POP PUSH1 0x0 DUP2 SUB PUSH3 0x2296 JUMPI PUSH3 0x228E DUP4 DUP5 PUSH3 0x2288 SWAP2 SWAP1 PUSH3 0x33E3 JUMP JUMPDEST PUSH3 0x2537 JUMP JUMPDEST SWAP8 POP PUSH3 0x22E5 JUMP JUMPDEST PUSH1 0x0 DUP6 DUP3 DUP6 PUSH3 0x22A7 SWAP2 SWAP1 PUSH3 0x33E3 JUMP JUMPDEST PUSH3 0x22B3 SWAP2 SWAP1 PUSH3 0x316C JUMP JUMPDEST SWAP1 POP PUSH1 0x0 DUP6 DUP4 DUP6 PUSH3 0x22C6 SWAP2 SWAP1 PUSH3 0x33E3 JUMP JUMPDEST PUSH3 0x22D2 SWAP2 SWAP1 PUSH3 0x316C JUMP JUMPDEST SWAP1 POP PUSH3 0x22E0 DUP3 DUP3 PUSH3 0x25FD JUMP JUMPDEST SWAP10 POP POP POP JUMPDEST PUSH1 0x0 DUP9 GT PUSH3 0x232B JUMPI PUSH1 0x40 MLOAD PUSH32 0x8C379A000000000000000000000000000000000000000000000000000000000 DUP2 MSTORE PUSH1 0x4 ADD PUSH3 0x2322 SWAP1 PUSH3 0x35A3 JUMP JUMPDEST PUSH1 0x40 MLOAD DUP1 SWAP2 SUB SWAP1 REVERT JUMPDEST PUSH3 0x2337 DUP10 DUP10 PUSH3 0x2618 JUMP JUMPDEST POP PUSH3 0x2344 DUP10 DUP10 PUSH3 0x26E7 JUMP JUMPDEST PUSH3 0x2352 DUP8 DUP8 DUP8 DUP8 PUSH3 0x2427 JUMP JUMPDEST CALLER PUSH20 0xFFFFFFFFFFFFFFFFFFFFFFFFFFFFFFFFFFFFFFFF AND PUSH32 0xC324C34388E433281D128336DF982824B8E77C37EE8572EB94F5D58CF38B010E DUP5 DUP5 PUSH1 0x40 MLOAD PUSH3 0x239C SWAP3 SWAP2 SWAP1 PUSH3 0x2CEE JUMP JUMPDEST PUSH1 0x40 MLOAD DUP1 SWAP2 SUB SWAP1 LOG2 POP POP POP POP POP POP POP SWAP2 SWAP1 POP JUMP JUMPDEST DUP1 PUSH1 0xE PUSH1 0x0 DUP5 PUSH20 0xFFFFFFFFFFFFFFFFFFFFFFFFFFFFFFFFFFFFFFFF AND PUSH20 0xFFFFFFFFFFFFFFFFFFFFFFFFFFFFFFFFFFFFFFFF AND DUP2 MSTORE PUSH1 0x20 ADD SWAP1 DUP2 MSTORE PUSH1 0x20 ADD PUSH1 0x0 KECCAK256 PUSH1 0x0 DUP3 DUP3 SLOAD PUSH3 0x2401 SWAP2 SWAP1 PUSH3 0x3055 JUMP JUMPDEST SWAP3 POP POP DUP2 SWAP1 SSTORE POP DUP1 PUSH1 0xD PUSH1 0x0 DUP3 DUP3 SLOAD PUSH3 0x241C SWAP2 SWAP1 PUSH3 0x3055 JUMP JUMPDEST SWAP3 POP POP DUP2 SWAP1 SSTORE POP POP POP JUMP JUMPDEST PUSH1 0x0 DUP5 LT ISZERO DUP1 ISZERO PUSH3 0x243A JUMPI POP PUSH1 0x0 DUP4 LT ISZERO JUMPDEST PUSH3 0x247C JUMPI PUSH1 0x40 MLOAD PUSH32 0x8C379A000000000000000000000000000000000000000000000000000000000 DUP2 MSTORE PUSH1 0x4 ADD PUSH3 0x2473 SWAP1 PUSH3 0x3615 JUMP JUMPDEST PUSH1 0x40 MLOAD DUP1 SWAP2 SUB SWAP1 REVERT JUMPDEST PUSH1 0x0 DUP3 GT DUP1 ISZERO PUSH3 0x248D JUMPI POP PUSH1 0x0 DUP2 GT JUMPDEST ISZERO PUSH3 0x24E4 JUMPI DUP1 DUP3 PUSH3 0x24A1 SWAP2 SWAP1 PUSH3 0x316C JUMP JUMPDEST PUSH1 0xB PUSH1 0x0 DUP3 DUP3 SLOAD PUSH3 0x24B4 SWAP2 SWAP1 PUSH3 0x3102 JUMP JUMPDEST SWAP3 POP POP DUP2 SWAP1 SSTORE POP DUP2 DUP2 PUSH3 0x24C9 SWAP2 SWAP1 PUSH3 0x316C JUMP JUMPDEST PUSH1 0xC PUSH1 0x0 DUP3 DUP3 SLOAD PUSH3 0x24DC SWAP2 SWAP1 PUSH3 0x3102 JUMP JUMPDEST SWAP3 POP POP DUP2 SWAP1 SSTORE POP JUMPDEST DUP4 PUSH1 0x8 DUP2 SWAP1 SSTORE POP DUP3 PUSH1 0x9 DUP2 SWAP1 SSTORE POP PUSH32 0xCF2AA50876CDFBB541206F89AF0EE78D44A2ABF8D328E37FA4917F982149848A PUSH1 0x8 SLOAD PUSH1 0x8 SLOAD PUSH1 0x40 MLOAD PUSH3 0x2529 SWAP3 SWAP2 SWAP1 PUSH3 0x2CEE JUMP JUMPDEST PUSH1 0x40 MLOAD DUP1 SWAP2 SUB SWAP1 LOG1 POP POP POP POP JUMP JUMPDEST PUSH1 0x0 DUP1 DUP3 GT PUSH3 0x257E JUMPI PUSH1 0x40 MLOAD PUSH32 0x8C379A000000000000000000000000000000000000000000000000000000000 DUP2 MSTORE PUSH1 0x4 ADD PUSH3 0x2575 SWAP1 PUSH3 0x36AD JUMP JUMPDEST PUSH1 0x40 MLOAD DUP1 SWAP2 SUB SWAP1 REVERT JUMPDEST PUSH1 0x0 DUP3 SUB PUSH3 0x2591 JUMPI PUSH1 0x0 SWAP1 POP PUSH3 0x25F8 JUMP JUMPDEST PUSH1 0x0 PUSH1 0x2 DUP4 PUSH3 0x25A2 SWAP2 SWAP1 PUSH3 0x316C JUMP JUMPDEST SWAP1 POP PUSH1 0x0 JUMPDEST PUSH1 0xA DUP2 LT ISZERO PUSH3 0x25F2 JUMPI PUSH1 0x2 DUP3 DUP6 PUSH3 0x25C1 SWAP2 SWAP1 PUSH3 0x316C JUMP JUMPDEST DUP4 PUSH3 0x25CE SWAP2 SWAP1 PUSH3 0x3102 JUMP JUMPDEST PUSH3 0x25DA SWAP2 SWAP1 PUSH3 0x316C JUMP JUMPDEST SWAP2 POP DUP1 DUP1 PUSH3 0x25E9 SWAP1 PUSH3 0x36CF JUMP JUMPDEST SWAP2 POP POP PUSH3 0x25A7 JUMP JUMPDEST POP DUP1 SWAP2 POP POP JUMPDEST SWAP2 SWAP1 POP JUMP JUMPDEST PUSH1 0x0 DUP2 DUP4 LT PUSH3 0x260E JUMPI DUP2 PUSH3 0x2610 JUMP JUMPDEST DUP3 JUMPDEST SWAP1 POP SWAP3 SWAP2 POP POP JUMP JUMPDEST PUSH1 0x0 DUP2 PUSH1 0x3 PUSH1 0x0 DUP6 PUSH20 0xFFFFFFFFFFFFFFFFFFFFFFFFFFFFFFFFFFFFFFFF AND PUSH20 0xFFFFFFFFFFFFFFFFFFFFFFFFFFFFFFFFFFFFFFFF AND DUP2 MSTORE PUSH1 0x20 ADD SWAP1 DUP2 MSTORE PUSH1 0x20 ADD PUSH1 0x0 KECCAK256 PUSH1 0x0 DUP3 DUP3 SLOAD PUSH3 0x266B SWAP2 SWAP1 PUSH3 0x3102 JUMP JUMPDEST SWAP3 POP POP DUP2 SWAP1 SSTORE POP DUP2 PUSH1 0x2 PUSH1 0x0 DUP3 DUP3 SLOAD PUSH3 0x2686 SWAP2 SWAP1 PUSH3 0x3102 JUMP JUMPDEST SWAP3 POP POP DUP2 SWAP1 SSTORE POP CALLER PUSH20 0xFFFFFFFFFFFFFFFFFFFFFFFFFFFFFFFFFFFFFFFF AND PUSH32 0xF6798A560793A54C3BCFE86A93CDE1E73087D944C0EA20544137D4121396885 DUP4 PUSH1 0x40 MLOAD PUSH3 0x26D5 SWAP2 SWAP1 PUSH3 0x2B9F JUMP JUMPDEST PUSH1 0x40 MLOAD DUP1 SWAP2 SUB SWAP1 LOG2 PUSH1 0x1 SWAP1 POP SWAP3 SWAP2 POP POP JUMP JUMPDEST DUP1 PUSH1 0xE PUSH1 0x0 DUP5 PUSH20 0xFFFFFFFFFFFFFFFFFFFFFFFFFFFFFFFFFFFFFFFF AND PUSH20 0xFFFFFFFFFFFFFFFFFFFFFFFFFFFFFFFFFFFFFFFF AND DUP2 MSTORE PUSH1 0x20 ADD SWAP1 DUP2 MSTORE PUSH1 0x20 ADD PUSH1 0x0 KECCAK256 PUSH1 0x0 DUP3 DUP3 SLOAD PUSH3 0x2738 SWAP2 SWAP1 PUSH3 0x3102 JUMP JUMPDEST SWAP3 POP POP DUP2 SWAP1 SSTORE POP DUP1 PUSH1 0xD PUSH1 0x0 DUP3 DUP3 SLOAD PUSH3 0x2753 SWAP2 SWAP1 PUSH3 0x3102 JUMP JUMPDEST SWAP3 POP POP DUP2 SWAP1 SSTORE POP POP POP JUMP JUMPDEST PUSH2 0x1542 DUP1 PUSH3 0x371D DUP4 CODECOPY ADD SWAP1 JUMP JUMPDEST PUSH1 0x0 DUP2 MLOAD SWAP1 POP SWAP2 SWAP1 POP JUMP JUMPDEST PUSH1 0x0 DUP3 DUP3 MSTORE PUSH1 0x20 DUP3 ADD SWAP1 POP SWAP3 SWAP2 POP POP JUMP JUMPDEST PUSH1 0x0 JUMPDEST DUP4 DUP2 LT ISZERO PUSH3 0x27A8 JUMPI DUP1 DUP3 ADD MLOAD DUP2 DUP5 ADD MSTORE PUSH1 0x20 DUP2 ADD SWAP1 POP PUSH3 0x278B JUMP JUMPDEST PUSH1 0x0 DUP5 DUP5 ADD MSTORE POP POP POP POP JUMP JUMPDEST PUSH1 0x0 PUSH1 0x1F NOT PUSH1 0x1F DUP4 ADD AND SWAP1 POP SWAP2 SWAP1 POP JUMP JUMPDEST PUSH1 0x0 PUSH3 0x27D2 DUP3 PUSH3 0x276C JUMP JUMPDEST PUSH3 0x27DE DUP2 DUP6 PUSH3 0x2777 JUMP JUMPDEST SWAP4 POP PUSH3 0x27F0 DUP2 DUP6 PUSH1 0x20 DUP7 ADD PUSH3 0x2788 JUMP JUMPDEST PUSH3 0x27FB DUP2 PUSH3 0x27B4 JUMP JUMPDEST DUP5 ADD SWAP2 POP POP SWAP3 SWAP2 POP POP JUMP JUMPDEST PUSH1 0x0 PUSH1 0x20 DUP3 ADD SWAP1 POP DUP2 DUP2 SUB PUSH1 0x0 DUP4 ADD MSTORE PUSH3 0x2822 DUP2 DUP5 PUSH3 0x27C5 JUMP JUMPDEST SWAP1 POP SWAP3 SWAP2 POP POP JUMP JUMPDEST PUSH1 0x0 PUSH1 0x40 MLOAD SWAP1 POP SWAP1 JUMP JUMPDEST PUSH1 0x0 DUP1 REVERT JUMPDEST PUSH1 0x0 DUP1 REVERT JUMPDEST PUSH1 0x0 PUSH20 0xFFFFFFFFFFFFFFFFFFFFFFFFFFFFFFFFFFFFFFFF DUP3 AND SWAP1 POP SWAP2 SWAP1 POP JUMP JUMPDEST PUSH1 0x0 PUSH3 0x286B DUP3 PUSH3 0x283E JUMP JUMPDEST SWAP1 POP SWAP2 SWAP1 POP JUMP JUMPDEST PUSH3 0x287D DUP2 PUSH3 0x285E JUMP JUMPDEST DUP2 EQ PUSH3 0x2889 JUMPI PUSH1 0x0 DUP1 REVERT JUMPDEST POP JUMP JUMPDEST PUSH1 0x0 DUP2 CALLDATALOAD SWAP1 POP PUSH3 0x289D DUP2 PUSH3 0x2872 JUMP JUMPDEST SWAP3 SWAP2 POP POP JUMP JUMPDEST PUSH1 0x0 DUP2 SWAP1 POP SWAP2 SWAP1 POP JUMP JUMPDEST PUSH3 0x28B8 DUP2 PUSH3 0x28A3 JUMP JUMPDEST DUP2 EQ PUSH3 0x28C4 JUMPI PUSH1 0x0 DUP1 REVERT JUMPDEST POP JUMP JUMPDEST PUSH1 0x0 DUP2 CALLDATALOAD SWAP1 POP PUSH3 0x28D8 DUP2 PUSH3 0x28AD JUMP JUMPDEST SWAP3 SWAP2 POP POP JUMP JUMPDEST PUSH1 0x0 DUP1 PUSH1 0x40 DUP4 DUP6 SUB SLT ISZERO PUSH3 0x28F8 JUMPI PUSH3 0x28F7 PUSH3 0x2834 JUMP JUMPDEST JUMPDEST PUSH1 0x0 PUSH3 0x2908 DUP6 DUP3 DUP7 ADD PUSH3 0x288C JUMP JUMPDEST SWAP3 POP POP PUSH1 0x20 PUSH3 0x291B DUP6 DUP3 DUP7 ADD PUSH3 0x28C7 JUMP JUMPDEST SWAP2 POP POP SWAP3 POP SWAP3 SWAP1 POP JUMP JUMPDEST PUSH1 0x0 DUP2 ISZERO ISZERO SWAP1 POP SWAP2 SWAP1 POP JUMP JUMPDEST PUSH3 0x293C DUP2 PUSH3 0x2925 JUMP JUMPDEST DUP3 MSTORE POP POP JUMP JUMPDEST PUSH1 0x0 PUSH1 0x20 DUP3 ADD SWAP1 POP PUSH3 0x2959 PUSH1 0x0 DUP4 ADD DUP5 PUSH3 0x2931 JUMP JUMPDEST SWAP3 SWAP2 POP POP JUMP JUMPDEST PUSH1 0x0 DUP1 REVERT JUMPDEST PUSH1 0x0 DUP1 REVERT JUMPDEST PUSH32 0x4E487B7100000000000000000000000000000000000000000000000000000000 PUSH1 0x0 MSTORE PUSH1 0x41 PUSH1 0x4 MSTORE PUSH1 0x24 PUSH1 0x0 REVERT JUMPDEST PUSH3 0x29A3 DUP3 PUSH3 0x27B4 JUMP JUMPDEST DUP2 ADD DUP2 DUP2 LT PUSH8 0xFFFFFFFFFFFFFFFF DUP3 GT OR ISZERO PUSH3 0x29C5 JUMPI PUSH3 0x29C4 PUSH3 0x2969 JUMP JUMPDEST JUMPDEST DUP1 PUSH1 0x40 MSTORE POP POP POP JUMP JUMPDEST PUSH1 0x0 PUSH3 0x29DA PUSH3 0x282A JUMP JUMPDEST SWAP1 POP PUSH3 0x29E8 DUP3 DUP3 PUSH3 0x2998 JUMP JUMPDEST SWAP2 SWAP1 POP JUMP JUMPDEST PUSH1 0x0 PUSH8 0xFFFFFFFFFFFFFFFF DUP3 GT ISZERO PUSH3 0x2A0B JUMPI PUSH3 0x2A0A PUSH3 0x2969 JUMP JUMPDEST JUMPDEST PUSH3 0x2A16 DUP3 PUSH3 0x27B4 JUMP JUMPDEST SWAP1 POP PUSH1 0x20 DUP2 ADD SWAP1 POP SWAP2 SWAP1 POP JUMP JUMPDEST DUP3 DUP2 DUP4 CALLDATACOPY PUSH1 0x0 DUP4 DUP4 ADD MSTORE POP POP POP JUMP JUMPDEST PUSH1 0x0 PUSH3 0x2A49 PUSH3 0x2A43 DUP5 PUSH3 0x29ED JUMP JUMPDEST PUSH3 0x29CE JUMP JUMPDEST SWAP1 POP DUP3 DUP2 MSTORE PUSH1 0x20 DUP2 ADD DUP5 DUP5 DUP5 ADD GT ISZERO PUSH3 0x2A68 JUMPI PUSH3 0x2A67 PUSH3 0x2964 JUMP JUMPDEST JUMPDEST PUSH3 0x2A75 DUP5 DUP3 DUP6 PUSH3 0x2A23 JUMP JUMPDEST POP SWAP4 SWAP3 POP POP POP JUMP JUMPDEST PUSH1 0x0 DUP3 PUSH1 0x1F DUP4 ADD SLT PUSH3 0x2A95 JUMPI PUSH3 0x2A94 PUSH3 0x295F JUMP JUMPDEST JUMPDEST DUP2 CALLDATALOAD PUSH3 0x2AA7 DUP5 DUP3 PUSH1 0x20 DUP7 ADD PUSH3 0x2A32 JUMP JUMPDEST SWAP2 POP POP SWAP3 SWAP2 POP POP JUMP JUMPDEST PUSH1 0x0 DUP1 PUSH1 0x0 DUP1 PUSH1 0x80 DUP6 DUP8 SUB SLT ISZERO PUSH3 0x2ACD JUMPI PUSH3 0x2ACC PUSH3 0x2834 JUMP JUMPDEST JUMPDEST PUSH1 0x0 DUP6 ADD CALLDATALOAD PUSH8 0xFFFFFFFFFFFFFFFF DUP2 GT ISZERO PUSH3 0x2AEE JUMPI PUSH3 0x2AED PUSH3 0x2839 JUMP JUMPDEST JUMPDEST PUSH3 0x2AFC DUP8 DUP3 DUP9 ADD PUSH3 0x2A7D JUMP JUMPDEST SWAP5 POP POP PUSH1 0x20 DUP6 ADD CALLDATALOAD PUSH8 0xFFFFFFFFFFFFFFFF DUP2 GT ISZERO PUSH3 0x2B20 JUMPI PUSH3 0x2B1F PUSH3 0x2839 JUMP JUMPDEST JUMPDEST PUSH3 0x2B2E DUP8 DUP3 DUP9 ADD PUSH3 0x2A7D JUMP JUMPDEST SWAP4 POP POP PUSH1 0x40 PUSH3 0x2B41 DUP8 DUP3 DUP9 ADD PUSH3 0x288C JUMP JUMPDEST SWAP3 POP POP PUSH1 0x60 PUSH3 0x2B54 DUP8 DUP3 DUP9 ADD PUSH3 0x288C JUMP JUMPDEST SWAP2 POP POP SWAP3 SWAP6 SWAP2 SWAP5 POP SWAP3 POP JUMP JUMPDEST PUSH3 0x2B6B DUP2 PUSH3 0x285E JUMP JUMPDEST DUP3 MSTORE POP POP JUMP JUMPDEST PUSH1 0x0 PUSH1 0x20 DUP3 ADD SWAP1 POP PUSH3 0x2B88 PUSH1 0x0 DUP4 ADD DUP5 PUSH3 0x2B60 JUMP JUMPDEST SWAP3 SWAP2 POP POP JUMP JUMPDEST PUSH3 0x2B99 DUP2 PUSH3 0x28A3 JUMP JUMPDEST DUP3 MSTORE POP POP JUMP JUMPDEST PUSH1 0x0 PUSH1 0x20 DUP3 ADD SWAP1 POP PUSH3 0x2BB6 PUSH1 0x0 DUP4 ADD DUP5 PUSH3 0x2B8E JUMP JUMPDEST SWAP3 SWAP2 POP POP JUMP JUMPDEST PUSH1 0x0 DUP1 PUSH1 0x0 PUSH1 0x60 DUP5 DUP7 SUB SLT ISZERO PUSH3 0x2BD8 JUMPI PUSH3 0x2BD7 PUSH3 0x2834 JUMP JUMPDEST JUMPDEST PUSH1 0x0 PUSH3 0x2BE8 DUP7 DUP3 DUP8 ADD PUSH3 0x288C JUMP JUMPDEST SWAP4 POP POP PUSH1 0x20 PUSH3 0x2BFB DUP7 DUP3 DUP8 ADD PUSH3 0x288C JUMP JUMPDEST SWAP3 POP POP PUSH1 0x40 PUSH3 0x2C0E DUP7 DUP3 DUP8 ADD PUSH3 0x28C7 JUMP JUMPDEST SWAP2 POP POP SWAP3 POP SWAP3 POP SWAP3 JUMP JUMPDEST PUSH1 0x0 PUSH1 0x20 DUP3 DUP5 SUB SLT ISZERO PUSH3 0x2C31 JUMPI PUSH3 0x2C30 PUSH3 0x2834 JUMP JUMPDEST JUMPDEST PUSH1 0x0 PUSH3 0x2C41 DUP5 DUP3 DUP6 ADD PUSH3 0x28C7 JUMP JUMPDEST SWAP2 POP POP SWAP3 SWAP2 POP POP JUMP JUMPDEST PUSH1 0x0 DUP1 PUSH1 0x0 DUP1 PUSH1 0x80 DUP6 DUP8 SUB SLT ISZERO PUSH3 0x2C67 JUMPI PUSH3 0x2C66 PUSH3 0x2834 JUMP JUMPDEST JUMPDEST PUSH1 0x0 PUSH3 0x2C77 DUP8 DUP3 DUP9 ADD PUSH3 0x28C7 JUMP JUMPDEST SWAP5 POP POP PUSH1 0x20 PUSH3 0x2C8A DUP8 DUP3 DUP9 ADD PUSH3 0x28C7 JUMP JUMPDEST SWAP4 POP POP PUSH1 0x40 PUSH3 0x2C9D DUP8 DUP3 DUP9 ADD PUSH3 0x288C JUMP JUMPDEST SWAP3 POP POP PUSH1 0x60 PUSH3 0x2CB0 DUP8 DUP3 DUP9 ADD PUSH3 0x288C JUMP JUMPDEST SWAP2 POP POP SWAP3 SWAP6 SWAP2 SWAP5 POP SWAP3 POP JUMP JUMPDEST PUSH1 0x0 PUSH1 0x20 DUP3 DUP5 SUB SLT ISZERO PUSH3 0x2CD5 JUMPI PUSH3 0x2CD4 PUSH3 0x2834 JUMP JUMPDEST JUMPDEST PUSH1 0x0 PUSH3 0x2CE5 DUP5 DUP3 DUP6 ADD PUSH3 0x288C JUMP JUMPDEST SWAP2 POP POP SWAP3 SWAP2 POP POP JUMP JUMPDEST PUSH1 0x0 PUSH1 0x40 DUP3 ADD SWAP1 POP PUSH3 0x2D05 PUSH1 0x0 DUP4 ADD DUP6 PUSH3 0x2B8E JUMP JUMPDEST PUSH3 0x2D14 PUSH1 0x20 DUP4 ADD DUP5 PUSH3 0x2B8E JUMP JUMPDEST SWAP4 SWAP3 POP POP POP JUMP JUMPDEST PUSH1 0x0 DUP1 PUSH1 0x40 DUP4 DUP6 SUB SLT ISZERO PUSH3 0x2D35 JUMPI PUSH3 0x2D34 PUSH3 0x2834 JUMP JUMPDEST JUMPDEST PUSH1 0x0 PUSH3 0x2D45 DUP6 DUP3 DUP7 ADD PUSH3 0x288C JUMP JUMPDEST SWAP3 POP POP PUSH1 0x20 PUSH3 0x2D58 DUP6 DUP3 DUP7 ADD PUSH3 0x288C JUMP JUMPDEST SWAP2 POP POP SWAP3 POP SWAP3 SWAP1 POP JUMP JUMPDEST PUSH32 0x4E487B7100000000000000000000000000000000000000000000000000000000 PUSH1 0x0 MSTORE PUSH1 0x22 PUSH1 0x4 MSTORE PUSH1 0x24 PUSH1 0x0 REVERT JUMPDEST PUSH1 0x0 PUSH1 0x2 DUP3 DIV SWAP1 POP PUSH1 0x1 DUP3 AND DUP1 PUSH3 0x2DAA JUMPI PUSH1 0x7F DUP3 AND SWAP2 POP JUMPDEST PUSH1 0x20 DUP3 LT DUP2 SUB PUSH3 0x2DC0 JUMPI PUSH3 0x2DBF PUSH3 0x2D62 JUMP JUMPDEST JUMPDEST POP SWAP2 SWAP1 POP JUMP JUMPDEST PUSH32 0x496E76616C696420746F6B656E73206164647265737365730000000000000000 PUSH1 0x0 DUP3 ADD MSTORE POP JUMP JUMPDEST PUSH1 0x0 PUSH3 0x2DFE PUSH1 0x18 DUP4 PUSH3 0x2777 JUMP JUMPDEST SWAP2 POP PUSH3 0x2E0B DUP3 PUSH3 0x2DC6 JUMP JUMPDEST PUSH1 0x20 DUP3 ADD SWAP1 POP SWAP2 SWAP1 POP JUMP JUMPDEST PUSH1 0x0 PUSH1 0x20 DUP3 ADD SWAP1 POP DUP2 DUP2 SUB PUSH1 0x0 DUP4 ADD MSTORE PUSH3 0x2E31 DUP2 PUSH3 0x2DEF JUMP JUMPDEST SWAP1 POP SWAP2 SWAP1 POP JUMP JUMPDEST PUSH32 0x496E76616C696420616464726573730000000000000000000000000000000000 PUSH1 0x0 DUP3 ADD MSTORE POP JUMP JUMPDEST PUSH1 0x0 PUSH3 0x2E70 PUSH1 0xF DUP4 PUSH3 0x2777 JUMP JUMPDEST SWAP2 POP PUSH3 0x2E7D DUP3 PUSH3 0x2E38 JUMP JUMPDEST PUSH1 0x20 DUP3 ADD SWAP1 POP SWAP2 SWAP1 POP JUMP JUMPDEST PUSH1 0x0 PUSH1 0x20 DUP3 ADD SWAP1 POP DUP2 DUP2 SUB PUSH1 0x0 DUP4 ADD MSTORE PUSH3 0x2EA3 DUP2 PUSH3 0x2E61 JUMP JUMPDEST SWAP1 POP SWAP2 SWAP1 POP JUMP JUMPDEST PUSH32 0x4C697175696469747920506F6F6C20616C726561647920657869737473000000 PUSH1 0x0 DUP3 ADD MSTORE POP JUMP JUMPDEST PUSH1 0x0 PUSH3 0x2EE2 PUSH1 0x1D DUP4 PUSH3 0x2777 JUMP JUMPDEST SWAP2 POP PUSH3 0x2EEF DUP3 PUSH3 0x2EAA JUMP JUMPDEST PUSH1 0x20 DUP3 ADD SWAP1 POP SWAP2 SWAP1 POP JUMP JUMPDEST PUSH1 0x0 PUSH1 0x20 DUP3 ADD SWAP1 POP DUP2 DUP2 SUB PUSH1 0x0 DUP4 ADD MSTORE PUSH3 0x2F15 DUP2 PUSH3 0x2ED3 JUMP JUMPDEST SWAP1 POP SWAP2 SWAP1 POP JUMP JUMPDEST PUSH1 0x0 DUP2 SWAP1 POP SWAP2 SWAP1 POP JUMP JUMPDEST PUSH1 0x0 DUP2 SWAP1 POP SWAP2 SWAP1 POP JUMP JUMPDEST PUSH1 0x0 PUSH3 0x2F51 PUSH3 0x2F4B PUSH3 0x2F45 DUP5 PUSH3 0x2F1C JUMP JUMPDEST PUSH3 0x2F26 JUMP JUMPDEST PUSH3 0x28A3 JUMP JUMPDEST SWAP1 POP SWAP2 SWAP1 POP JUMP JUMPDEST PUSH3 0x2F63 DUP2 PUSH3 0x2F30 JUMP JUMPDEST DUP3 MSTORE POP POP JUMP JUMPDEST PUSH1 0x0 PUSH1 0x60 DUP3 ADD SWAP1 POP PUSH3 0x2F80 PUSH1 0x0 DUP4 ADD DUP7 PUSH3 0x2F58 JUMP JUMPDEST DUP2 DUP2 SUB PUSH1 0x20 DUP4 ADD MSTORE PUSH3 0x2F94 DUP2 DUP6 PUSH3 0x27C5 JUMP JUMPDEST SWAP1 POP DUP2 DUP2 SUB PUSH1 0x40 DUP4 ADD MSTORE PUSH3 0x2FAA DUP2 DUP5 PUSH3 0x27C5 JUMP JUMPDEST SWAP1 POP SWAP5 SWAP4 POP POP POP POP JUMP JUMPDEST PUSH32 0x496E76616C696420616C6C6F77616E6365000000000000000000000000000000 PUSH1 0x0 DUP3 ADD MSTORE POP JUMP JUMPDEST PUSH1 0x0 PUSH3 0x2FEC PUSH1 0x11 DUP4 PUSH3 0x2777 JUMP JUMPDEST SWAP2 POP PUSH3 0x2FF9 DUP3 PUSH3 0x2FB4 JUMP JUMPDEST PUSH1 0x20 DUP3 ADD SWAP1 POP SWAP2 SWAP1 POP JUMP JUMPDEST PUSH1 0x0 PUSH1 0x20 DUP3 ADD SWAP1 POP DUP2 DUP2 SUB PUSH1 0x0 DUP4 ADD MSTORE PUSH3 0x301F DUP2 PUSH3 0x2FDD JUMP JUMPDEST SWAP1 POP SWAP2 SWAP1 POP JUMP JUMPDEST PUSH32 0x4E487B7100000000000000000000000000000000000000000000000000000000 PUSH1 0x0 MSTORE PUSH1 0x11 PUSH1 0x4 MSTORE PUSH1 0x24 PUSH1 0x0 REVERT JUMPDEST PUSH1 0x0 PUSH3 0x3062 DUP3 PUSH3 0x28A3 JUMP JUMPDEST SWAP2 POP PUSH3 0x306F DUP4 PUSH3 0x28A3 JUMP JUMPDEST SWAP3 POP DUP3 DUP3 SUB SWAP1 POP DUP2 DUP2 GT ISZERO PUSH3 0x308A JUMPI PUSH3 0x3089 PUSH3 0x3026 JUMP JUMPDEST JUMPDEST SWAP3 SWAP2 POP POP JUMP JUMPDEST PUSH32 0x496E76616C6964206C697175696469747920706F6F6C20706169722E00000000 PUSH1 0x0 DUP3 ADD MSTORE POP JUMP JUMPDEST PUSH1 0x0 PUSH3 0x30C8 PUSH1 0x1C DUP4 PUSH3 0x2777 JUMP JUMPDEST SWAP2 POP PUSH3 0x30D5 DUP3 PUSH3 0x3090 JUMP JUMPDEST PUSH1 0x20 DUP3 ADD SWAP1 POP SWAP2 SWAP1 POP JUMP JUMPDEST PUSH1 0x0 PUSH1 0x20 DUP3 ADD SWAP1 POP DUP2 DUP2 SUB PUSH1 0x0 DUP4 ADD MSTORE PUSH3 0x30FB DUP2 PUSH3 0x30B9 JUMP JUMPDEST SWAP1 POP SWAP2 SWAP1 POP JUMP JUMPDEST PUSH1 0x0 PUSH3 0x310F DUP3 PUSH3 0x28A3 JUMP JUMPDEST SWAP2 POP PUSH3 0x311C DUP4 PUSH3 0x28A3 JUMP JUMPDEST SWAP3 POP DUP3 DUP3 ADD SWAP1 POP DUP1 DUP3 GT ISZERO PUSH3 0x3137 JUMPI PUSH3 0x3136 PUSH3 0x3026 JUMP JUMPDEST JUMPDEST SWAP3 SWAP2 POP POP JUMP JUMPDEST PUSH32 0x4E487B7100000000000000000000000000000000000000000000000000000000 PUSH1 0x0 MSTORE PUSH1 0x12 PUSH1 0x4 MSTORE PUSH1 0x24 PUSH1 0x0 REVERT JUMPDEST PUSH1 0x0 PUSH3 0x3179 DUP3 PUSH3 0x28A3 JUMP JUMPDEST SWAP2 POP PUSH3 0x3186 DUP4 PUSH3 0x28A3 JUMP JUMPDEST SWAP3 POP DUP3 PUSH3 0x3199 JUMPI PUSH3 0x3198 PUSH3 0x313D JUMP JUMPDEST JUMPDEST DUP3 DUP3 DIV SWAP1 POP SWAP3 SWAP2 POP POP JUMP JUMPDEST PUSH32 0x4C697175696469747920506F6F6C206E6F7420666F756E642065786973747300 PUSH1 0x0 DUP3 ADD MSTORE POP JUMP JUMPDEST PUSH1 0x0 PUSH3 0x31DC PUSH1 0x1F DUP4 PUSH3 0x2777 JUMP JUMPDEST SWAP2 POP PUSH3 0x31E9 DUP3 PUSH3 0x31A4 JUMP JUMPDEST PUSH1 0x20 DUP3 ADD SWAP1 POP SWAP2 SWAP1 POP JUMP JUMPDEST PUSH1 0x0 PUSH1 0x20 DUP3 ADD SWAP1 POP DUP2 DUP2 SUB PUSH1 0x0 DUP4 ADD MSTORE PUSH3 0x320F DUP2 PUSH3 0x31CD JUMP JUMPDEST SWAP1 POP SWAP2 SWAP1 POP JUMP JUMPDEST PUSH1 0x0 PUSH1 0x60 DUP3 ADD SWAP1 POP PUSH3 0x322D PUSH1 0x0 DUP4 ADD DUP7 PUSH3 0x2B60 JUMP JUMPDEST PUSH3 0x323C PUSH1 0x20 DUP4 ADD DUP6 PUSH3 0x2B60 JUMP JUMPDEST PUSH3 0x324B PUSH1 0x40 DUP4 ADD DUP5 PUSH3 0x2B8E JUMP JUMPDEST SWAP5 SWAP4 POP POP POP POP JUMP JUMPDEST PUSH3 0x325E DUP2 PUSH3 0x2925 JUMP JUMPDEST DUP2 EQ PUSH3 0x326A JUMPI PUSH1 0x0 DUP1 REVERT JUMPDEST POP JUMP JUMPDEST PUSH1 0x0 DUP2 MLOAD SWAP1 POP PUSH3 0x327E DUP2 PUSH3 0x3253 JUMP JUMPDEST SWAP3 SWAP2 POP POP JUMP JUMPDEST PUSH1 0x0 PUSH1 0x20 DUP3 DUP5 SUB SLT ISZERO PUSH3 0x329D JUMPI PUSH3 0x329C PUSH3 0x2834 JUMP JUMPDEST JUMPDEST PUSH1 0x0 PUSH3 0x32AD DUP5 DUP3 DUP6 ADD PUSH3 0x326D JUMP JUMPDEST SWAP2 POP POP SWAP3 SWAP2 POP POP JUMP JUMPDEST PUSH32 0x5472616E666572206F6620746F6B656E206661696C6564000000000000000000 PUSH1 0x0 DUP3 ADD MSTORE POP JUMP JUMPDEST PUSH1 0x0 PUSH3 0x32EE PUSH1 0x17 DUP4 PUSH3 0x2777 JUMP JUMPDEST SWAP2 POP PUSH3 0x32FB DUP3 PUSH3 0x32B6 JUMP JUMPDEST PUSH1 0x20 DUP3 ADD SWAP1 POP SWAP2 SWAP1 POP JUMP JUMPDEST PUSH1 0x0 PUSH1 0x20 DUP3 ADD SWAP1 POP DUP2 DUP2 SUB PUSH1 0x0 DUP4 ADD MSTORE PUSH3 0x3321 DUP2 PUSH3 0x32DF JUMP JUMPDEST SWAP1 POP SWAP2 SWAP1 POP JUMP JUMPDEST PUSH32 0x496E73756666696369656E74206C697175696469747920736861726573000000 PUSH1 0x0 DUP3 ADD MSTORE POP JUMP JUMPDEST PUSH1 0x0 PUSH3 0x3360 PUSH1 0x1D DUP4 PUSH3 0x2777 JUMP JUMPDEST SWAP2 POP PUSH3 0x336D DUP3 PUSH3 0x3328 JUMP JUMPDEST PUSH1 0x20 DUP3 ADD SWAP1 POP SWAP2 SWAP1 POP JUMP JUMPDEST PUSH1 0x0 PUSH1 0x20 DUP3 ADD SWAP1 POP DUP2 DUP2 SUB PUSH1 0x0 DUP4 ADD MSTORE PUSH3 0x3393 DUP2 PUSH3 0x3351 JUMP JUMPDEST SWAP1 POP SWAP2 SWAP1 POP JUMP JUMPDEST PUSH1 0x0 DUP2 MLOAD SWAP1 POP PUSH3 0x33AB DUP2 PUSH3 0x28AD JUMP JUMPDEST SWAP3 SWAP2 POP POP JUMP JUMPDEST PUSH1 0x0 PUSH1 0x20 DUP3 DUP5 SUB SLT ISZERO PUSH3 0x33CA JUMPI PUSH3 0x33C9 PUSH3 0x2834 JUMP JUMPDEST JUMPDEST PUSH1 0x0 PUSH3 0x33DA DUP5 DUP3 DUP6 ADD PUSH3 0x339A JUMP JUMPDEST SWAP2 POP POP SWAP3 SWAP2 POP POP JUMP JUMPDEST PUSH1 0x0 PUSH3 0x33F0 DUP3 PUSH3 0x28A3 JUMP JUMPDEST SWAP2 POP PUSH3 0x33FD DUP4 PUSH3 0x28A3 JUMP JUMPDEST SWAP3 POP DUP3 DUP3 MUL PUSH3 0x340D DUP2 PUSH3 0x28A3 JUMP JUMPDEST SWAP2 POP DUP3 DUP3 DIV DUP5 EQ DUP4 ISZERO OR PUSH3 0x3427 JUMPI PUSH3 0x3426 PUSH3 0x3026 JUMP JUMPDEST JUMPDEST POP SWAP3 SWAP2 POP POP JUMP JUMPDEST PUSH32 0x496E73756666696369656E74207472616E7366657220616D6F756E7473000000 PUSH1 0x0 DUP3 ADD MSTORE POP JUMP JUMPDEST PUSH1 0x0 PUSH3 0x3466 PUSH1 0x1D DUP4 PUSH3 0x2777 JUMP JUMPDEST SWAP2 POP PUSH3 0x3473 DUP3 PUSH3 0x342E JUMP JUMPDEST PUSH1 0x20 DUP3 ADD SWAP1 POP SWAP2 SWAP1 POP JUMP JUMPDEST PUSH1 0x0 PUSH1 0x20 DUP3 ADD SWAP1 POP DUP2 DUP2 SUB PUSH1 0x0 DUP4 ADD MSTORE PUSH3 0x3499 DUP2 PUSH3 0x3457 JUMP JUMPDEST SWAP1 POP SWAP2 SWAP1 POP JUMP JUMPDEST PUSH1 0x0 PUSH1 0x40 DUP3 ADD SWAP1 POP PUSH3 0x34B7 PUSH1 0x0 DUP4 ADD DUP6 PUSH3 0x2B60 JUMP JUMPDEST PUSH3 0x34C6 PUSH1 0x20 DUP4 ADD DUP5 PUSH3 0x2B8E JUMP JUMPDEST SWAP4 SWAP3 POP POP POP JUMP JUMPDEST PUSH32 0x4E487B7100000000000000000000000000000000000000000000000000000000 PUSH1 0x0 MSTORE PUSH1 0x1 PUSH1 0x4 MSTORE PUSH1 0x24 PUSH1 0x0 REVERT JUMPDEST PUSH1 0x0 DUP2 SWAP1 POP SWAP2 SWAP1 POP JUMP JUMPDEST PUSH1 0x0 PUSH3 0x3513 DUP3 PUSH3 0x34FC JUMP JUMPDEST SWAP2 POP PUSH32 0x8000000000000000000000000000000000000000000000000000000000000000 DUP3 SUB PUSH3 0x3548 JUMPI PUSH3 0x3547 PUSH3 0x3026 JUMP JUMPDEST JUMPDEST DUP2 PUSH1 0x0 SUB SWAP1 POP SWAP2 SWAP1 POP JUMP JUMPDEST PUSH32 0x4E6F204C697175696469747920536861726573204D696E746564000000000000 PUSH1 0x0 DUP3 ADD MSTORE POP JUMP JUMPDEST PUSH1 0x0 PUSH3 0x358B PUSH1 0x1A DUP4 PUSH3 0x2777 JUMP JUMPDEST SWAP2 POP PUSH3 0x3598 DUP3 PUSH3 0x3553 JUMP JUMPDEST PUSH1 0x20 DUP3 ADD SWAP1 POP SWAP2 SWAP1 POP JUMP JUMPDEST PUSH1 0x0 PUSH1 0x20 DUP3 ADD SWAP1 POP DUP2 DUP2 SUB PUSH1 0x0 DUP4 ADD MSTORE PUSH3 0x35BE DUP2 PUSH3 0x357C JUMP JUMPDEST SWAP1 POP SWAP2 SWAP1 POP JUMP JUMPDEST PUSH32 0x496E76616C69642062616C616E63657300000000000000000000000000000000 PUSH1 0x0 DUP3 ADD MSTORE POP JUMP JUMPDEST PUSH1 0x0 PUSH3 0x35FD PUSH1 0x10 DUP4 PUSH3 0x2777 JUMP JUMPDEST SWAP2 POP PUSH3 0x360A DUP3 PUSH3 0x35C5 JUMP JUMPDEST PUSH1 0x20 DUP3 ADD SWAP1 POP SWAP2 SWAP1 POP JUMP JUMPDEST PUSH1 0x0 PUSH1 0x20 DUP3 ADD SWAP1 POP DUP2 DUP2 SUB PUSH1 0x0 DUP4 ADD MSTORE PUSH3 0x3630 DUP2 PUSH3 0x35EE JUMP JUMPDEST SWAP1 POP SWAP2 SWAP1 POP JUMP JUMPDEST PUSH32 0x43616E6E6F742063616C63756C6174652073717561726520726F6F74206F6620 PUSH1 0x0 DUP3 ADD MSTORE PUSH32 0x61206E65676174697665206E756D626572000000000000000000000000000000 PUSH1 0x20 DUP3 ADD MSTORE POP JUMP JUMPDEST PUSH1 0x0 PUSH3 0x3695 PUSH1 0x31 DUP4 PUSH3 0x2777 JUMP JUMPDEST SWAP2 POP PUSH3 0x36A2 DUP3 PUSH3 0x3637 JUMP JUMPDEST PUSH1 0x40 DUP3 ADD SWAP1 POP SWAP2 SWAP1 POP JUMP JUMPDEST PUSH1 0x0 PUSH1 0x20 DUP3 ADD SWAP1 POP DUP2 DUP2 SUB PUSH1 0x0 DUP4 ADD MSTORE PUSH3 0x36C8 DUP2 PUSH3 0x3686 JUMP JUMPDEST SWAP1 POP SWAP2 SWAP1 POP JUMP JUMPDEST PUSH1 0x0 PUSH3 0x36DC DUP3 PUSH3 0x28A3 JUMP JUMPDEST SWAP2 POP PUSH32 0xFFFFFFFFFFFFFFFFFFFFFFFFFFFFFFFFFFFFFFFFFFFFFFFFFFFFFFFFFFFFFFFF DUP3 SUB PUSH3 0x3711 JUMPI PUSH3 0x3710 PUSH3 0x3026 JUMP JUMPDEST JUMPDEST PUSH1 0x1 DUP3 ADD SWAP1 POP SWAP2 SWAP1 POP JUMP INVALID PUSH1 0x80 PUSH1 0x40 MSTORE CALLVALUE DUP1 ISZERO PUSH3 0x11 JUMPI PUSH1 0x0 DUP1 REVERT JUMPDEST POP PUSH1 0x40 MLOAD PUSH3 0x1542 CODESIZE SUB DUP1 PUSH3 0x1542 DUP4 CODECOPY DUP2 DUP2 ADD PUSH1 0x40 MSTORE DUP2 ADD SWAP1 PUSH3 0x37 SWAP2 SWAP1 PUSH3 0x27F JUMP JUMPDEST DUP3 PUSH1 0x2 DUP2 SWAP1 SSTORE POP PUSH1 0x2 SLOAD PUSH1 0x3 PUSH1 0x0 CALLER PUSH20 0xFFFFFFFFFFFFFFFFFFFFFFFFFFFFFFFFFFFFFFFF AND PUSH20 0xFFFFFFFFFFFFFFFFFFFFFFFFFFFFFFFFFFFFFFFF AND DUP2 MSTORE PUSH1 0x20 ADD SWAP1 DUP2 MSTORE PUSH1 0x20 ADD PUSH1 0x0 KECCAK256 DUP2 SWAP1 SSTORE POP DUP2 PUSH1 0x0 SWAP1 DUP2 PUSH3 0x95 SWAP2 SWAP1 PUSH3 0x55A JUMP JUMPDEST POP DUP1 PUSH1 0x1 SWAP1 DUP2 PUSH3 0xA7 SWAP2 SWAP1 PUSH3 0x55A JUMP JUMPDEST POP POP POP POP PUSH3 0x641 JUMP JUMPDEST PUSH1 0x0 PUSH1 0x40 MLOAD SWAP1 POP SWAP1 JUMP JUMPDEST PUSH1 0x0 DUP1 REVERT JUMPDEST PUSH1 0x0 DUP1 REVERT JUMPDEST PUSH1 0x0 DUP2 SWAP1 POP SWAP2 SWAP1 POP JUMP JUMPDEST PUSH3 0xDA DUP2 PUSH3 0xC5 JUMP JUMPDEST DUP2 EQ PUSH3 0xE6 JUMPI PUSH1 0x0 DUP1 REVERT JUMPDEST POP JUMP JUMPDEST PUSH1 0x0 DUP2 MLOAD SWAP1 POP PUSH3 0xFA DUP2 PUSH3 0xCF JUMP JUMPDEST SWAP3 SWAP2 POP POP JUMP JUMPDEST PUSH1 0x0 DUP1 REVERT JUMPDEST PUSH1 0x0 DUP1 REVERT JUMPDEST PUSH1 0x0 PUSH1 0x1F NOT PUSH1 0x1F DUP4 ADD AND SWAP1 POP SWAP2 SWAP1 POP JUMP JUMPDEST PUSH32 0x4E487B7100000000000000000000000000000000000000000000000000000000 PUSH1 0x0 MSTORE PUSH1 0x41 PUSH1 0x4 MSTORE PUSH1 0x24 PUSH1 0x0 REVERT JUMPDEST PUSH3 0x155 DUP3 PUSH3 0x10A JUMP JUMPDEST DUP2 ADD DUP2 DUP2 LT PUSH8 0xFFFFFFFFFFFFFFFF DUP3 GT OR ISZERO PUSH3 0x177 JUMPI PUSH3 0x176 PUSH3 0x11B JUMP JUMPDEST JUMPDEST DUP1 PUSH1 0x40 MSTORE POP POP POP JUMP JUMPDEST PUSH1 0x0 PUSH3 0x18C PUSH3 0xB1 JUMP JUMPDEST SWAP1 POP PUSH3 0x19A DUP3 DUP3 PUSH3 0x14A JUMP JUMPDEST SWAP2 SWAP1 POP JUMP JUMPDEST PUSH1 0x0 PUSH8 0xFFFFFFFFFFFFFFFF DUP3 GT ISZERO PUSH3 0x1BD JUMPI PUSH3 0x1BC PUSH3 0x11B JUMP JUMPDEST JUMPDEST PUSH3 0x1C8 DUP3 PUSH3 0x10A JUMP JUMPDEST SWAP1 POP PUSH1 0x20 DUP2 ADD SWAP1 POP SWAP2 SWAP1 POP JUMP JUMPDEST PUSH1 0x0 JUMPDEST DUP4 DUP2 LT ISZERO PUSH3 0x1F5 JUMPI DUP1 DUP3 ADD MLOAD DUP2 DUP5 ADD MSTORE PUSH1 0x20 DUP2 ADD SWAP1 POP PUSH3 0x1D8 JUMP JUMPDEST PUSH1 0x0 DUP5 DUP5 ADD MSTORE POP POP POP POP JUMP JUMPDEST PUSH1 0x0 PUSH3 0x218 PUSH3 0x212 DUP5 PUSH3 0x19F JUMP JUMPDEST PUSH3 0x180 JUMP JUMPDEST SWAP1 POP DUP3 DUP2 MSTORE PUSH1 0x20 DUP2 ADD DUP5 DUP5 DUP5 ADD GT ISZERO PUSH3 0x237 JUMPI PUSH3 0x236 PUSH3 0x105 JUMP JUMPDEST JUMPDEST PUSH3 0x244 DUP5 DUP3 DUP6 PUSH3 0x1D5 JUMP JUMPDEST POP SWAP4 SWAP3 POP POP POP JUMP JUMPDEST PUSH1 0x0 DUP3 PUSH1 0x1F DUP4 ADD SLT PUSH3 0x264 JUMPI PUSH3 0x263 PUSH3 0x100 JUMP JUMPDEST JUMPDEST DUP2 MLOAD PUSH3 0x276 DUP5 DUP3 PUSH1 0x20 DUP7 ADD PUSH3 0x201 JUMP JUMPDEST SWAP2 POP POP SWAP3 SWAP2 POP POP JUMP JUMPDEST PUSH1 0x0 DUP1 PUSH1 0x0 PUSH1 0x60 DUP5 DUP7 SUB SLT ISZERO PUSH3 0x29B JUMPI PUSH3 0x29A PUSH3 0xBB JUMP JUMPDEST JUMPDEST PUSH1 0x0 PUSH3 0x2AB DUP7 DUP3 DUP8 ADD PUSH3 0xE9 JUMP JUMPDEST SWAP4 POP POP PUSH1 0x20 DUP5 ADD MLOAD PUSH8 0xFFFFFFFFFFFFFFFF DUP2 GT ISZERO PUSH3 0x2CF JUMPI PUSH3 0x2CE PUSH3 0xC0 JUMP JUMPDEST JUMPDEST PUSH3 0x2DD DUP7 DUP3 DUP8 ADD PUSH3 0x24C JUMP JUMPDEST SWAP3 POP POP PUSH1 0x40 DUP5 ADD MLOAD PUSH8 0xFFFFFFFFFFFFFFFF DUP2 GT ISZERO PUSH3 0x301 JUMPI PUSH3 0x300 PUSH3 0xC0 JUMP JUMPDEST JUMPDEST PUSH3 0x30F DUP7 DUP3 DUP8 ADD PUSH3 0x24C JUMP JUMPDEST SWAP2 POP POP SWAP3 POP SWAP3 POP SWAP3 JUMP JUMPDEST PUSH1 0x0 DUP2 MLOAD SWAP1 POP SWAP2 SWAP1 POP JUMP JUMPDEST PUSH32 0x4E487B7100000000000000000000000000000000000000000000000000000000 PUSH1 0x0 MSTORE PUSH1 0x22 PUSH1 0x4 MSTORE PUSH1 0x24 PUSH1 0x0 REVERT JUMPDEST PUSH1 0x0 PUSH1 0x2 DUP3 DIV SWAP1 POP PUSH1 0x1 DUP3 AND DUP1 PUSH3 0x36C JUMPI PUSH1 0x7F DUP3 AND SWAP2 POP JUMPDEST PUSH1 0x20 DUP3 LT DUP2 SUB PUSH3 0x382 JUMPI PUSH3 0x381 PUSH3 0x324 JUMP JUMPDEST JUMPDEST POP SWAP2 SWAP1 POP JUMP JUMPDEST PUSH1 0x0 DUP2 SWAP1 POP DUP2 PUSH1 0x0 MSTORE PUSH1 0x20 PUSH1 0x0 KECCAK256 SWAP1 POP SWAP2 SWAP1 POP JUMP JUMPDEST PUSH1 0x0 PUSH1 0x20 PUSH1 0x1F DUP4 ADD DIV SWAP1 POP SWAP2 SWAP1 POP JUMP JUMPDEST PUSH1 0x0 DUP3 DUP3 SHL SWAP1 POP SWAP3 SWAP2 POP POP JUMP JUMPDEST PUSH1 0x0 PUSH1 0x8 DUP4 MUL PUSH3 0x3EC PUSH32 0xFFFFFFFFFFFFFFFFFFFFFFFFFFFFFFFFFFFFFFFFFFFFFFFFFFFFFFFFFFFFFFFF DUP3 PUSH3 0x3AD JUMP JUMPDEST PUSH3 0x3F8 DUP7 DUP4 PUSH3 0x3AD JUMP JUMPDEST SWAP6 POP DUP1 NOT DUP5 AND SWAP4 POP DUP1 DUP7 AND DUP5 OR SWAP3 POP POP POP SWAP4 SWAP3 POP POP POP JUMP JUMPDEST PUSH1 0x0 DUP2 SWAP1 POP SWAP2 SWAP1 POP JUMP JUMPDEST PUSH1 0x0 PUSH3 0x43B PUSH3 0x435 PUSH3 0x42F DUP5 PUSH3 0xC5 JUMP JUMPDEST PUSH3 0x410 JUMP JUMPDEST PUSH3 0xC5 JUMP JUMPDEST SWAP1 POP SWAP2 SWAP1 POP JUMP JUMPDEST PUSH1 0x0 DUP2 SWAP1 POP SWAP2 SWAP1 POP JUMP JUMPDEST PUSH3 0x457 DUP4 PUSH3 0x41A JUMP JUMPDEST PUSH3 0x46F PUSH3 0x466 DUP3 PUSH3 0x442 JUMP JUMPDEST DUP5 DUP5 SLOAD PUSH3 0x3BA JUMP JUMPDEST DUP3 SSTORE POP POP POP POP JUMP JUMPDEST PUSH1 0x0 SWAP1 JUMP JUMPDEST PUSH3 0x486 PUSH3 0x477 JUMP JUMPDEST PUSH3 0x493 DUP2 DUP5 DUP5 PUSH3 0x44C JUMP JUMPDEST POP POP POP JUMP JUMPDEST JUMPDEST DUP2 DUP2 LT ISZERO PUSH3 0x4BB JUMPI PUSH3 0x4AF PUSH1 0x0 DUP3 PUSH3 0x47C JUMP JUMPDEST PUSH1 0x1 DUP2 ADD SWAP1 POP PUSH3 0x499 JUMP JUMPDEST POP POP JUMP JUMPDEST PUSH1 0x1F DUP3 GT ISZERO PUSH3 0x50A JUMPI PUSH3 0x4D4 DUP2 PUSH3 0x388 JUMP JUMPDEST PUSH3 0x4DF DUP5 PUSH3 0x39D JUMP JUMPDEST DUP2 ADD PUSH1 0x20 DUP6 LT ISZERO PUSH3 0x4EF JUMPI DUP2 SWAP1 POP JUMPDEST PUSH3 0x507 PUSH3 0x4FE DUP6 PUSH3 0x39D JUMP JUMPDEST DUP4 ADD DUP3 PUSH3 0x498 JUMP JUMPDEST POP POP JUMPDEST POP POP POP JUMP JUMPDEST PUSH1 0x0 DUP3 DUP3 SHR SWAP1 POP SWAP3 SWAP2 POP POP JUMP JUMPDEST PUSH1 0x0 PUSH3 0x52F PUSH1 0x0 NOT DUP5 PUSH1 0x8 MUL PUSH3 0x50F JUMP JUMPDEST NOT DUP1 DUP4 AND SWAP2 POP POP SWAP3 SWAP2 POP POP JUMP JUMPDEST PUSH1 0x0 PUSH3 0x54A DUP4 DUP4 PUSH3 0x51C JUMP JUMPDEST SWAP2 POP DUP3 PUSH1 0x2 MUL DUP3 OR SWAP1 POP SWAP3 SWAP2 POP POP JUMP JUMPDEST PUSH3 0x565 DUP3 PUSH3 0x319 JUMP JUMPDEST PUSH8 0xFFFFFFFFFFFFFFFF DUP2 GT ISZERO PUSH3 0x581 JUMPI PUSH3 0x580 PUSH3 0x11B JUMP JUMPDEST JUMPDEST PUSH3 0x58D DUP3 SLOAD PUSH3 0x353 JUMP JUMPDEST PUSH3 0x59A DUP3 DUP3 DUP6 PUSH3 0x4BF JUMP JUMPDEST PUSH1 0x0 PUSH1 0x20 SWAP1 POP PUSH1 0x1F DUP4 GT PUSH1 0x1 DUP2 EQ PUSH3 0x5D2 JUMPI PUSH1 0x0 DUP5 ISZERO PUSH3 0x5BD JUMPI DUP3 DUP8 ADD MLOAD SWAP1 POP JUMPDEST PUSH3 0x5C9 DUP6 DUP3 PUSH3 0x53C JUMP JUMPDEST DUP7 SSTORE POP PUSH3 0x639 JUMP JUMPDEST PUSH1 0x1F NOT DUP5 AND PUSH3 0x5E2 DUP7 PUSH3 0x388 JUMP JUMPDEST PUSH1 0x0 JUMPDEST DUP3 DUP2 LT ISZERO PUSH3 0x60C JUMPI DUP5 DUP10 ADD MLOAD DUP3 SSTORE PUSH1 0x1 DUP3 ADD SWAP2 POP PUSH1 0x20 DUP6 ADD SWAP5 POP PUSH1 0x20 DUP2 ADD SWAP1 POP PUSH3 0x5E5 JUMP JUMPDEST DUP7 DUP4 LT ISZERO PUSH3 0x62C JUMPI DUP5 DUP10 ADD MLOAD PUSH3 0x628 PUSH1 0x1F DUP10 AND DUP3 PUSH3 0x51C JUMP JUMPDEST DUP4 SSTORE POP JUMPDEST PUSH1 0x1 PUSH1 0x2 DUP9 MUL ADD DUP9 SSTORE POP POP POP JUMPDEST POP POP POP POP POP POP JUMP JUMPDEST PUSH2 0xEF1 DUP1 PUSH3 0x651 PUSH1 0x0 CODECOPY PUSH1 0x0 RETURN INVALID PUSH1 0x80 PUSH1 0x40 MSTORE CALLVALUE DUP1 ISZERO PUSH2 0x10 JUMPI PUSH1 0x0 DUP1 REVERT JUMPDEST POP PUSH1 0x4 CALLDATASIZE LT PUSH2 0x93 JUMPI PUSH1 0x0 CALLDATALOAD PUSH1 0xE0 SHR DUP1 PUSH4 0x42966C68 GT PUSH2 0x66 JUMPI DUP1 PUSH4 0x42966C68 EQ PUSH2 0x134 JUMPI DUP1 PUSH4 0x70A08231 EQ PUSH2 0x164 JUMPI DUP1 PUSH4 0x95D89B41 EQ PUSH2 0x194 JUMPI DUP1 PUSH4 0xA9059CBB EQ PUSH2 0x1B2 JUMPI DUP1 PUSH4 0xDD62ED3E EQ PUSH2 0x1E2 JUMPI PUSH2 0x93 JUMP JUMPDEST DUP1 PUSH4 0x6FDDE03 EQ PUSH2 0x98 JUMPI DUP1 PUSH4 0x95EA7B3 EQ PUSH2 0xB6 JUMPI DUP1 PUSH4 0x18160DDD EQ PUSH2 0xE6 JUMPI DUP1 PUSH4 0x23B872DD EQ PUSH2 0x104 JUMPI JUMPDEST PUSH1 0x0 DUP1 REVERT JUMPDEST PUSH2 0xA0 PUSH2 0x212 JUMP JUMPDEST PUSH1 0x40 MLOAD PUSH2 0xAD SWAP2 SWAP1 PUSH2 0xAE1 JUMP JUMPDEST PUSH1 0x40 MLOAD DUP1 SWAP2 SUB SWAP1 RETURN JUMPDEST PUSH2 0xD0 PUSH1 0x4 DUP1 CALLDATASIZE SUB DUP2 ADD SWAP1 PUSH2 0xCB SWAP2 SWAP1 PUSH2 0xB9C JUMP JUMPDEST PUSH2 0x2A0 JUMP JUMPDEST PUSH1 0x40 MLOAD PUSH2 0xDD SWAP2 SWAP1 PUSH2 0xBF7 JUMP JUMPDEST PUSH1 0x40 MLOAD DUP1 SWAP2 SUB SWAP1 RETURN JUMPDEST PUSH2 0xEE PUSH2 0x392 JUMP JUMPDEST PUSH1 0x40 MLOAD PUSH2 0xFB SWAP2 SWAP1 PUSH2 0xC21 JUMP JUMPDEST PUSH1 0x40 MLOAD DUP1 SWAP2 SUB SWAP1 RETURN JUMPDEST PUSH2 0x11E PUSH1 0x4 DUP1 CALLDATASIZE SUB DUP2 ADD SWAP1 PUSH2 0x119 SWAP2 SWAP1 PUSH2 0xC3C JUMP JUMPDEST PUSH2 0x398 JUMP JUMPDEST PUSH1 0x40 MLOAD PUSH2 0x12B SWAP2 SWAP1 PUSH2 0xBF7 JUMP JUMPDEST PUSH1 0x40 MLOAD DUP1 SWAP2 SUB SWAP1 RETURN JUMPDEST PUSH2 0x14E PUSH1 0x4 DUP1 CALLDATASIZE SUB DUP2 ADD SWAP1 PUSH2 0x149 SWAP2 SWAP1 PUSH2 0xC8F JUMP JUMPDEST PUSH2 0x502 JUMP JUMPDEST PUSH1 0x40 MLOAD PUSH2 0x15B SWAP2 SWAP1 PUSH2 0xBF7 JUMP JUMPDEST PUSH1 0x40 MLOAD DUP1 SWAP2 SUB SWAP1 RETURN JUMPDEST PUSH2 0x17E PUSH1 0x4 DUP1 CALLDATASIZE SUB DUP2 ADD SWAP1 PUSH2 0x179 SWAP2 SWAP1 PUSH2 0xCBC JUMP JUMPDEST PUSH2 0x616 JUMP JUMPDEST PUSH1 0x40 MLOAD PUSH2 0x18B SWAP2 SWAP1 PUSH2 0xC21 JUMP JUMPDEST PUSH1 0x40 MLOAD DUP1 SWAP2 SUB SWAP1 RETURN JUMPDEST PUSH2 0x19C PUSH2 0x62E JUMP JUMPDEST PUSH1 0x40 MLOAD PUSH2 0x1A9 SWAP2 SWAP1 PUSH2 0xAE1 JUMP JUMPDEST PUSH1 0x40 MLOAD DUP1 SWAP2 SUB SWAP1 RETURN JUMPDEST PUSH2 0x1CC PUSH1 0x4 DUP1 CALLDATASIZE SUB DUP2 ADD SWAP1 PUSH2 0x1C7 SWAP2 SWAP1 PUSH2 0xB9C JUMP JUMPDEST PUSH2 0x6BC JUMP JUMPDEST PUSH1 0x40 MLOAD PUSH2 0x1D9 SWAP2 SWAP1 PUSH2 0xBF7 JUMP JUMPDEST PUSH1 0x40 MLOAD DUP1 SWAP2 SUB SWAP1 RETURN JUMPDEST PUSH2 0x1FC PUSH1 0x4 DUP1 CALLDATASIZE SUB DUP2 ADD SWAP1 PUSH2 0x1F7 SWAP2 SWAP1 PUSH2 0xCE9 JUMP JUMPDEST PUSH2 0x6D3 JUMP JUMPDEST PUSH1 0x40 MLOAD PUSH2 0x209 SWAP2 SWAP1 PUSH2 0xC21 JUMP JUMPDEST PUSH1 0x40 MLOAD DUP1 SWAP2 SUB SWAP1 RETURN JUMPDEST PUSH1 0x0 DUP1 SLOAD PUSH2 0x21F SWAP1 PUSH2 0xD58 JUMP JUMPDEST DUP1 PUSH1 0x1F ADD PUSH1 0x20 DUP1 SWAP2 DIV MUL PUSH1 0x20 ADD PUSH1 0x40 MLOAD SWAP1 DUP2 ADD PUSH1 0x40 MSTORE DUP1 SWAP3 SWAP2 SWAP1 DUP2 DUP2 MSTORE PUSH1 0x20 ADD DUP3 DUP1 SLOAD PUSH2 0x24B SWAP1 PUSH2 0xD58 JUMP JUMPDEST DUP1 ISZERO PUSH2 0x298 JUMPI DUP1 PUSH1 0x1F LT PUSH2 0x26D JUMPI PUSH2 0x100 DUP1 DUP4 SLOAD DIV MUL DUP4 MSTORE SWAP2 PUSH1 0x20 ADD SWAP2 PUSH2 0x298 JUMP JUMPDEST DUP3 ADD SWAP2 SWAP1 PUSH1 0x0 MSTORE PUSH1 0x20 PUSH1 0x0 KECCAK256 SWAP1 JUMPDEST DUP2 SLOAD DUP2 MSTORE SWAP1 PUSH1 0x1 ADD SWAP1 PUSH1 0x20 ADD DUP1 DUP4 GT PUSH2 0x27B JUMPI DUP3 SWAP1 SUB PUSH1 0x1F AND DUP3 ADD SWAP2 JUMPDEST POP POP POP POP POP DUP2 JUMP JUMPDEST PUSH1 0x0 DUP2 PUSH1 0x4 PUSH1 0x0 CALLER PUSH20 0xFFFFFFFFFFFFFFFFFFFFFFFFFFFFFFFFFFFFFFFF AND PUSH20 0xFFFFFFFFFFFFFFFFFFFFFFFFFFFFFFFFFFFFFFFF AND DUP2 MSTORE PUSH1 0x20 ADD SWAP1 DUP2 MSTORE PUSH1 0x20 ADD PUSH1 0x0 KECCAK256 PUSH1 0x0 DUP6 PUSH20 0xFFFFFFFFFFFFFFFFFFFFFFFFFFFFFFFFFFFFFFFF AND PUSH20 0xFFFFFFFFFFFFFFFFFFFFFFFFFFFFFFFFFFFFFFFF AND DUP2 MSTORE PUSH1 0x20 ADD SWAP1 DUP2 MSTORE PUSH1 0x20 ADD PUSH1 0x0 KECCAK256 DUP2 SWAP1 SSTORE POP DUP3 PUSH20 0xFFFFFFFFFFFFFFFFFFFFFFFFFFFFFFFFFFFFFFFF AND CALLER PUSH20 0xFFFFFFFFFFFFFFFFFFFFFFFFFFFFFFFFFFFFFFFF AND PUSH32 0x8C5BE1E5EBEC7D5BD14F71427D1E84F3DD0314C0F7B2291E5B200AC8C7C3B925 DUP5 PUSH1 0x40 MLOAD PUSH2 0x380 SWAP2 SWAP1 PUSH2 0xC21 JUMP JUMPDEST PUSH1 0x40 MLOAD DUP1 SWAP2 SUB SWAP1 LOG3 PUSH1 0x1 SWAP1 POP SWAP3 SWAP2 POP POP JUMP JUMPDEST PUSH1 0x2 SLOAD DUP2 JUMP JUMPDEST PUSH1 0x0 PUSH1 0x4 PUSH1 0x0 DUP6 PUSH20 0xFFFFFFFFFFFFFFFFFFFFFFFFFFFFFFFFFFFFFFFF AND PUSH20 0xFFFFFFFFFFFFFFFFFFFFFFFFFFFFFFFFFFFFFFFF AND DUP2 MSTORE PUSH1 0x20 ADD SWAP1 DUP2 MSTORE PUSH1 0x20 ADD PUSH1 0x0 KECCAK256 PUSH1 0x0 CALLER PUSH20 0xFFFFFFFFFFFFFFFFFFFFFFFFFFFFFFFFFFFFFFFF AND PUSH20 0xFFFFFFFFFFFFFFFFFFFFFFFFFFFFFFFFFFFFFFFF AND DUP2 MSTORE PUSH1 0x20 ADD SWAP1 DUP2 MSTORE PUSH1 0x20 ADD PUSH1 0x0 KECCAK256 SLOAD DUP3 GT ISZERO PUSH2 0x459 JUMPI PUSH1 0x40 MLOAD PUSH32 0x8C379A000000000000000000000000000000000000000000000000000000000 DUP2 MSTORE PUSH1 0x4 ADD PUSH2 0x450 SWAP1 PUSH2 0xDD5 JUMP JUMPDEST PUSH1 0x40 MLOAD DUP1 SWAP2 SUB SWAP1 REVERT JUMPDEST DUP2 PUSH1 0x4 PUSH1 0x0 DUP7 PUSH20 0xFFFFFFFFFFFFFFFFFFFFFFFFFFFFFFFFFFFFFFFF AND PUSH20 0xFFFFFFFFFFFFFFFFFFFFFFFFFFFFFFFFFFFFFFFF AND DUP2 MSTORE PUSH1 0x20 ADD SWAP1 DUP2 MSTORE PUSH1 0x20 ADD PUSH1 0x0 KECCAK256 PUSH1 0x0 CALLER PUSH20 0xFFFFFFFFFFFFFFFFFFFFFFFFFFFFFFFFFFFFFFFF AND PUSH20 0xFFFFFFFFFFFFFFFFFFFFFFFFFFFFFFFFFFFFFFFF AND DUP2 MSTORE PUSH1 0x20 ADD SWAP1 DUP2 MSTORE PUSH1 0x20 ADD PUSH1 0x0 KECCAK256 PUSH1 0x0 DUP3 DUP3 SLOAD PUSH2 0x4E5 SWAP2 SWAP1 PUSH2 0xE24 JUMP JUMPDEST SWAP3 POP POP DUP2 SWAP1 SSTORE POP PUSH2 0x4F7 DUP5 DUP5 DUP5 PUSH2 0x6F8 JUMP JUMPDEST PUSH1 0x1 SWAP1 POP SWAP4 SWAP3 POP POP POP JUMP JUMPDEST PUSH1 0x0 DUP2 PUSH1 0x3 PUSH1 0x0 CALLER PUSH20 0xFFFFFFFFFFFFFFFFFFFFFFFFFFFFFFFFFFFFFFFF AND PUSH20 0xFFFFFFFFFFFFFFFFFFFFFFFFFFFFFFFFFFFFFFFF AND DUP2 MSTORE PUSH1 0x20 ADD SWAP1 DUP2 MSTORE PUSH1 0x20 ADD PUSH1 0x0 KECCAK256 SLOAD LT ISZERO PUSH2 0x550 JUMPI PUSH1 0x0 DUP1 REVERT JUMPDEST DUP2 PUSH1 0x3 PUSH1 0x0 CALLER PUSH20 0xFFFFFFFFFFFFFFFFFFFFFFFFFFFFFFFFFFFFFFFF AND PUSH20 0xFFFFFFFFFFFFFFFFFFFFFFFFFFFFFFFFFFFFFFFF AND DUP2 MSTORE PUSH1 0x20 ADD SWAP1 DUP2 MSTORE PUSH1 0x20 ADD PUSH1 0x0 KECCAK256 PUSH1 0x0 DUP3 DUP3 SLOAD PUSH2 0x59F SWAP2 SWAP1 PUSH2 0xE24 JUMP JUMPDEST SWAP3 POP POP DUP2 SWAP1 SSTORE POP DUP2 PUSH1 0x2 PUSH1 0x0 DUP3 DUP3 SLOAD PUSH2 0x5B8 SWAP2 SWAP1 PUSH2 0xE24 JUMP JUMPDEST SWAP3 POP POP DUP2 SWAP1 SSTORE POP CALLER PUSH20 0xFFFFFFFFFFFFFFFFFFFFFFFFFFFFFFFFFFFFFFFF AND PUSH32 0xCC16F5DBB4873280815C1EE09DBD06736CFFCC184412CF7A71A0FDB75D397CA5 DUP4 PUSH1 0x40 MLOAD PUSH2 0x605 SWAP2 SWAP1 PUSH2 0xC21 JUMP JUMPDEST PUSH1 0x40 MLOAD DUP1 SWAP2 SUB SWAP1 LOG2 PUSH1 0x1 SWAP1 POP SWAP2 SWAP1 POP JUMP JUMPDEST PUSH1 0x3 PUSH1 0x20 MSTORE DUP1 PUSH1 0x0 MSTORE PUSH1 0x40 PUSH1 0x0 KECCAK256 PUSH1 0x0 SWAP2 POP SWAP1 POP SLOAD DUP2 JUMP JUMPDEST PUSH1 0x1 DUP1 SLOAD PUSH2 0x63B SWAP1 PUSH2 0xD58 JUMP JUMPDEST DUP1 PUSH1 0x1F ADD PUSH1 0x20 DUP1 SWAP2 DIV MUL PUSH1 0x20 ADD PUSH1 0x40 MLOAD SWAP1 DUP2 ADD PUSH1 0x40 MSTORE DUP1 SWAP3 SWAP2 SWAP1 DUP2 DUP2 MSTORE PUSH1 0x20 ADD DUP3 DUP1 SLOAD PUSH2 0x667 SWAP1 PUSH2 0xD58 JUMP JUMPDEST DUP1 ISZERO PUSH2 0x6B4 JUMPI DUP1 PUSH1 0x1F LT PUSH2 0x689 JUMPI PUSH2 0x100 DUP1 DUP4 SLOAD DIV MUL DUP4 MSTORE SWAP2 PUSH1 0x20 ADD SWAP2 PUSH2 0x6B4 JUMP JUMPDEST DUP3 ADD SWAP2 SWAP1 PUSH1 0x0 MSTORE PUSH1 0x20 PUSH1 0x0 KECCAK256 SWAP1 JUMPDEST DUP2 SLOAD DUP2 MSTORE SWAP1 PUSH1 0x1 ADD SWAP1 PUSH1 0x20 ADD DUP1 DUP4 GT PUSH2 0x697 JUMPI DUP3 SWAP1 SUB PUSH1 0x1F AND DUP3 ADD SWAP2 JUMPDEST POP POP POP POP POP DUP2 JUMP JUMPDEST PUSH1 0x0 PUSH2 0x6C9 CALLER DUP5 DUP5 PUSH2 0x6F8 JUMP JUMPDEST PUSH1 0x1 SWAP1 POP SWAP3 SWAP2 POP POP JUMP JUMPDEST PUSH1 0x4 PUSH1 0x20 MSTORE DUP2 PUSH1 0x0 MSTORE PUSH1 0x40 PUSH1 0x0 KECCAK256 PUSH1 0x20 MSTORE DUP1 PUSH1 0x0 MSTORE PUSH1 0x40 PUSH1 0x0 KECCAK256 PUSH1 0x0 SWAP2 POP SWAP2 POP POP SLOAD DUP2 JUMP JUMPDEST PUSH1 0x0 PUSH20 0xFFFFFFFFFFFFFFFFFFFFFFFFFFFFFFFFFFFFFFFF AND DUP3 PUSH20 0xFFFFFFFFFFFFFFFFFFFFFFFFFFFFFFFFFFFFFFFF AND SUB PUSH2 0x731 JUMPI PUSH1 0x0 DUP1 REVERT JUMPDEST DUP1 PUSH1 0x3 PUSH1 0x0 DUP6 PUSH20 0xFFFFFFFFFFFFFFFFFFFFFFFFFFFFFFFFFFFFFFFF AND PUSH20 0xFFFFFFFFFFFFFFFFFFFFFFFFFFFFFFFFFFFFFFFF AND DUP2 MSTORE PUSH1 0x20 ADD SWAP1 DUP2 MSTORE PUSH1 0x20 ADD PUSH1 0x0 KECCAK256 SLOAD LT ISZERO PUSH2 0x77D JUMPI PUSH1 0x0 DUP1 REVERT JUMPDEST PUSH1 0x3 PUSH1 0x0 DUP4 PUSH20 0xFFFFFFFFFFFFFFFFFFFFFFFFFFFFFFFFFFFFFFFF AND PUSH20 0xFFFFFFFFFFFFFFFFFFFFFFFFFFFFFFFFFFFFFFFF AND DUP2 MSTORE PUSH1 0x20 ADD SWAP1 DUP2 MSTORE PUSH1 0x20 ADD PUSH1 0x0 KECCAK256 SLOAD DUP2 PUSH1 0x3 PUSH1 0x0 DUP6 PUSH20 0xFFFFFFFFFFFFFFFFFFFFFFFFFFFFFFFFFFFFFFFF AND PUSH20 0xFFFFFFFFFFFFFFFFFFFFFFFFFFFFFFFFFFFFFFFF AND DUP2 MSTORE PUSH1 0x20 ADD SWAP1 DUP2 MSTORE PUSH1 0x20 ADD PUSH1 0x0 KECCAK256 SLOAD PUSH2 0x808 SWAP2 SWAP1 PUSH2 0xE58 JUMP JUMPDEST LT ISZERO PUSH2 0x813 JUMPI PUSH1 0x0 DUP1 REVERT JUMPDEST PUSH1 0x0 PUSH1 0x3 PUSH1 0x0 DUP5 PUSH20 0xFFFFFFFFFFFFFFFFFFFFFFFFFFFFFFFFFFFFFFFF AND PUSH20 0xFFFFFFFFFFFFFFFFFFFFFFFFFFFFFFFFFFFFFFFF AND DUP2 MSTORE PUSH1 0x20 ADD SWAP1 DUP2 MSTORE PUSH1 0x20 ADD PUSH1 0x0 KECCAK256 SLOAD PUSH1 0x3 PUSH1 0x0 DUP7 PUSH20 0xFFFFFFFFFFFFFFFFFFFFFFFFFFFFFFFFFFFFFFFF AND PUSH20 0xFFFFFFFFFFFFFFFFFFFFFFFFFFFFFFFFFFFFFFFF AND DUP2 MSTORE PUSH1 0x20 ADD SWAP1 DUP2 MSTORE PUSH1 0x20 ADD PUSH1 0x0 KECCAK256 SLOAD PUSH2 0x89F SWAP2 SWAP1 PUSH2 0xE58 JUMP JUMPDEST SWAP1 POP DUP2 PUSH1 0x3 PUSH1 0x0 DUP7 PUSH20 0xFFFFFFFFFFFFFFFFFFFFFFFFFFFFFFFFFFFFFFFF AND PUSH20 0xFFFFFFFFFFFFFFFFFFFFFFFFFFFFFFFFFFFFFFFF AND DUP2 MSTORE PUSH1 0x20 ADD SWAP1 DUP2 MSTORE PUSH1 0x20 ADD PUSH1 0x0 KECCAK256 PUSH1 0x0 DUP3 DUP3 SLOAD PUSH2 0x8F0 SWAP2 SWAP1 PUSH2 0xE24 JUMP JUMPDEST SWAP3 POP POP DUP2 SWAP1 SSTORE POP DUP2 PUSH1 0x3 PUSH1 0x0 DUP6 PUSH20 0xFFFFFFFFFFFFFFFFFFFFFFFFFFFFFFFFFFFFFFFF AND PUSH20 0xFFFFFFFFFFFFFFFFFFFFFFFFFFFFFFFFFFFFFFFF AND DUP2 MSTORE PUSH1 0x20 ADD SWAP1 DUP2 MSTORE PUSH1 0x20 ADD PUSH1 0x0 KECCAK256 PUSH1 0x0 DUP3 DUP3 SLOAD PUSH2 0x946 SWAP2 SWAP1 PUSH2 0xE58 JUMP JUMPDEST SWAP3 POP POP DUP2 SWAP1 SSTORE POP DUP3 PUSH20 0xFFFFFFFFFFFFFFFFFFFFFFFFFFFFFFFFFFFFFFFF AND DUP5 PUSH20 0xFFFFFFFFFFFFFFFFFFFFFFFFFFFFFFFFFFFFFFFF AND PUSH32 0xDDF252AD1BE2C89B69C2B068FC378DAA952BA7F163C4A11628F55A4DF523B3EF DUP5 PUSH1 0x40 MLOAD PUSH2 0x9AA SWAP2 SWAP1 PUSH2 0xC21 JUMP JUMPDEST PUSH1 0x40 MLOAD DUP1 SWAP2 SUB SWAP1 LOG3 DUP1 PUSH1 0x3 PUSH1 0x0 DUP6 PUSH20 0xFFFFFFFFFFFFFFFFFFFFFFFFFFFFFFFFFFFFFFFF AND PUSH20 0xFFFFFFFFFFFFFFFFFFFFFFFFFFFFFFFFFFFFFFFF AND DUP2 MSTORE PUSH1 0x20 ADD SWAP1 DUP2 MSTORE PUSH1 0x20 ADD PUSH1 0x0 KECCAK256 SLOAD PUSH1 0x3 PUSH1 0x0 DUP8 PUSH20 0xFFFFFFFFFFFFFFFFFFFFFFFFFFFFFFFFFFFFFFFF AND PUSH20 0xFFFFFFFFFFFFFFFFFFFFFFFFFFFFFFFFFFFFFFFF AND DUP2 MSTORE PUSH1 0x20 ADD SWAP1 DUP2 MSTORE PUSH1 0x20 ADD PUSH1 0x0 KECCAK256 SLOAD PUSH2 0xA3D SWAP2 SWAP1 PUSH2 0xE58 JUMP JUMPDEST EQ PUSH2 0xA4B JUMPI PUSH2 0xA4A PUSH2 0xE8C JUMP JUMPDEST JUMPDEST POP POP POP POP JUMP JUMPDEST PUSH1 0x0 DUP2 MLOAD SWAP1 POP SWAP2 SWAP1 POP JUMP JUMPDEST PUSH1 0x0 DUP3 DUP3 MSTORE PUSH1 0x20 DUP3 ADD SWAP1 POP SWAP3 SWAP2 POP POP JUMP JUMPDEST PUSH1 0x0 JUMPDEST DUP4 DUP2 LT ISZERO PUSH2 0xA8B JUMPI DUP1 DUP3 ADD MLOAD DUP2 DUP5 ADD MSTORE PUSH1 0x20 DUP2 ADD SWAP1 POP PUSH2 0xA70 JUMP JUMPDEST PUSH1 0x0 DUP5 DUP5 ADD MSTORE POP POP POP POP JUMP JUMPDEST PUSH1 0x0 PUSH1 0x1F NOT PUSH1 0x1F DUP4 ADD AND SWAP1 POP SWAP2 SWAP1 POP JUMP JUMPDEST PUSH1 0x0 PUSH2 0xAB3 DUP3 PUSH2 0xA51 JUMP JUMPDEST PUSH2 0xABD DUP2 DUP6 PUSH2 0xA5C JUMP JUMPDEST SWAP4 POP PUSH2 0xACD DUP2 DUP6 PUSH1 0x20 DUP7 ADD PUSH2 0xA6D JUMP JUMPDEST PUSH2 0xAD6 DUP2 PUSH2 0xA97 JUMP JUMPDEST DUP5 ADD SWAP2 POP POP SWAP3 SWAP2 POP POP JUMP JUMPDEST PUSH1 0x0 PUSH1 0x20 DUP3 ADD SWAP1 POP DUP2 DUP2 SUB PUSH1 0x0 DUP4 ADD MSTORE PUSH2 0xAFB DUP2 DUP5 PUSH2 0xAA8 JUMP JUMPDEST SWAP1 POP SWAP3 SWAP2 POP POP JUMP JUMPDEST PUSH1 0x0 DUP1 REVERT JUMPDEST PUSH1 0x0 PUSH20 0xFFFFFFFFFFFFFFFFFFFFFFFFFFFFFFFFFFFFFFFF DUP3 AND SWAP1 POP SWAP2 SWAP1 POP JUMP JUMPDEST PUSH1 0x0 PUSH2 0xB33 DUP3 PUSH2 0xB08 JUMP JUMPDEST SWAP1 POP SWAP2 SWAP1 POP JUMP JUMPDEST PUSH2 0xB43 DUP2 PUSH2 0xB28 JUMP JUMPDEST DUP2 EQ PUSH2 0xB4E JUMPI PUSH1 0x0 DUP1 REVERT JUMPDEST POP JUMP JUMPDEST PUSH1 0x0 DUP2 CALLDATALOAD SWAP1 POP PUSH2 0xB60 DUP2 PUSH2 0xB3A JUMP JUMPDEST SWAP3 SWAP2 POP POP JUMP JUMPDEST PUSH1 0x0 DUP2 SWAP1 POP SWAP2 SWAP1 POP JUMP JUMPDEST PUSH2 0xB79 DUP2 PUSH2 0xB66 JUMP JUMPDEST DUP2 EQ PUSH2 0xB84 JUMPI PUSH1 0x0 DUP1 REVERT JUMPDEST POP JUMP JUMPDEST PUSH1 0x0 DUP2 CALLDATALOAD SWAP1 POP PUSH2 0xB96 DUP2 PUSH2 0xB70 JUMP JUMPDEST SWAP3 SWAP2 POP POP JUMP JUMPDEST PUSH1 0x0 DUP1 PUSH1 0x40 DUP4 DUP6 SUB SLT ISZERO PUSH2 0xBB3 JUMPI PUSH2 0xBB2 PUSH2 0xB03 JUMP JUMPDEST JUMPDEST PUSH1 0x0 PUSH2 0xBC1 DUP6 DUP3 DUP7 ADD PUSH2 0xB51 JUMP JUMPDEST SWAP3 POP POP PUSH1 0x20 PUSH2 0xBD2 DUP6 DUP3 DUP7 ADD PUSH2 0xB87 JUMP JUMPDEST SWAP2 POP POP SWAP3 POP SWAP3 SWAP1 POP JUMP JUMPDEST PUSH1 0x0 DUP2 ISZERO ISZERO SWAP1 POP SWAP2 SWAP1 POP JUMP JUMPDEST PUSH2 0xBF1 DUP2 PUSH2 0xBDC JUMP JUMPDEST DUP3 MSTORE POP POP JUMP JUMPDEST PUSH1 0x0 PUSH1 0x20 DUP3 ADD SWAP1 POP PUSH2 0xC0C PUSH1 0x0 DUP4 ADD DUP5 PUSH2 0xBE8 JUMP JUMPDEST SWAP3 SWAP2 POP POP JUMP JUMPDEST PUSH2 0xC1B DUP2 PUSH2 0xB66 JUMP JUMPDEST DUP3 MSTORE POP POP JUMP JUMPDEST PUSH1 0x0 PUSH1 0x20 DUP3 ADD SWAP1 POP PUSH2 0xC36 PUSH1 0x0 DUP4 ADD DUP5 PUSH2 0xC12 JUMP JUMPDEST SWAP3 SWAP2 POP POP JUMP JUMPDEST PUSH1 0x0 DUP1 PUSH1 0x0 PUSH1 0x60 DUP5 DUP7 SUB SLT ISZERO PUSH2 0xC55 JUMPI PUSH2 0xC54 PUSH2 0xB03 JUMP JUMPDEST JUMPDEST PUSH1 0x0 PUSH2 0xC63 DUP7 DUP3 DUP8 ADD PUSH2 0xB51 JUMP JUMPDEST SWAP4 POP POP PUSH1 0x20 PUSH2 0xC74 DUP7 DUP3 DUP8 ADD PUSH2 0xB51 JUMP JUMPDEST SWAP3 POP POP PUSH1 0x40 PUSH2 0xC85 DUP7 DUP3 DUP8 ADD PUSH2 0xB87 JUMP JUMPDEST SWAP2 POP POP SWAP3 POP SWAP3 POP SWAP3 JUMP JUMPDEST PUSH1 0x0 PUSH1 0x20 DUP3 DUP5 SUB SLT ISZERO PUSH2 0xCA5 JUMPI PUSH2 0xCA4 PUSH2 0xB03 JUMP JUMPDEST JUMPDEST PUSH1 0x0 PUSH2 0xCB3 DUP5 DUP3 DUP6 ADD PUSH2 0xB87 JUMP JUMPDEST SWAP2 POP POP SWAP3 SWAP2 POP POP JUMP JUMPDEST PUSH1 0x0 PUSH1 0x20 DUP3 DUP5 SUB SLT ISZERO PUSH2 0xCD2 JUMPI PUSH2 0xCD1 PUSH2 0xB03 JUMP JUMPDEST JUMPDEST PUSH1 0x0 PUSH2 0xCE0 DUP5 DUP3 DUP6 ADD PUSH2 0xB51 JUMP JUMPDEST SWAP2 POP POP SWAP3 SWAP2 POP POP JUMP JUMPDEST PUSH1 0x0 DUP1 PUSH1 0x40 DUP4 DUP6 SUB SLT ISZERO PUSH2 0xD00 JUMPI PUSH2 0xCFF PUSH2 0xB03 JUMP JUMPDEST JUMPDEST PUSH1 0x0 PUSH2 0xD0E DUP6 DUP3 DUP7 ADD PUSH2 0xB51 JUMP JUMPDEST SWAP3 POP POP PUSH1 0x20 PUSH2 0xD1F DUP6 DUP3 DUP7 ADD PUSH2 0xB51 JUMP JUMPDEST SWAP2 POP POP SWAP3 POP SWAP3 SWAP1 POP JUMP JUMPDEST PUSH32 0x4E487B7100000000000000000000000000000000000000000000000000000000 PUSH1 0x0 MSTORE PUSH1 0x22 PUSH1 0x4 MSTORE PUSH1 0x24 PUSH1 0x0 REVERT JUMPDEST PUSH1 0x0 PUSH1 0x2 DUP3 DIV SWAP1 POP PUSH1 0x1 DUP3 AND DUP1 PUSH2 0xD70 JUMPI PUSH1 0x7F DUP3 AND SWAP2 POP JUMPDEST PUSH1 0x20 DUP3 LT DUP2 SUB PUSH2 0xD83 JUMPI PUSH2 0xD82 PUSH2 0xD29 JUMP JUMPDEST JUMPDEST POP SWAP2 SWAP1 POP JUMP JUMPDEST PUSH32 0x496E76616C696420616C6C6F77616E6365000000000000000000000000000000 PUSH1 0x0 DUP3 ADD MSTORE POP JUMP JUMPDEST PUSH1 0x0 PUSH2 0xDBF PUSH1 0x11 DUP4 PUSH2 0xA5C JUMP JUMPDEST SWAP2 POP PUSH2 0xDCA DUP3 PUSH2 0xD89 JUMP JUMPDEST PUSH1 0x20 DUP3 ADD SWAP1 POP SWAP2 SWAP1 POP JUMP JUMPDEST PUSH1 0x0 PUSH1 0x20 DUP3 ADD SWAP1 POP DUP2 DUP2 SUB PUSH1 0x0 DUP4 ADD MSTORE PUSH2 0xDEE DUP2 PUSH2 0xDB2 JUMP JUMPDEST SWAP1 POP SWAP2 SWAP1 POP JUMP JUMPDEST PUSH32 0x4E487B7100000000000000000000000000000000000000000000000000000000 PUSH1 0x0 MSTORE PUSH1 0x11 PUSH1 0x4 MSTORE PUSH1 0x24 PUSH1 0x0 REVERT JUMPDEST PUSH1 0x0 PUSH2 0xE2F DUP3 PUSH2 0xB66 JUMP JUMPDEST SWAP2 POP PUSH2 0xE3A DUP4 PUSH2 0xB66 JUMP JUMPDEST SWAP3 POP DUP3 DUP3 SUB SWAP1 POP DUP2 DUP2 GT ISZERO PUSH2 0xE52 JUMPI PUSH2 0xE51 PUSH2 0xDF5 JUMP JUMPDEST JUMPDEST SWAP3 SWAP2 POP POP JUMP JUMPDEST PUSH1 0x0 PUSH2 0xE63 DUP3 PUSH2 0xB66 JUMP JUMPDEST SWAP2 POP PUSH2 0xE6E DUP4 PUSH2 0xB66 JUMP JUMPDEST SWAP3 POP DUP3 DUP3 ADD SWAP1 POP DUP1 DUP3 GT ISZERO PUSH2 0xE86 JUMPI PUSH2 0xE85 PUSH2 0xDF5 JUMP JUMPDEST JUMPDEST SWAP3 SWAP2 POP POP JUMP JUMPDEST PUSH32 0x4E487B7100000000000000000000000000000000000000000000000000000000 PUSH1 0x0 MSTORE PUSH1 0x1 PUSH1 0x4 MSTORE PUSH1 0x24 PUSH1 0x0 REVERT INVALID LOG2 PUSH5 0x6970667358 0x22 SLT KECCAK256 0xF7 0x27 DUP6 EXTCODESIZE DUP2 MUL 0xEC LOG2 0xB4 CALLCODE SWAP5 DUP10 SSTORE SHL 0xCC 0xE2 PUSH17 0x8040CA52F5F562B9947F496B66A31F6473 PUSH16 0x6C63430008130033A264697066735822 SLT KECCAK256 ISZERO PUSH21 0x265B41761C8180F73C40A5D76269F4DCDBC25FC592 0xD5 ADD PUSH28 0x90344DC887E64736F6C634300081300330000000000000000000000 "},"methodIdentifiers":{"addLiquidity(uint256,uint256,address,address)":"653d588d","addressTokenA()":"e9a7fb69","addressTokenB()":"f9c1d677","allLiquidityPools(uint256)":"dcdf60e8","allowance(address,address)":"dd62ed3e","approve(address,uint256)":"095ea7b3","balanceOf(address)":"70a08231","burn(uint256)":"42966c68","createLiquidityPool(string,string,address,address)":"0c6ed932","getAmountToken(address,uint256)":"597f670f","getLiquidityPool(address,address)":"f4f31ede","name()":"06fdde03","owner()":"8da5cb5b","priceTokenA()":"8fe4a565","priceTokenB()":"8de6959b","removeLiquidity(uint256)":"9c8f9f23","reserveTokenA()":"c248320c","reserveTokenB()":"19b16aa6","symbol()":"95d89b41","sync()":"fff6cae9","totalLiquidity()":"15770f92","totalSupply()":"18160ddd","transfer(address,uint256)":"a9059cbb","transferFrom(address,address,uint256)":"23b872dd","userLiquidity(address)":"ba4c28c3"}}}}}