{
  "_format": "hh-sol-artifact-1",
  "contractName": "DEX",
  "sourceName": "contracts/DEX.sol",
  "abi": [
    {
      "inputs": [],
      "stateMutability": "nonpayable",
      "type": "constructor"
    },
    {
      "anonymous": false,
      "inputs": [
        {
          "indexed": true,
          "internalType": "address",
          "name": "addressTokenA",
          "type": "address"
        },
        {
          "indexed": true,
          "internalType": "address",
          "name": "addressTokenB",
          "type": "address"
        },
        {
          "indexed": true,
          "internalType": "address",
          "name": "liquidityPool",
          "type": "address"
        },
        {
          "indexed": false,
          "internalType": "string",
          "name": "symbol",
          "type": "string"
        }
      ],
      "name": "LiquidityPoolCreated",
      "type": "event"
    },
    {
      "inputs": [
        {
          "internalType": "uint256",
          "name": "",
          "type": "uint256"
        }
      ],
      "name": "allLiquidityPools",
      "outputs": [
        {
          "internalType": "address",
          "name": "",
          "type": "address"
        }
      ],
      "stateMutability": "view",
      "type": "function"
    },
    {
      "inputs": [
        {
          "internalType": "string",
          "name": "_name",
          "type": "string"
        },
        {
          "internalType": "string",
          "name": "_symbol",
          "type": "string"
        },
        {
          "internalType": "address",
          "name": "_tokenA",
          "type": "address"
        },
        {
          "internalType": "address",
          "name": "_tokenB",
          "type": "address"
        }
      ],
      "name": "createLiquidityPool",
      "outputs": [
        {
          "internalType": "address",
          "name": "",
          "type": "address"
        }
      ],
      "stateMutability": "nonpayable",
      "type": "function"
    },
    {
      "inputs": [
        {
          "internalType": "address",
          "name": "",
          "type": "address"
        },
        {
          "internalType": "address",
          "name": "",
          "type": "address"
        }
      ],
      "name": "getLiquidityPool",
      "outputs": [
        {
          "internalType": "address",
          "name": "",
          "type": "address"
        }
      ],
      "stateMutability": "view",
      "type": "function"
    },
    {
      "inputs": [],
      "name": "name",
      "outputs": [
        {
          "internalType": "string",
          "name": "",
          "type": "string"
        }
      ],
      "stateMutability": "view",
      "type": "function"
    }
  ],
  "bytecode": "0x60806040526040518060400160405280600a81526020017f4d7920414d4d2044657800000000000000000000000000000000000000000000815250600090816200004a9190620002d9565b503480156200005857600080fd5b50620003c0565b600081519050919050565b7f4e487b7100000000000000000000000000000000000000000000000000000000600052604160045260246000fd5b7f4e487b7100000000000000000000000000000000000000000000000000000000600052602260045260246000fd5b60006002820490506001821680620000e157607f821691505b602082108103620000f757620000f662000099565b5b50919050565b60008190508160005260206000209050919050565b60006020601f8301049050919050565b600082821b905092915050565b600060088302620001617fffffffffffffffffffffffffffffffffffffffffffffffffffffffffffffffff8262000122565b6200016d868362000122565b95508019841693508086168417925050509392505050565b6000819050919050565b6000819050919050565b6000620001ba620001b4620001ae8462000185565b6200018f565b62000185565b9050919050565b6000819050919050565b620001d68362000199565b620001ee620001e582620001c1565b8484546200012f565b825550505050565b600090565b62000205620001f6565b62000212818484620001cb565b505050565b5b818110156200023a576200022e600082620001fb565b60018101905062000218565b5050565b601f82111562000289576200025381620000fd565b6200025e8462000112565b810160208510156200026e578190505b620002866200027d8562000112565b83018262000217565b50505b505050565b600082821c905092915050565b6000620002ae600019846008026200028e565b1980831691505092915050565b6000620002c983836200029b565b9150826002028217905092915050565b620002e4826200005f565b67ffffffffffffffff8111156200030057620002ff6200006a565b5b6200030c8254620000c8565b620003198282856200023e565b600060209050601f8311600181146200035157600084156200033c578287015190505b620003488582620002bb565b865550620003b8565b601f1984166200036186620000fd565b60005b828110156200038b5784890151825560018201915060208501945060208101905062000364565b86831015620003ab5784890151620003a7601f8916826200029b565b8355505b6001600288020188555050505b505050505050565b613cf480620003d06000396000f3fe60806040523480156200001157600080fd5b5060043610620000525760003560e01c806306fdde0314620000575780630c6ed9321462000079578063dcdf60e814620000af578063f4f31ede14620000e5575b600080fd5b620000616200011b565b604051620000709190620008f4565b60405180910390f35b62000097600480360381019062000091919062000ae2565b620001b1565b604051620000a6919062000ba3565b60405180910390f35b620000cd6004803603810190620000c7919062000bfb565b620007ca565b604051620000dc919062000ba3565b60405180910390f35b620001036004803603810190620000fd919062000c2d565b6200080a565b60405162000112919062000ba3565b60405180910390f35b600080546200012a9062000ca3565b80601f0160208091040260200160405190810160405280929190818152602001828054620001589062000ca3565b8015620001a95780601f106200017d57610100808354040283529160200191620001a9565b820191906000526020600020905b8154815290600101906020018083116200018b57829003601f168201915b505050505081565b60008173ffffffffffffffffffffffffffffffffffffffff168373ffffffffffffffffffffffffffffffffffffffff160362000224576040517f08c379a00000000000000000000000000000000000000000000000000000000081526004016200021b9062000d28565b60405180910390fd5b600073ffffffffffffffffffffffffffffffffffffffff168373ffffffffffffffffffffffffffffffffffffffff160362000296576040517f08c379a00000000000000000000000000000000000000000000000000000000081526004016200028d9062000d9a565b60405180910390fd5b600073ffffffffffffffffffffffffffffffffffffffff168273ffffffffffffffffffffffffffffffffffffffff160362000308576040517f08c379a0000000000000000000000000000000000000000000000000000000008152600401620002ff9062000d9a565b60405180910390fd5b600073ffffffffffffffffffffffffffffffffffffffff16600160008573ffffffffffffffffffffffffffffffffffffffff1673ffffffffffffffffffffffffffffffffffffffff16815260200190815260200160002060008473ffffffffffffffffffffffffffffffffffffffff1673ffffffffffffffffffffffffffffffffffffffff16815260200190815260200160002060009054906101000a900473ffffffffffffffffffffffffffffffffffffffff1673ffffffffffffffffffffffffffffffffffffffff161462000416576040517f08c379a00000000000000000000000000000000000000000000000000000000081526004016200040d9062000e0c565b60405180910390fd5b600073ffffffffffffffffffffffffffffffffffffffff16600160008473ffffffffffffffffffffffffffffffffffffffff1673ffffffffffffffffffffffffffffffffffffffff16815260200190815260200160002060008573ffffffffffffffffffffffffffffffffffffffff1673ffffffffffffffffffffffffffffffffffffffff16815260200190815260200160002060009054906101000a900473ffffffffffffffffffffffffffffffffffffffff1673ffffffffffffffffffffffffffffffffffffffff161462000524576040517f08c379a00000000000000000000000000000000000000000000000000000000081526004016200051b9062000e0c565b60405180910390fd5b60008585858560405162000538906200084c565b62000547949392919062000e2e565b604051809103906000f08015801562000564573d6000803e3d6000fd5b50905080600160008673ffffffffffffffffffffffffffffffffffffffff1673ffffffffffffffffffffffffffffffffffffffff16815260200190815260200160002060008573ffffffffffffffffffffffffffffffffffffffff1673ffffffffffffffffffffffffffffffffffffffff16815260200190815260200160002060006101000a81548173ffffffffffffffffffffffffffffffffffffffff021916908373ffffffffffffffffffffffffffffffffffffffff16021790555080600160008573ffffffffffffffffffffffffffffffffffffffff1673ffffffffffffffffffffffffffffffffffffffff16815260200190815260200160002060008673ffffffffffffffffffffffffffffffffffffffff1673ffffffffffffffffffffffffffffffffffffffff16815260200190815260200160002060006101000a81548173ffffffffffffffffffffffffffffffffffffffff021916908373ffffffffffffffffffffffffffffffffffffffff1602179055506002819080600181540180825580915050600190039060005260206000200160009091909190916101000a81548173ffffffffffffffffffffffffffffffffffffffff021916908373ffffffffffffffffffffffffffffffffffffffff1602179055508073ffffffffffffffffffffffffffffffffffffffff168373ffffffffffffffffffffffffffffffffffffffff168573ffffffffffffffffffffffffffffffffffffffff167f956bbcc17319dfa54c3a52966ac91021e41bebf0d1a6b87087994c1b4b3e902b88604051620007b69190620008f4565b60405180910390a480915050949350505050565b60028181548110620007db57600080fd5b906000526020600020016000915054906101000a900473ffffffffffffffffffffffffffffffffffffffff1681565b60016020528160005260406000206020528060005260406000206000915091509054906101000a900473ffffffffffffffffffffffffffffffffffffffff1681565b612e358062000e8a83390190565b600081519050919050565b600082825260208201905092915050565b60005b838110156200089657808201518184015260208101905062000879565b60008484015250505050565b6000601f19601f8301169050919050565b6000620008c0826200085a565b620008cc818562000865565b9350620008de81856020860162000876565b620008e981620008a2565b840191505092915050565b60006020820190508181036000830152620009108184620008b3565b905092915050565b6000604051905090565b600080fd5b600080fd5b600080fd5b600080fd5b7f4e487b7100000000000000000000000000000000000000000000000000000000600052604160045260246000fd5b6200097082620008a2565b810181811067ffffffffffffffff8211171562000992576200099162000936565b5b80604052505050565b6000620009a762000918565b9050620009b5828262000965565b919050565b600067ffffffffffffffff821115620009d857620009d762000936565b5b620009e382620008a2565b9050602081019050919050565b82818337600083830152505050565b600062000a1662000a1084620009ba565b6200099b565b90508281526020810184848401111562000a355762000a3462000931565b5b62000a42848285620009f0565b509392505050565b600082601f83011262000a625762000a616200092c565b5b813562000a74848260208601620009ff565b91505092915050565b600073ffffffffffffffffffffffffffffffffffffffff82169050919050565b600062000aaa8262000a7d565b9050919050565b62000abc8162000a9d565b811462000ac857600080fd5b50565b60008135905062000adc8162000ab1565b92915050565b6000806000806080858703121562000aff5762000afe62000922565b5b600085013567ffffffffffffffff81111562000b205762000b1f62000927565b5b62000b2e8782880162000a4a565b945050602085013567ffffffffffffffff81111562000b525762000b5162000927565b5b62000b608782880162000a4a565b935050604062000b738782880162000acb565b925050606062000b868782880162000acb565b91505092959194509250565b62000b9d8162000a9d565b82525050565b600060208201905062000bba600083018462000b92565b92915050565b6000819050919050565b62000bd58162000bc0565b811462000be157600080fd5b50565b60008135905062000bf58162000bca565b92915050565b60006020828403121562000c145762000c1362000922565b5b600062000c248482850162000be4565b91505092915050565b6000806040838503121562000c475762000c4662000922565b5b600062000c578582860162000acb565b925050602062000c6a8582860162000acb565b9150509250929050565b7f4e487b7100000000000000000000000000000000000000000000000000000000600052602260045260246000fd5b6000600282049050600182168062000cbc57607f821691505b60208210810362000cd25762000cd162000c74565b5b50919050565b7f496e76616c696420746f6b656e73206164647265737365730000000000000000600082015250565b600062000d1060188362000865565b915062000d1d8262000cd8565b602082019050919050565b6000602082019050818103600083015262000d438162000d01565b9050919050565b7f496e76616c696420616464726573730000000000000000000000000000000000600082015250565b600062000d82600f8362000865565b915062000d8f8262000d4a565b602082019050919050565b6000602082019050818103600083015262000db58162000d73565b9050919050565b7f4c697175696469747920506f6f6c20616c726561647920657869737473000000600082015250565b600062000df4601d8362000865565b915062000e018262000dbc565b602082019050919050565b6000602082019050818103600083015262000e278162000de5565b9050919050565b6000608082019050818103600083015262000e4a8187620008b3565b9050818103602083015262000e608186620008b3565b905062000e71604083018562000b92565b62000e80606083018462000b92565b9594505050505056fe60806040523480156200001157600080fd5b5060405162002e3538038062002e35833981810160405281019062000037919062000374565b6000848482600281905550600254600360003373ffffffffffffffffffffffffffffffffffffffff1673ffffffffffffffffffffffffffffffffffffffff1681526020019081526020016000208190555081600090816200009991906200066f565b508060019081620000ab91906200066f565b5050505081600560006101000a81548173ffffffffffffffffffffffffffffffffffffffff021916908373ffffffffffffffffffffffffffffffffffffffff16021790555080600660006101000a81548173ffffffffffffffffffffffffffffffffffffffff021916908373ffffffffffffffffffffffffffffffffffffffff16021790555033600760006101000a81548173ffffffffffffffffffffffffffffffffffffffff021916908373ffffffffffffffffffffffffffffffffffffffff1602179055505050505062000756565b6000604051905090565b600080fd5b600080fd5b600080fd5b600080fd5b6000601f19601f8301169050919050565b7f4e487b7100000000000000000000000000000000000000000000000000000000600052604160045260246000fd5b620001e5826200019a565b810181811067ffffffffffffffff82111715620002075762000206620001ab565b5b80604052505050565b60006200021c6200017c565b90506200022a8282620001da565b919050565b600067ffffffffffffffff8211156200024d576200024c620001ab565b5b62000258826200019a565b9050602081019050919050565b60005b838110156200028557808201518184015260208101905062000268565b60008484015250505050565b6000620002a8620002a2846200022f565b62000210565b905082815260208101848484011115620002c757620002c662000195565b5b620002d484828562000265565b509392505050565b600082601f830112620002f457620002f362000190565b5b81516200030684826020860162000291565b91505092915050565b600073ffffffffffffffffffffffffffffffffffffffff82169050919050565b60006200033c826200030f565b9050919050565b6200034e816200032f565b81146200035a57600080fd5b50565b6000815190506200036e8162000343565b92915050565b6000806000806080858703121562000391576200039062000186565b5b600085015167ffffffffffffffff811115620003b257620003b16200018b565b5b620003c087828801620002dc565b945050602085015167ffffffffffffffff811115620003e457620003e36200018b565b5b620003f287828801620002dc565b935050604062000405878288016200035d565b925050606062000418878288016200035d565b91505092959194509250565b600081519050919050565b7f4e487b7100000000000000000000000000000000000000000000000000000000600052602260045260246000fd5b600060028204905060018216806200047757607f821691505b6020821081036200048d576200048c6200042f565b5b50919050565b60008190508160005260206000209050919050565b60006020601f8301049050919050565b600082821b905092915050565b600060088302620004f77fffffffffffffffffffffffffffffffffffffffffffffffffffffffffffffffff82620004b8565b620005038683620004b8565b95508019841693508086168417925050509392505050565b6000819050919050565b6000819050919050565b6000620005506200054a62000544846200051b565b62000525565b6200051b565b9050919050565b6000819050919050565b6200056c836200052f565b620005846200057b8262000557565b848454620004c5565b825550505050565b600090565b6200059b6200058c565b620005a881848462000561565b505050565b5b81811015620005d057620005c460008262000591565b600181019050620005ae565b5050565b601f8211156200061f57620005e98162000493565b620005f484620004a8565b8101602085101562000604578190505b6200061c6200061385620004a8565b830182620005ad565b50505b505050565b600082821c905092915050565b6000620006446000198460080262000624565b1980831691505092915050565b60006200065f838362000631565b9150826002028217905092915050565b6200067a8262000424565b67ffffffffffffffff811115620006965762000695620001ab565b5b620006a282546200045e565b620006af828285620005d4565b600060209050601f831160018114620006e75760008415620006d2578287015190505b620006de858262000651565b8655506200074e565b601f198416620006f78662000493565b60005b828110156200072157848901518255600182019150602085019450602081019050620006fa565b868310156200074157848901516200073d601f89168262000631565b8355505b6001600288020188555050505b505050505050565b6126cf80620007666000396000f3fe608060405234801561001057600080fd5b50600436106101425760003560e01c80638fe4a565116100b8578063ba4c28c31161007c578063ba4c28c3146103b8578063c248320c146103e8578063dd62ed3e14610406578063e9a7fb6914610436578063f9c1d67714610454578063fff6cae91461047257610142565b80638fe4a565146102eb57806395d89b41146103095780639c8f9f23146103275780639cd441da14610358578063a9059cbb1461038857610142565b806323b872dd1161010a57806323b872dd146101ef57806342966c681461021f578063597f670f1461024f57806370a082311461027f5780638da5cb5b146102af5780638de6959b146102cd57610142565b806306fdde0314610147578063095ea7b31461016557806315770f921461019557806318160ddd146101b357806319b16aa6146101d1575b600080fd5b61014f61047c565b60405161015c9190611cdb565b60405180910390f35b61017f600480360381019061017a9190611d96565b61050a565b60405161018c9190611df1565b60405180910390f35b61019d6105fc565b6040516101aa9190611e1b565b60405180910390f35b6101bb610602565b6040516101c89190611e1b565b60405180910390f35b6101d9610608565b6040516101e69190611e1b565b60405180910390f35b61020960048036038101906102049190611e36565b61060e565b6040516102169190611df1565b60405180910390f35b61023960048036038101906102349190611e89565b610778565b6040516102469190611df1565b60405180910390f35b61026960048036038101906102649190611d96565b61088c565b6040516102769190611e1b565b60405180910390f35b61029960048036038101906102949190611eb6565b610a55565b6040516102a69190611e1b565b60405180910390f35b6102b7610a6d565b6040516102c49190611ef2565b60405180910390f35b6102d5610a93565b6040516102e29190611e1b565b60405180910390f35b6102f3610a99565b6040516103009190611e1b565b60405180910390f35b610311610a9f565b60405161031e9190611cdb565b60405180910390f35b610341600480360381019061033c9190611e89565b610b2d565b60405161034f929190611f0d565b60405180910390f35b610372600480360381019061036d9190611f36565b610ee4565b60405161037f9190611df1565b60405180910390f35b6103a2600480360381019061039d9190611d96565b6110c7565b6040516103af9190611df1565b60405180910390f35b6103d260048036038101906103cd9190611eb6565b6110de565b6040516103df9190611e1b565b60405180910390f35b6103f06110f6565b6040516103fd9190611e1b565b60405180910390f35b610420600480360381019061041b9190611f76565b6110fc565b60405161042d9190611e1b565b60405180910390f35b61043e611121565b60405161044b9190611ef2565b60405180910390f35b61045c611147565b6040516104699190611ef2565b60405180910390f35b61047a61116d565b005b6000805461048990611fe5565b80601f01602080910402602001604051908101604052809291908181526020018280546104b590611fe5565b80156105025780601f106104d757610100808354040283529160200191610502565b820191906000526020600020905b8154815290600101906020018083116104e557829003601f168201915b505050505081565b600081600460003373ffffffffffffffffffffffffffffffffffffffff1673ffffffffffffffffffffffffffffffffffffffff16815260200190815260200160002060008573ffffffffffffffffffffffffffffffffffffffff1673ffffffffffffffffffffffffffffffffffffffff168152602001908152602001600020819055508273ffffffffffffffffffffffffffffffffffffffff163373ffffffffffffffffffffffffffffffffffffffff167f8c5be1e5ebec7d5bd14f71427d1e84f3dd0314c0f7b2291e5b200ac8c7c3b925846040516105ea9190611e1b565b60405180910390a36001905092915050565b600d5481565b60025481565b60095481565b6000600460008573ffffffffffffffffffffffffffffffffffffffff1673ffffffffffffffffffffffffffffffffffffffff16815260200190815260200160002060003373ffffffffffffffffffffffffffffffffffffffff1673ffffffffffffffffffffffffffffffffffffffff168152602001908152602001600020548211156106cf576040517f08c379a00000000000000000000000000000000000000000000000000000000081526004016106c690612062565b60405180910390fd5b81600460008673ffffffffffffffffffffffffffffffffffffffff1673ffffffffffffffffffffffffffffffffffffffff16815260200190815260200160002060003373ffffffffffffffffffffffffffffffffffffffff1673ffffffffffffffffffffffffffffffffffffffff168152602001908152602001600020600082825461075b91906120b1565b9250508190555061076d8484846112b5565b600190509392505050565b600081600360003373ffffffffffffffffffffffffffffffffffffffff1673ffffffffffffffffffffffffffffffffffffffff1681526020019081526020016000205410156107c657600080fd5b81600360003373ffffffffffffffffffffffffffffffffffffffff1673ffffffffffffffffffffffffffffffffffffffff168152602001908152602001600020600082825461081591906120b1565b92505081905550816002600082825461082e91906120b1565b925050819055503373ffffffffffffffffffffffffffffffffffffffff167fcc16f5dbb4873280815c1ee09dbd06736cffcc184412cf7a71a0fdb75d397ca58360405161087b9190611e1b565b60405180910390a260019050919050565b6000806008541180156108a157506000600954115b6108e0576040517f08c379a00000000000000000000000000000000000000000000000000000000081526004016108d790612131565b60405180910390fd5b600080600560009054906101000a900473ffffffffffffffffffffffffffffffffffffffff1673ffffffffffffffffffffffffffffffffffffffff168573ffffffffffffffffffffffffffffffffffffffff160361099457836008546109469190612151565b9150600082111561098f578160025461095f91906121b4565b9050806009541161097d576009548161097891906120b1565b61098c565b8060095461098b91906120b1565b5b92505b610a42565b600660009054906101000a900473ffffffffffffffffffffffffffffffffffffffff1673ffffffffffffffffffffffffffffffffffffffff168573ffffffffffffffffffffffffffffffffffffffff1603610a4157836009546109f79190612151565b91506000821115610a405781600254610a1091906121b4565b90508060085411610a2e5760085481610a2991906120b1565b610a3d565b80600854610a3c91906120b1565b5b92505b5b5b610a4b8361160e565b9250505092915050565b60036020528060005260406000206000915090505481565b600760009054906101000a900473ffffffffffffffffffffffffffffffffffffffff1681565b600c5481565b600b5481565b60018054610aac90611fe5565b80601f0160208091040260200160405190810160405280929190818152602001828054610ad890611fe5565b8015610b255780601f10610afa57610100808354040283529160200191610b25565b820191906000526020600020905b815481529060010190602001808311610b0857829003601f168201915b505050505081565b60008082600e60003373ffffffffffffffffffffffffffffffffffffffff1673ffffffffffffffffffffffffffffffffffffffff168152602001908152602001600020541015610bb2576040517f08c379a0000000000000000000000000000000000000000000000000000000008152600401610ba990612231565b60405180910390fd5b6000600560009054906101000a900473ffffffffffffffffffffffffffffffffffffffff1673ffffffffffffffffffffffffffffffffffffffff166370a08231306040518263ffffffff1660e01b8152600401610c0f9190611ef2565b602060405180830381865afa158015610c2c573d6000803e3d6000fd5b505050506040513d601f19601f82011682018060405250810190610c509190612266565b90506000600660009054906101000a900473ffffffffffffffffffffffffffffffffffffffff1673ffffffffffffffffffffffffffffffffffffffff166370a08231306040518263ffffffff1660e01b8152600401610caf9190611ef2565b602060405180830381865afa158015610ccc573d6000803e3d6000fd5b505050506040513d601f19601f82011682018060405250810190610cf09190612266565b90506000600d549050808387610d069190612293565b610d1091906121b4565b9450808287610d1f9190612293565b610d2991906121b4565b9350600085118015610d3b5750600084115b610d7a576040517f08c379a0000000000000000000000000000000000000000000000000000000008152600401610d7190612321565b60405180910390fd5b610d8386610778565b50610d8e3387611630565b610d9a838387876116a3565b600560009054906101000a900473ffffffffffffffffffffffffffffffffffffffff1673ffffffffffffffffffffffffffffffffffffffff1663a9059cbb33876040518363ffffffff1660e01b8152600401610df7929190612341565b6020604051808303816000875af1158015610e16573d6000803e3d6000fd5b505050506040513d601f19601f82011682018060405250810190610e3a9190612396565b50600660009054906101000a900473ffffffffffffffffffffffffffffffffffffffff1673ffffffffffffffffffffffffffffffffffffffff1663a9059cbb33866040518363ffffffff1660e01b8152600401610e98929190612341565b6020604051808303816000875af1158015610eb7573d6000803e3d6000fd5b505050506040513d601f19601f82011682018060405250810190610edb9190612396565b50505050915091565b600080600560009054906101000a900473ffffffffffffffffffffffffffffffffffffffff1690508073ffffffffffffffffffffffffffffffffffffffff166323b872dd3330876040518463ffffffff1660e01b8152600401610f49939291906123c3565b6020604051808303816000875af1158015610f68573d6000803e3d6000fd5b505050506040513d601f19601f82011682018060405250810190610f8c9190612396565b610fcb576040517f08c379a0000000000000000000000000000000000000000000000000000000008152600401610fc290612446565b60405180910390fd5b6000600660009054906101000a900473ffffffffffffffffffffffffffffffffffffffff1690508073ffffffffffffffffffffffffffffffffffffffff166323b872dd3330876040518463ffffffff1660e01b815260040161102f939291906123c3565b6020604051808303816000875af115801561104e573d6000803e3d6000fd5b505050506040513d601f19601f820116820180604052508101906110729190612396565b6110b1576040517f08c379a00000000000000000000000000000000000000000000000000000000081526004016110a890612446565b60405180910390fd5b6110ba336117a3565b5060019250505092915050565b60006110d43384846112b5565b6001905092915050565b600e6020528060005260406000206000915090505481565b60085481565b6004602052816000526040600020602052806000526040600020600091509150505481565b600560009054906101000a900473ffffffffffffffffffffffffffffffffffffffff1681565b600660009054906101000a900473ffffffffffffffffffffffffffffffffffffffff1681565b6112b3600560009054906101000a900473ffffffffffffffffffffffffffffffffffffffff1673ffffffffffffffffffffffffffffffffffffffff166370a08231306040518263ffffffff1660e01b81526004016111cb9190611ef2565b602060405180830381865afa1580156111e8573d6000803e3d6000fd5b505050506040513d601f19601f8201168201806040525081019061120c9190612266565b600660009054906101000a900473ffffffffffffffffffffffffffffffffffffffff1673ffffffffffffffffffffffffffffffffffffffff166370a08231306040518263ffffffff1660e01b81526004016112679190611ef2565b602060405180830381865afa158015611284573d6000803e3d6000fd5b505050506040513d601f19601f820116820180604052508101906112a89190612266565b6008546009546116a3565b565b600073ffffffffffffffffffffffffffffffffffffffff168273ffffffffffffffffffffffffffffffffffffffff16036112ee57600080fd5b80600360008573ffffffffffffffffffffffffffffffffffffffff1673ffffffffffffffffffffffffffffffffffffffff16815260200190815260200160002054101561133a57600080fd5b600360008373ffffffffffffffffffffffffffffffffffffffff1673ffffffffffffffffffffffffffffffffffffffff1681526020019081526020016000205481600360008573ffffffffffffffffffffffffffffffffffffffff1673ffffffffffffffffffffffffffffffffffffffff168152602001908152602001600020546113c59190612151565b10156113d057600080fd5b6000600360008473ffffffffffffffffffffffffffffffffffffffff1673ffffffffffffffffffffffffffffffffffffffff16815260200190815260200160002054600360008673ffffffffffffffffffffffffffffffffffffffff1673ffffffffffffffffffffffffffffffffffffffff1681526020019081526020016000205461145c9190612151565b905081600360008673ffffffffffffffffffffffffffffffffffffffff1673ffffffffffffffffffffffffffffffffffffffff16815260200190815260200160002060008282546114ad91906120b1565b9250508190555081600360008573ffffffffffffffffffffffffffffffffffffffff1673ffffffffffffffffffffffffffffffffffffffff16815260200190815260200160002060008282546115039190612151565b925050819055508273ffffffffffffffffffffffffffffffffffffffff168473ffffffffffffffffffffffffffffffffffffffff167fddf252ad1be2c89b69c2b068fc378daa952ba7f163c4a11628f55a4df523b3ef846040516115679190611e1b565b60405180910390a380600360008573ffffffffffffffffffffffffffffffffffffffff1673ffffffffffffffffffffffffffffffffffffffff16815260200190815260200160002054600360008773ffffffffffffffffffffffffffffffffffffffff1673ffffffffffffffffffffffffffffffffffffffff168152602001908152602001600020546115fa9190612151565b1461160857611607612466565b5b50505050565b60008082121561162757816116229061249f565b611629565b815b9050919050565b80600e60008473ffffffffffffffffffffffffffffffffffffffff1673ffffffffffffffffffffffffffffffffffffffff168152602001908152602001600020600082825461167f91906120b1565b9250508190555080600d600082825461169891906120b1565b925050819055505050565b600084101580156116b5575060008310155b6116f4576040517f08c379a00000000000000000000000000000000000000000000000000000000081526004016116eb90612533565b60405180910390fd5b6000821180156117045750600081115b1561175257808261171591906121b4565b600b60008282546117269190612151565b92505081905550818161173991906121b4565b600c600082825461174a9190612151565b925050819055505b83600881905550826009819055507fcf2aa50876cdfbb541206f89af0ee78d44a2abf8d328e37fa4917f982149848a600854600854604051611795929190611f0d565b60405180910390a150505050565b600080600560009054906101000a900473ffffffffffffffffffffffffffffffffffffffff1673ffffffffffffffffffffffffffffffffffffffff166370a08231306040518263ffffffff1660e01b81526004016118019190611ef2565b602060405180830381865afa15801561181e573d6000803e3d6000fd5b505050506040513d601f19601f820116820180604052508101906118429190612266565b90506000600660009054906101000a900473ffffffffffffffffffffffffffffffffffffffff1673ffffffffffffffffffffffffffffffffffffffff166370a08231306040518263ffffffff1660e01b81526004016118a19190611ef2565b602060405180830381865afa1580156118be573d6000803e3d6000fd5b505050506040513d601f19601f820116820180604052508101906118e29190612266565b905060006008549050600060095490506000828561190091906120b1565b90506000828561191091906120b1565b9050600060025490506000810361193c5761193583846119309190612293565b611a41565b9750611981565b600085828561194b9190612293565b61195591906121b4565b905060008583856119669190612293565b61197091906121b4565b905061197c8282611af6565b995050505b600088116119c4576040517f08c379a00000000000000000000000000000000000000000000000000000000081526004016119bb9061259f565b60405180910390fd5b6119ce8989611b0f565b506119d98989611bd8565b6119e5878787876116a3565b3373ffffffffffffffffffffffffffffffffffffffff167fc324c34388e433281d128336df982824b8e77c37ee8572eb94f5d58cf38b010e8484604051611a2d929190611f0d565b60405180910390a250505050505050919050565b6000808211611a85576040517f08c379a0000000000000000000000000000000000000000000000000000000008152600401611a7c90612631565b60405180910390fd5b60008203611a965760009050611af1565b6000600283611aa591906121b4565b905060005b600a811015611aeb5760028285611ac191906121b4565b83611acc9190612151565b611ad691906121b4565b91508080611ae390612651565b915050611aaa565b50809150505b919050565b6000818310611b055781611b07565b825b905092915050565b600081600360008573ffffffffffffffffffffffffffffffffffffffff1673ffffffffffffffffffffffffffffffffffffffff1681526020019081526020016000206000828254611b609190612151565b925050819055508160026000828254611b799190612151565b925050819055503373ffffffffffffffffffffffffffffffffffffffff167f0f6798a560793a54c3bcfe86a93cde1e73087d944c0ea20544137d412139688583604051611bc69190611e1b565b60405180910390a26001905092915050565b80600e60008473ffffffffffffffffffffffffffffffffffffffff1673ffffffffffffffffffffffffffffffffffffffff1681526020019081526020016000206000828254611c279190612151565b9250508190555080600d6000828254611c409190612151565b925050819055505050565b600081519050919050565b600082825260208201905092915050565b60005b83811015611c85578082015181840152602081019050611c6a565b60008484015250505050565b6000601f19601f8301169050919050565b6000611cad82611c4b565b611cb78185611c56565b9350611cc7818560208601611c67565b611cd081611c91565b840191505092915050565b60006020820190508181036000830152611cf58184611ca2565b905092915050565b600080fd5b600073ffffffffffffffffffffffffffffffffffffffff82169050919050565b6000611d2d82611d02565b9050919050565b611d3d81611d22565b8114611d4857600080fd5b50565b600081359050611d5a81611d34565b92915050565b6000819050919050565b611d7381611d60565b8114611d7e57600080fd5b50565b600081359050611d9081611d6a565b92915050565b60008060408385031215611dad57611dac611cfd565b5b6000611dbb85828601611d4b565b9250506020611dcc85828601611d81565b9150509250929050565b60008115159050919050565b611deb81611dd6565b82525050565b6000602082019050611e066000830184611de2565b92915050565b611e1581611d60565b82525050565b6000602082019050611e306000830184611e0c565b92915050565b600080600060608486031215611e4f57611e4e611cfd565b5b6000611e5d86828701611d4b565b9350506020611e6e86828701611d4b565b9250506040611e7f86828701611d81565b9150509250925092565b600060208284031215611e9f57611e9e611cfd565b5b6000611ead84828501611d81565b91505092915050565b600060208284031215611ecc57611ecb611cfd565b5b6000611eda84828501611d4b565b91505092915050565b611eec81611d22565b82525050565b6000602082019050611f076000830184611ee3565b92915050565b6000604082019050611f226000830185611e0c565b611f2f6020830184611e0c565b9392505050565b60008060408385031215611f4d57611f4c611cfd565b5b6000611f5b85828601611d81565b9250506020611f6c85828601611d81565b9150509250929050565b60008060408385031215611f8d57611f8c611cfd565b5b6000611f9b85828601611d4b565b9250506020611fac85828601611d4b565b9150509250929050565b7f4e487b7100000000000000000000000000000000000000000000000000000000600052602260045260246000fd5b60006002820490506001821680611ffd57607f821691505b6020821081036120105761200f611fb6565b5b50919050565b7f496e76616c696420616c6c6f77616e6365000000000000000000000000000000600082015250565b600061204c601183611c56565b915061205782612016565b602082019050919050565b6000602082019050818103600083015261207b8161203f565b9050919050565b7f4e487b7100000000000000000000000000000000000000000000000000000000600052601160045260246000fd5b60006120bc82611d60565b91506120c783611d60565b92508282039050818111156120df576120de612082565b5b92915050565b7f496e76616c6964206c697175696469747920706f6f6c20706169722e00000000600082015250565b600061211b601c83611c56565b9150612126826120e5565b602082019050919050565b6000602082019050818103600083015261214a8161210e565b9050919050565b600061215c82611d60565b915061216783611d60565b925082820190508082111561217f5761217e612082565b5b92915050565b7f4e487b7100000000000000000000000000000000000000000000000000000000600052601260045260246000fd5b60006121bf82611d60565b91506121ca83611d60565b9250826121da576121d9612185565b5b828204905092915050565b7f496e73756666696369656e74206c697175696469747920736861726573000000600082015250565b600061221b601d83611c56565b9150612226826121e5565b602082019050919050565b6000602082019050818103600083015261224a8161220e565b9050919050565b60008151905061226081611d6a565b92915050565b60006020828403121561227c5761227b611cfd565b5b600061228a84828501612251565b91505092915050565b600061229e82611d60565b91506122a983611d60565b92508282026122b781611d60565b915082820484148315176122ce576122cd612082565b5b5092915050565b7f496e73756666696369656e74207472616e7366657220616d6f756e7473000000600082015250565b600061230b601d83611c56565b9150612316826122d5565b602082019050919050565b6000602082019050818103600083015261233a816122fe565b9050919050565b60006040820190506123566000830185611ee3565b6123636020830184611e0c565b9392505050565b61237381611dd6565b811461237e57600080fd5b50565b6000815190506123908161236a565b92915050565b6000602082840312156123ac576123ab611cfd565b5b60006123ba84828501612381565b91505092915050565b60006060820190506123d86000830186611ee3565b6123e56020830185611ee3565b6123f26040830184611e0c565b949350505050565b7f5472616e666572206f6620746f6b656e206661696c6564000000000000000000600082015250565b6000612430601783611c56565b915061243b826123fa565b602082019050919050565b6000602082019050818103600083015261245f81612423565b9050919050565b7f4e487b7100000000000000000000000000000000000000000000000000000000600052600160045260246000fd5b6000819050919050565b60006124aa82612495565b91507f800000000000000000000000000000000000000000000000000000000000000082036124dc576124db612082565b5b816000039050919050565b7f496e76616c69642062616c616e63657300000000000000000000000000000000600082015250565b600061251d601083611c56565b9150612528826124e7565b602082019050919050565b6000602082019050818103600083015261254c81612510565b9050919050565b7f4e6f204c697175696469747920536861726573204d696e746564000000000000600082015250565b6000612589601a83611c56565b915061259482612553565b602082019050919050565b600060208201905081810360008301526125b88161257c565b9050919050565b7f43616e6e6f742063616c63756c6174652073717561726520726f6f74206f662060008201527f61206e65676174697665206e756d626572000000000000000000000000000000602082015250565b600061261b603183611c56565b9150612626826125bf565b604082019050919050565b6000602082019050818103600083015261264a8161260e565b9050919050565b600061265c82611d60565b91507fffffffffffffffffffffffffffffffffffffffffffffffffffffffffffffffff820361268e5761268d612082565b5b60018201905091905056fea2646970667358221220d73a43188d7c3a7602e47ae41de00f7dd873400d88b56b461e5c465a9b01790c64736f6c63430008130033a26469706673582212205e093eb8ce270655b088157e36b52d0f76fc055f60e127c40dd0e3017017311164736f6c63430008130033",
  "linkReferences": {},
  "deployedLinkReferences": {}
}