{
  "_format": "hh-sol-artifact-1",
  "contractName": "Uniswap",
  "sourceName": "contracts/Uniswap.sol",
  "abi": [
    {
      "inputs": [],
      "stateMutability": "nonpayable",
      "type": "constructor"
    },
    {
      "anonymous": false,
      "inputs": [
        {
          "indexed": true,
          "internalType": "address",
          "name": "_receiver",
          "type": "address"
        },
        {
          "indexed": true,
          "internalType": "string",
          "name": "token",
          "type": "string"
        },
        {
          "indexed": false,
          "internalType": "uint256",
          "name": "Amount",
          "type": "uint256"
        },
        {
          "indexed": false,
          "internalType": "uint256",
          "name": "timestamp",
          "type": "uint256"
        }
      ],
      "name": "TransactionAdded",
      "type": "event"
    },
    {
      "inputs": [
        {
          "internalType": "string",
          "name": "tokenName",
          "type": "string"
        },
        {
          "internalType": "address",
          "name": "_address",
          "type": "address"
        }
      ],
      "name": "getBalance",
      "outputs": [
        {
          "internalType": "uint256",
          "name": "",
          "type": "uint256"
        }
      ],
      "stateMutability": "view",
      "type": "function"
    },
    {
      "inputs": [],
      "name": "getEthBalance",
      "outputs": [
        {
          "internalType": "uint256",
          "name": "",
          "type": "uint256"
        }
      ],
      "stateMutability": "view",
      "type": "function"
    },
    {
      "inputs": [
        {
          "internalType": "string",
          "name": "tokenName",
          "type": "string"
        }
      ],
      "name": "getName",
      "outputs": [
        {
          "internalType": "string",
          "name": "",
          "type": "string"
        }
      ],
      "stateMutability": "view",
      "type": "function"
    },
    {
      "inputs": [
        {
          "internalType": "string",
          "name": "tokenName",
          "type": "string"
        }
      ],
      "name": "getTokenAddress",
      "outputs": [
        {
          "internalType": "address",
          "name": "",
          "type": "address"
        }
      ],
      "stateMutability": "view",
      "type": "function"
    },
    {
      "inputs": [
        {
          "internalType": "string",
          "name": "tokenName",
          "type": "string"
        }
      ],
      "name": "swapEthtoToken",
      "outputs": [
        {
          "internalType": "uint256",
          "name": "",
          "type": "uint256"
        }
      ],
      "stateMutability": "payable",
      "type": "function"
    },
    {
      "inputs": [
        {
          "internalType": "string",
          "name": "srcTokenName",
          "type": "string"
        },
        {
          "internalType": "string",
          "name": "dstTokenName",
          "type": "string"
        },
        {
          "internalType": "uint256",
          "name": "_amount",
          "type": "uint256"
        }
      ],
      "name": "swapTokenToToken",
      "outputs": [],
      "stateMutability": "nonpayable",
      "type": "function"
    },
    {
      "inputs": [
        {
          "internalType": "string",
          "name": "tokenName",
          "type": "string"
        },
        {
          "internalType": "uint256",
          "name": "_amount",
          "type": "uint256"
        }
      ],
      "name": "swapTokentoEth",
      "outputs": [
        {
          "internalType": "uint256",
          "name": "",
          "type": "uint256"
        }
      ],
      "stateMutability": "payable",
      "type": "function"
    },
    {
      "inputs": [
        {
          "internalType": "string",
          "name": "",
          "type": "string"
        }
      ],
      "name": "tokenInstanceMap",
      "outputs": [
        {
          "internalType": "contract ERC20",
          "name": "",
          "type": "address"
        }
      ],
      "stateMutability": "view",
      "type": "function"
    },
    {
      "inputs": [
        {
          "internalType": "uint256",
          "name": "",
          "type": "uint256"
        }
      ],
      "name": "tokens",
      "outputs": [
        {
          "internalType": "string",
          "name": "",
          "type": "string"
        }
      ],
      "stateMutability": "view",
      "type": "function"
    },
    {
      "inputs": [
        {
          "internalType": "uint256",
          "name": "",
          "type": "uint256"
        }
      ],
      "name": "transaction",
      "outputs": [
        {
          "internalType": "address",
          "name": "_receiver",
          "type": "address"
        },
        {
          "internalType": "string",
          "name": "token",
          "type": "string"
        },
        {
          "internalType": "uint256",
          "name": "Amount",
          "type": "uint256"
        },
        {
          "internalType": "uint256",
          "name": "timestamp",
          "type": "uint256"
        }
      ],
      "stateMutability": "view",
      "type": "function"
    },
    {
      "inputs": [],
      "name": "transactionCount",
      "outputs": [
        {
          "internalType": "uint256",
          "name": "",
          "type": "uint256"
        }
      ],
      "stateMutability": "view",
      "type": "function"
    }
  ],
  "bytecode": "0x608060405260405180606001604052806040518060400160405280600581526020017f436f696e4100000000000000000000000000000000000000000000000000000081525081526020016040518060400160405280600581526020017f436f696e4200000000000000000000000000000000000000000000000000000081525081526020016040518060400160405280600581526020017f436f696e430000000000000000000000000000000000000000000000000000008152508152506000906003620000d092919062000215565b50655af3107a4000600255348015620000e857600080fd5b5060005b6000805490508110156200020e57600080828154811062000112576200011162000310565b5b906000526020600020016000838154811062000133576200013262000310565b5b906000526020600020016040516200014b9062000275565b6200015892919062000459565b604051809103906000f08015801562000175573d6000803e3d6000fd5b5090508060016000848154811062000192576200019162000310565b5b90600052602060002001604051620001ab91906200052e565b908152602001604051809103902060006101000a81548173ffffffffffffffffffffffffffffffffffffffff021916908373ffffffffffffffffffffffffffffffffffffffff160217905550508080620002059062000580565b915050620000ec565b50620008ab565b82805482825590600052602060002090810192821562000262579160200282015b8281111562000261578251829081620002509190620007c4565b509160200191906001019062000236565b5b50905062000271919062000283565b5090565b611a9e80620023a683390190565b5b80821115620002a757600081816200029d9190620002ab565b5060010162000284565b5090565b508054620002b9906200036e565b6000825580601f10620002cd5750620002ee565b601f016020900490600052602060002090810190620002ed9190620002f1565b5b50565b5b808211156200030c576000816000905550600101620002f2565b5090565b7f4e487b7100000000000000000000000000000000000000000000000000000000600052603260045260246000fd5b7f4e487b7100000000000000000000000000000000000000000000000000000000600052602260045260246000fd5b600060028204905060018216806200038757607f821691505b6020821081036200039d576200039c6200033f565b5b50919050565b600082825260208201905092915050565b60008190508160005260206000209050919050565b60008154620003d8816200036e565b620003e48186620003a3565b94506001821660008114620004025760018114620004195762000450565b60ff19831686528115156020028601935062000450565b6200042485620003b4565b60005b83811015620004485781548189015260018201915060208101905062000427565b808801955050505b50505092915050565b60006040820190508181036000830152620004758185620003c9565b905081810360208301526200048b8184620003c9565b90509392505050565b600081905092915050565b60008154620004ae816200036e565b620004ba818662000494565b94506001821660008114620004d85760018114620004ee5762000525565b60ff198316865281151582028601935062000525565b620004f985620003b4565b60005b838110156200051d57815481890152600182019150602081019050620004fc565b838801955050505b50505092915050565b60006200053c82846200049f565b915081905092915050565b7f4e487b7100000000000000000000000000000000000000000000000000000000600052601160045260246000fd5b6000819050919050565b60006200058d8262000576565b91507fffffffffffffffffffffffffffffffffffffffffffffffffffffffffffffffff8203620005c257620005c162000547565b5b600182019050919050565b600081519050919050565b7f4e487b7100000000000000000000000000000000000000000000000000000000600052604160045260246000fd5b60006020601f8301049050919050565b600082821b905092915050565b600060088302620006567fffffffffffffffffffffffffffffffffffffffffffffffffffffffffffffffff8262000617565b62000662868362000617565b95508019841693508086168417925050509392505050565b6000819050919050565b6000620006a56200069f620006998462000576565b6200067a565b62000576565b9050919050565b6000819050919050565b620006c18362000684565b620006d9620006d082620006ac565b84845462000624565b825550505050565b600090565b620006f0620006e1565b620006fd818484620006b6565b505050565b5b81811015620007255762000719600082620006e6565b60018101905062000703565b5050565b601f82111562000774576200073e81620003b4565b620007498462000607565b8101602085101562000759578190505b62000771620007688562000607565b83018262000702565b50505b505050565b600082821c905092915050565b6000620007996000198460080262000779565b1980831691505092915050565b6000620007b4838362000786565b9150826002028217905092915050565b620007cf82620005cd565b67ffffffffffffffff811115620007eb57620007ea620005d8565b5b620007f782546200036e565b6200080482828562000729565b600060209050601f8311600181146200083c576000841562000827578287015190505b620008338582620007a6565b865550620008a3565b601f1984166200084c86620003b4565b60005b8281101562000876578489015182556001820191506020850194506020810190506200084f565b8683101562000896578489015162000892601f89168262000786565b8355505b6001600288020188555050505b505050505050565b611aeb80620008bb6000396000f3fe60806040526004361061009c5760003560e01c806370ed0ada1161006457806370ed0ada146101bb57806389f4b317146101e6578063a93325ed14610223578063b77bf60014610260578063bf015aae1461028b578063c4091236146102b45761009c565b806337c53ad5146100a157806346bd0841146100d15780634f64b2be1461011157806351a129b01461014e5780636932cf811461017e575b600080fd5b6100bb60048036038101906100b6919061104e565b6102f1565b6040516100c891906110b9565b60405180910390f35b3480156100dd57600080fd5b506100f860048036038101906100f391906110d4565b6105d1565b60405161010894939291906111c1565b60405180910390f35b34801561011d57600080fd5b50610138600480360381019061013391906110d4565b6106b9565b604051610145919061120d565b60405180910390f35b6101686004803603810190610163919061122f565b610765565b60405161017591906110b9565b60405180910390f35b34801561018a57600080fd5b506101a560048036038101906101a0919061122f565b6109b8565b6040516101b2919061120d565b60405180910390f35b3480156101c757600080fd5b506101d0610a73565b6040516101dd91906110b9565b60405180910390f35b3480156101f257600080fd5b5061020d600480360381019061020891906112a4565b610a7b565b60405161021a91906110b9565b60405180910390f35b34801561022f57600080fd5b5061024a6004803603810190610245919061122f565b610b3d565b604051610257919061135f565b60405180910390f35b34801561026c57600080fd5b50610275610b86565b60405161028291906110b9565b60405180910390f35b34801561029757600080fd5b506102b260048036038101906102ad919061137a565b610b8c565b005b3480156102c057600080fd5b506102db60048036038101906102d6919061122f565b610e76565b6040516102e89190611405565b60405180910390f35b600080670de0b6b3a764000083610308919061147e565b905060006002548261031a91906114af565b90508047101561035f576040517f08c379a00000000000000000000000000000000000000000000000000000000081526004016103569061153d565b60405180910390fd5b3373ffffffffffffffffffffffffffffffffffffffff166108fc829081150290604051600060405180830381858888f193505050501580156103a5573d6000803e3d6000fd5b506001856040516103b69190611599565b908152602001604051809103902060009054906101000a900473ffffffffffffffffffffffffffffffffffffffff1673ffffffffffffffffffffffffffffffffffffffff166323b872dd3330876040518463ffffffff1660e01b8152600401610421939291906115b0565b6020604051808303816000875af1158015610440573d6000803e3d6000fd5b505050506040513d601f19601f82011682018060405250810190610464919061161f565b61046d57600080fd5b600060405180608001604052803373ffffffffffffffffffffffffffffffffffffffff168152602001878152602001838152602001428152509050600481908060018154018082558091505060019003906000526020600020906004020160009091909190915060008201518160000160006101000a81548173ffffffffffffffffffffffffffffffffffffffff021916908373ffffffffffffffffffffffffffffffffffffffff1602179055506020820151816001019081610530919061184e565b50604082015181600201556060820151816003015550506003600081548092919061055a90611920565b91905055508560405161056d9190611599565b60405180910390203373ffffffffffffffffffffffffffffffffffffffff167f32d0594b1ed822f5da40eb45023f681552ea99f57c7d21292e66bc13fcb6cc9c84426040516105bd929190611968565b60405180910390a381935050505092915050565b600481815481106105e157600080fd5b90600052602060002090600402016000915090508060000160009054906101000a900473ffffffffffffffffffffffffffffffffffffffff169080600101805461062a9061167b565b80601f01602080910402602001604051908101604052809291908181526020018280546106569061167b565b80156106a35780601f10610678576101008083540402835291602001916106a3565b820191906000526020600020905b81548152906001019060200180831161068657829003601f168201915b5050505050908060020154908060030154905084565b600081815481106106c957600080fd5b9060005260206000200160009150905080546106e49061167b565b80601f01602080910402602001604051908101604052809291908181526020018280546107109061167b565b801561075d5780601f106107325761010080835404028352916020019161075d565b820191906000526020600020905b81548152906001019060200180831161074057829003601f168201915b505050505081565b6000803490506000670de0b6b3a764000060025483610784919061147e565b61078e91906114af565b90506001846040516107a09190611599565b908152602001604051809103902060009054906101000a900473ffffffffffffffffffffffffffffffffffffffff1673ffffffffffffffffffffffffffffffffffffffff1663a9059cbb33836040518363ffffffff1660e01b8152600401610809929190611991565b6020604051808303816000875af1158015610828573d6000803e3d6000fd5b505050506040513d601f19601f8201168201806040525081019061084c919061161f565b61085557600080fd5b600060405180608001604052803373ffffffffffffffffffffffffffffffffffffffff168152602001868152602001838152602001428152509050600481908060018154018082558091505060019003906000526020600020906004020160009091909190915060008201518160000160006101000a81548173ffffffffffffffffffffffffffffffffffffffff021916908373ffffffffffffffffffffffffffffffffffffffff1602179055506020820151816001019081610918919061184e565b50604082015181600201556060820151816003015550506003600081548092919061094290611920565b9190505550846040516109559190611599565b60405180910390203373ffffffffffffffffffffffffffffffffffffffff167f32d0594b1ed822f5da40eb45023f681552ea99f57c7d21292e66bc13fcb6cc9c84426040516109a5929190611968565b60405180910390a3819350505050919050565b60606001826040516109ca9190611599565b908152602001604051809103902060009054906101000a900473ffffffffffffffffffffffffffffffffffffffff1673ffffffffffffffffffffffffffffffffffffffff166306fdde036040518163ffffffff1660e01b8152600401600060405180830381865afa158015610a43573d6000803e3d6000fd5b505050506040513d6000823e3d601f19601f82011682018060405250810190610a6c9190611a2a565b9050919050565b600047905090565b6000600183604051610a8d9190611599565b908152602001604051809103902060009054906101000a900473ffffffffffffffffffffffffffffffffffffffff1673ffffffffffffffffffffffffffffffffffffffff166370a08231836040518263ffffffff1660e01b8152600401610af49190611405565b602060405180830381865afa158015610b11573d6000803e3d6000fd5b505050506040513d601f19601f82011682018060405250810190610b359190611a88565b905092915050565b6001818051602081018201805184825260208301602085012081835280955050505050506000915054906101000a900473ffffffffffffffffffffffffffffffffffffffff1681565b60035481565b600183604051610b9c9190611599565b908152602001604051809103902060009054906101000a900473ffffffffffffffffffffffffffffffffffffffff1673ffffffffffffffffffffffffffffffffffffffff166323b872dd3330846040518463ffffffff1660e01b8152600401610c07939291906115b0565b6020604051808303816000875af1158015610c26573d6000803e3d6000fd5b505050506040513d601f19601f82011682018060405250810190610c4a919061161f565b610c5357600080fd5b600060405180608001604052803373ffffffffffffffffffffffffffffffffffffffff168152602001848152602001838152602001428152509050600481908060018154018082558091505060019003906000526020600020906004020160009091909190915060008201518160000160006101000a81548173ffffffffffffffffffffffffffffffffffffffff021916908373ffffffffffffffffffffffffffffffffffffffff1602179055506020820151816001019081610d16919061184e565b506040820151816002015560608201518160030155505060036000815480929190610d4090611920565b919050555082604051610d539190611599565b60405180910390203373ffffffffffffffffffffffffffffffffffffffff167f32d0594b1ed822f5da40eb45023f681552ea99f57c7d21292e66bc13fcb6cc9c8442604051610da3929190611968565b60405180910390a3600183604051610dbb9190611599565b908152602001604051809103902060009054906101000a900473ffffffffffffffffffffffffffffffffffffffff1673ffffffffffffffffffffffffffffffffffffffff1663a9059cbb33846040518363ffffffff1660e01b8152600401610e24929190611991565b6020604051808303816000875af1158015610e43573d6000803e3d6000fd5b505050506040513d601f19601f82011682018060405250810190610e67919061161f565b610e7057600080fd5b50505050565b6000600182604051610e889190611599565b908152602001604051809103902060009054906101000a900473ffffffffffffffffffffffffffffffffffffffff169050919050565b6000604051905090565b600080fd5b600080fd5b600080fd5b600080fd5b6000601f19601f8301169050919050565b7f4e487b7100000000000000000000000000000000000000000000000000000000600052604160045260246000fd5b610f2582610edc565b810181811067ffffffffffffffff82111715610f4457610f43610eed565b5b80604052505050565b6000610f57610ebe565b9050610f638282610f1c565b919050565b600067ffffffffffffffff821115610f8357610f82610eed565b5b610f8c82610edc565b9050602081019050919050565b82818337600083830152505050565b6000610fbb610fb684610f68565b610f4d565b905082815260208101848484011115610fd757610fd6610ed7565b5b610fe2848285610f99565b509392505050565b600082601f830112610fff57610ffe610ed2565b5b813561100f848260208601610fa8565b91505092915050565b6000819050919050565b61102b81611018565b811461103657600080fd5b50565b60008135905061104881611022565b92915050565b6000806040838503121561106557611064610ec8565b5b600083013567ffffffffffffffff81111561108357611082610ecd565b5b61108f85828601610fea565b92505060206110a085828601611039565b9150509250929050565b6110b381611018565b82525050565b60006020820190506110ce60008301846110aa565b92915050565b6000602082840312156110ea576110e9610ec8565b5b60006110f884828501611039565b91505092915050565b600073ffffffffffffffffffffffffffffffffffffffff82169050919050565b600061112c82611101565b9050919050565b61113c81611121565b82525050565b600081519050919050565b600082825260208201905092915050565b60005b8381101561117c578082015181840152602081019050611161565b60008484015250505050565b600061119382611142565b61119d818561114d565b93506111ad81856020860161115e565b6111b681610edc565b840191505092915050565b60006080820190506111d66000830187611133565b81810360208301526111e88186611188565b90506111f760408301856110aa565b61120460608301846110aa565b95945050505050565b600060208201905081810360008301526112278184611188565b905092915050565b60006020828403121561124557611244610ec8565b5b600082013567ffffffffffffffff81111561126357611262610ecd565b5b61126f84828501610fea565b91505092915050565b61128181611121565b811461128c57600080fd5b50565b60008135905061129e81611278565b92915050565b600080604083850312156112bb576112ba610ec8565b5b600083013567ffffffffffffffff8111156112d9576112d8610ecd565b5b6112e585828601610fea565b92505060206112f68582860161128f565b9150509250929050565b6000819050919050565b600061132561132061131b84611101565b611300565b611101565b9050919050565b60006113378261130a565b9050919050565b60006113498261132c565b9050919050565b6113598161133e565b82525050565b60006020820190506113746000830184611350565b92915050565b60008060006060848603121561139357611392610ec8565b5b600084013567ffffffffffffffff8111156113b1576113b0610ecd565b5b6113bd86828701610fea565b935050602084013567ffffffffffffffff8111156113de576113dd610ecd565b5b6113ea86828701610fea565b92505060406113fb86828701611039565b9150509250925092565b600060208201905061141a6000830184611133565b92915050565b7f4e487b7100000000000000000000000000000000000000000000000000000000600052601260045260246000fd5b7f4e487b7100000000000000000000000000000000000000000000000000000000600052601160045260246000fd5b600061148982611018565b915061149483611018565b9250826114a4576114a3611420565b5b828204905092915050565b60006114ba82611018565b91506114c583611018565b92508282026114d381611018565b915082820484148315176114ea576114e961144f565b5b5092915050565b7f4465782072756e6e696e67206c6f77206f6e2062616c616e63652e0000000000600082015250565b6000611527601b8361114d565b9150611532826114f1565b602082019050919050565b600060208201905081810360008301526115568161151a565b9050919050565b600081905092915050565b600061157382611142565b61157d818561155d565b935061158d81856020860161115e565b80840191505092915050565b60006115a58284611568565b915081905092915050565b60006060820190506115c56000830186611133565b6115d26020830185611133565b6115df60408301846110aa565b949350505050565b60008115159050919050565b6115fc816115e7565b811461160757600080fd5b50565b600081519050611619816115f3565b92915050565b60006020828403121561163557611634610ec8565b5b60006116438482850161160a565b91505092915050565b7f4e487b7100000000000000000000000000000000000000000000000000000000600052602260045260246000fd5b6000600282049050600182168061169357607f821691505b6020821081036116a6576116a561164c565b5b50919050565b60008190508160005260206000209050919050565b60006020601f8301049050919050565b600082821b905092915050565b60006008830261170e7fffffffffffffffffffffffffffffffffffffffffffffffffffffffffffffffff826116d1565b61171886836116d1565b95508019841693508086168417925050509392505050565b600061174b61174661174184611018565b611300565b611018565b9050919050565b6000819050919050565b61176583611730565b61177961177182611752565b8484546116de565b825550505050565b600090565b61178e611781565b61179981848461175c565b505050565b5b818110156117bd576117b2600082611786565b60018101905061179f565b5050565b601f821115611802576117d3816116ac565b6117dc846116c1565b810160208510156117eb578190505b6117ff6117f7856116c1565b83018261179e565b50505b505050565b600082821c905092915050565b600061182560001984600802611807565b1980831691505092915050565b600061183e8383611814565b9150826002028217905092915050565b61185782611142565b67ffffffffffffffff8111156118705761186f610eed565b5b61187a825461167b565b6118858282856117c1565b600060209050601f8311600181146118b857600084156118a6578287015190505b6118b08582611832565b865550611918565b601f1984166118c6866116ac565b60005b828110156118ee578489015182556001820191506020850194506020810190506118c9565b8683101561190b5784890151611907601f891682611814565b8355505b6001600288020188555050505b505050505050565b600061192b82611018565b91507fffffffffffffffffffffffffffffffffffffffffffffffffffffffffffffffff820361195d5761195c61144f565b5b600182019050919050565b600060408201905061197d60008301856110aa565b61198a60208301846110aa565b9392505050565b60006040820190506119a66000830185611133565b6119b360208301846110aa565b9392505050565b60006119cd6119c884610f68565b610f4d565b9050828152602081018484840111156119e9576119e8610ed7565b5b6119f484828561115e565b509392505050565b600082601f830112611a1157611a10610ed2565b5b8151611a218482602086016119ba565b91505092915050565b600060208284031215611a4057611a3f610ec8565b5b600082015167ffffffffffffffff811115611a5e57611a5d610ecd565b5b611a6a848285016119fc565b91505092915050565b600081519050611a8281611022565b92915050565b600060208284031215611a9e57611a9d610ec8565b5b6000611aac84828501611a73565b9150509291505056fea2646970667358221220990fb4df258303d243a7545a968308fcac22c600e94618b92cbeca18268f008b64736f6c6343000813003360806040523480156200001157600080fd5b5060405162001a9e38038062001a9e83398181016040528101906200003791906200038d565b818181600390816200004a91906200065d565b5080600490816200005c91906200065d565b5050506200007b3369152d02c7e14af68000006200008360201b60201c565b50506200085f565b600073ffffffffffffffffffffffffffffffffffffffff168273ffffffffffffffffffffffffffffffffffffffff1603620000f5576040517f08c379a0000000000000000000000000000000000000000000000000000000008152600401620000ec90620007a5565b60405180910390fd5b6200010960008383620001f060201b60201c565b80600260008282546200011d9190620007f6565b92505081905550806000808473ffffffffffffffffffffffffffffffffffffffff1673ffffffffffffffffffffffffffffffffffffffff168152602001908152602001600020600082825401925050819055508173ffffffffffffffffffffffffffffffffffffffff16600073ffffffffffffffffffffffffffffffffffffffff167fddf252ad1be2c89b69c2b068fc378daa952ba7f163c4a11628f55a4df523b3ef83604051620001d0919062000842565b60405180910390a3620001ec60008383620001f560201b60201c565b5050565b505050565b505050565b6000604051905090565b600080fd5b600080fd5b600080fd5b600080fd5b6000601f19601f8301169050919050565b7f4e487b7100000000000000000000000000000000000000000000000000000000600052604160045260246000fd5b620002638262000218565b810181811067ffffffffffffffff8211171562000285576200028462000229565b5b80604052505050565b60006200029a620001fa565b9050620002a8828262000258565b919050565b600067ffffffffffffffff821115620002cb57620002ca62000229565b5b620002d68262000218565b9050602081019050919050565b60005b8381101562000303578082015181840152602081019050620002e6565b60008484015250505050565b6000620003266200032084620002ad565b6200028e565b90508281526020810184848401111562000345576200034462000213565b5b62000352848285620002e3565b509392505050565b600082601f8301126200037257620003716200020e565b5b8151620003848482602086016200030f565b91505092915050565b60008060408385031215620003a757620003a662000204565b5b600083015167ffffffffffffffff811115620003c857620003c762000209565b5b620003d6858286016200035a565b925050602083015167ffffffffffffffff811115620003fa57620003f962000209565b5b62000408858286016200035a565b9150509250929050565b600081519050919050565b7f4e487b7100000000000000000000000000000000000000000000000000000000600052602260045260246000fd5b600060028204905060018216806200046557607f821691505b6020821081036200047b576200047a6200041d565b5b50919050565b60008190508160005260206000209050919050565b60006020601f8301049050919050565b600082821b905092915050565b600060088302620004e57fffffffffffffffffffffffffffffffffffffffffffffffffffffffffffffffff82620004a6565b620004f18683620004a6565b95508019841693508086168417925050509392505050565b6000819050919050565b6000819050919050565b60006200053e62000538620005328462000509565b62000513565b62000509565b9050919050565b6000819050919050565b6200055a836200051d565b62000572620005698262000545565b848454620004b3565b825550505050565b600090565b620005896200057a565b620005968184846200054f565b505050565b5b81811015620005be57620005b26000826200057f565b6001810190506200059c565b5050565b601f8211156200060d57620005d78162000481565b620005e28462000496565b81016020851015620005f2578190505b6200060a620006018562000496565b8301826200059b565b50505b505050565b600082821c905092915050565b6000620006326000198460080262000612565b1980831691505092915050565b60006200064d83836200061f565b9150826002028217905092915050565b620006688262000412565b67ffffffffffffffff81111562000684576200068362000229565b5b6200069082546200044c565b6200069d828285620005c2565b600060209050601f831160018114620006d55760008415620006c0578287015190505b620006cc85826200063f565b8655506200073c565b601f198416620006e58662000481565b60005b828110156200070f57848901518255600182019150602085019450602081019050620006e8565b868310156200072f57848901516200072b601f8916826200061f565b8355505b6001600288020188555050505b505050505050565b600082825260208201905092915050565b7f45524332303a206d696e7420746f20746865207a65726f206164647265737300600082015250565b60006200078d601f8362000744565b91506200079a8262000755565b602082019050919050565b60006020820190508181036000830152620007c0816200077e565b9050919050565b7f4e487b7100000000000000000000000000000000000000000000000000000000600052601160045260246000fd5b6000620008038262000509565b9150620008108362000509565b92508282019050808211156200082b576200082a620007c7565b5b92915050565b6200083c8162000509565b82525050565b600060208201905062000859600083018462000831565b92915050565b61122f806200086f6000396000f3fe608060405234801561001057600080fd5b50600436106100a95760003560e01c80633950935111610071578063395093511461016857806370a082311461019857806395d89b41146101c8578063a457c2d7146101e6578063a9059cbb14610216578063dd62ed3e14610246576100a9565b806306fdde03146100ae578063095ea7b3146100cc57806318160ddd146100fc57806323b872dd1461011a578063313ce5671461014a575b600080fd5b6100b6610276565b6040516100c39190610b0c565b60405180910390f35b6100e660048036038101906100e19190610bc7565b610308565b6040516100f39190610c22565b60405180910390f35b61010461032b565b6040516101119190610c4c565b60405180910390f35b610134600480360381019061012f9190610c67565b610335565b6040516101419190610c22565b60405180910390f35b610152610364565b60405161015f9190610cd6565b60405180910390f35b610182600480360381019061017d9190610bc7565b61036d565b60405161018f9190610c22565b60405180910390f35b6101b260048036038101906101ad9190610cf1565b6103a4565b6040516101bf9190610c4c565b60405180910390f35b6101d06103ec565b6040516101dd9190610b0c565b60405180910390f35b61020060048036038101906101fb9190610bc7565b61047e565b60405161020d9190610c22565b60405180910390f35b610230600480360381019061022b9190610bc7565b6104f5565b60405161023d9190610c22565b60405180910390f35b610260600480360381019061025b9190610d1e565b610518565b60405161026d9190610c4c565b60405180910390f35b60606003805461028590610d8d565b80601f01602080910402602001604051908101604052809291908181526020018280546102b190610d8d565b80156102fe5780601f106102d3576101008083540402835291602001916102fe565b820191906000526020600020905b8154815290600101906020018083116102e157829003601f168201915b5050505050905090565b60008061031361059f565b90506103208185856105a7565b600191505092915050565b6000600254905090565b60008061034061059f565b905061034d858285610770565b6103588585856107fc565b60019150509392505050565b60006012905090565b60008061037861059f565b905061039981858561038a8589610518565b6103949190610ded565b6105a7565b600191505092915050565b60008060008373ffffffffffffffffffffffffffffffffffffffff1673ffffffffffffffffffffffffffffffffffffffff168152602001908152602001600020549050919050565b6060600480546103fb90610d8d565b80601f016020809104026020016040519081016040528092919081815260200182805461042790610d8d565b80156104745780601f1061044957610100808354040283529160200191610474565b820191906000526020600020905b81548152906001019060200180831161045757829003601f168201915b5050505050905090565b60008061048961059f565b905060006104978286610518565b9050838110156104dc576040517f08c379a00000000000000000000000000000000000000000000000000000000081526004016104d390610e93565b60405180910390fd5b6104e982868684036105a7565b60019250505092915050565b60008061050061059f565b905061050d8185856107fc565b600191505092915050565b6000600160008473ffffffffffffffffffffffffffffffffffffffff1673ffffffffffffffffffffffffffffffffffffffff16815260200190815260200160002060008373ffffffffffffffffffffffffffffffffffffffff1673ffffffffffffffffffffffffffffffffffffffff16815260200190815260200160002054905092915050565b600033905090565b600073ffffffffffffffffffffffffffffffffffffffff168373ffffffffffffffffffffffffffffffffffffffff1603610616576040517f08c379a000000000000000000000000000000000000000000000000000000000815260040161060d90610f25565b60405180910390fd5b600073ffffffffffffffffffffffffffffffffffffffff168273ffffffffffffffffffffffffffffffffffffffff1603610685576040517f08c379a000000000000000000000000000000000000000000000000000000000815260040161067c90610fb7565b60405180910390fd5b80600160008573ffffffffffffffffffffffffffffffffffffffff1673ffffffffffffffffffffffffffffffffffffffff16815260200190815260200160002060008473ffffffffffffffffffffffffffffffffffffffff1673ffffffffffffffffffffffffffffffffffffffff168152602001908152602001600020819055508173ffffffffffffffffffffffffffffffffffffffff168373ffffffffffffffffffffffffffffffffffffffff167f8c5be1e5ebec7d5bd14f71427d1e84f3dd0314c0f7b2291e5b200ac8c7c3b925836040516107639190610c4c565b60405180910390a3505050565b600061077c8484610518565b90507fffffffffffffffffffffffffffffffffffffffffffffffffffffffffffffffff81146107f657818110156107e8576040517f08c379a00000000000000000000000000000000000000000000000000000000081526004016107df90611023565b60405180910390fd5b6107f584848484036105a7565b5b50505050565b600073ffffffffffffffffffffffffffffffffffffffff168373ffffffffffffffffffffffffffffffffffffffff160361086b576040517f08c379a0000000000000000000000000000000000000000000000000000000008152600401610862906110b5565b60405180910390fd5b600073ffffffffffffffffffffffffffffffffffffffff168273ffffffffffffffffffffffffffffffffffffffff16036108da576040517f08c379a00000000000000000000000000000000000000000000000000000000081526004016108d190611147565b60405180910390fd5b6108e5838383610a72565b60008060008573ffffffffffffffffffffffffffffffffffffffff1673ffffffffffffffffffffffffffffffffffffffff1681526020019081526020016000205490508181101561096b576040517f08c379a0000000000000000000000000000000000000000000000000000000008152600401610962906111d9565b60405180910390fd5b8181036000808673ffffffffffffffffffffffffffffffffffffffff1673ffffffffffffffffffffffffffffffffffffffff16815260200190815260200160002081905550816000808573ffffffffffffffffffffffffffffffffffffffff1673ffffffffffffffffffffffffffffffffffffffff168152602001908152602001600020600082825401925050819055508273ffffffffffffffffffffffffffffffffffffffff168473ffffffffffffffffffffffffffffffffffffffff167fddf252ad1be2c89b69c2b068fc378daa952ba7f163c4a11628f55a4df523b3ef84604051610a599190610c4c565b60405180910390a3610a6c848484610a77565b50505050565b505050565b505050565b600081519050919050565b600082825260208201905092915050565b60005b83811015610ab6578082015181840152602081019050610a9b565b60008484015250505050565b6000601f19601f8301169050919050565b6000610ade82610a7c565b610ae88185610a87565b9350610af8818560208601610a98565b610b0181610ac2565b840191505092915050565b60006020820190508181036000830152610b268184610ad3565b905092915050565b600080fd5b600073ffffffffffffffffffffffffffffffffffffffff82169050919050565b6000610b5e82610b33565b9050919050565b610b6e81610b53565b8114610b7957600080fd5b50565b600081359050610b8b81610b65565b92915050565b6000819050919050565b610ba481610b91565b8114610baf57600080fd5b50565b600081359050610bc181610b9b565b92915050565b60008060408385031215610bde57610bdd610b2e565b5b6000610bec85828601610b7c565b9250506020610bfd85828601610bb2565b9150509250929050565b60008115159050919050565b610c1c81610c07565b82525050565b6000602082019050610c376000830184610c13565b92915050565b610c4681610b91565b82525050565b6000602082019050610c616000830184610c3d565b92915050565b600080600060608486031215610c8057610c7f610b2e565b5b6000610c8e86828701610b7c565b9350506020610c9f86828701610b7c565b9250506040610cb086828701610bb2565b9150509250925092565b600060ff82169050919050565b610cd081610cba565b82525050565b6000602082019050610ceb6000830184610cc7565b92915050565b600060208284031215610d0757610d06610b2e565b5b6000610d1584828501610b7c565b91505092915050565b60008060408385031215610d3557610d34610b2e565b5b6000610d4385828601610b7c565b9250506020610d5485828601610b7c565b9150509250929050565b7f4e487b7100000000000000000000000000000000000000000000000000000000600052602260045260246000fd5b60006002820490506001821680610da557607f821691505b602082108103610db857610db7610d5e565b5b50919050565b7f4e487b7100000000000000000000000000000000000000000000000000000000600052601160045260246000fd5b6000610df882610b91565b9150610e0383610b91565b9250828201905080821115610e1b57610e1a610dbe565b5b92915050565b7f45524332303a2064656372656173656420616c6c6f77616e63652062656c6f7760008201527f207a65726f000000000000000000000000000000000000000000000000000000602082015250565b6000610e7d602583610a87565b9150610e8882610e21565b604082019050919050565b60006020820190508181036000830152610eac81610e70565b9050919050565b7f45524332303a20617070726f76652066726f6d20746865207a65726f2061646460008201527f7265737300000000000000000000000000000000000000000000000000000000602082015250565b6000610f0f602483610a87565b9150610f1a82610eb3565b604082019050919050565b60006020820190508181036000830152610f3e81610f02565b9050919050565b7f45524332303a20617070726f766520746f20746865207a65726f20616464726560008201527f7373000000000000000000000000000000000000000000000000000000000000602082015250565b6000610fa1602283610a87565b9150610fac82610f45565b604082019050919050565b60006020820190508181036000830152610fd081610f94565b9050919050565b7f45524332303a20696e73756666696369656e7420616c6c6f77616e6365000000600082015250565b600061100d601d83610a87565b915061101882610fd7565b602082019050919050565b6000602082019050818103600083015261103c81611000565b9050919050565b7f45524332303a207472616e736665722066726f6d20746865207a65726f20616460008201527f6472657373000000000000000000000000000000000000000000000000000000602082015250565b600061109f602583610a87565b91506110aa82611043565b604082019050919050565b600060208201905081810360008301526110ce81611092565b9050919050565b7f45524332303a207472616e7366657220746f20746865207a65726f206164647260008201527f6573730000000000000000000000000000000000000000000000000000000000602082015250565b6000611131602383610a87565b915061113c826110d5565b604082019050919050565b6000602082019050818103600083015261116081611124565b9050919050565b7f45524332303a207472616e7366657220616d6f756e742065786365656473206260008201527f616c616e63650000000000000000000000000000000000000000000000000000602082015250565b60006111c3602683610a87565b91506111ce82611167565b604082019050919050565b600060208201905081810360008301526111f2816111b6565b905091905056fea26469706673582212202a082fba0fe9d4ec708bd2a11a7f4f86a15f4da66500ab30df1b1609810966db64736f6c63430008130033",
  "linkReferences": {},
  "deployedLinkReferences": {}
}