{
  "_format": "hh-sol-artifact-1",
  "contractName": "ERC20Token",
  "sourceName": "contracts/ERC20Token.sol",
  "abi": [
    {
      "inputs": [
        {
          "internalType": "uint256",
          "name": "initialSupply",
          "type": "uint256"
        },
        {
          "internalType": "string",
          "name": "tokenName",
          "type": "string"
        },
        {
          "internalType": "string",
          "name": "tokenSymbol",
          "type": "string"
        }
      ],
      "stateMutability": "nonpayable",
      "type": "constructor"
    },
    {
      "anonymous": false,
      "inputs": [
        {
          "indexed": true,
          "internalType": "address",
          "name": "_owner",
          "type": "address"
        },
        {
          "indexed": true,
          "internalType": "address",
          "name": "_spender",
          "type": "address"
        },
        {
          "indexed": false,
          "internalType": "uint256",
          "name": "_value",
          "type": "uint256"
        }
      ],
      "name": "Approval",
      "type": "event"
    },
    {
      "anonymous": false,
      "inputs": [
        {
          "indexed": true,
          "internalType": "address",
          "name": "from",
          "type": "address"
        },
        {
          "indexed": false,
          "internalType": "uint256",
          "name": "value",
          "type": "uint256"
        }
      ],
      "name": "Burn",
      "type": "event"
    },
    {
      "anonymous": false,
      "inputs": [
        {
          "indexed": true,
          "internalType": "address",
          "name": "from",
          "type": "address"
        },
        {
          "indexed": false,
          "internalType": "uint256",
          "name": "value",
          "type": "uint256"
        }
      ],
      "name": "Mint",
      "type": "event"
    },
    {
      "anonymous": false,
      "inputs": [
        {
          "indexed": true,
          "internalType": "address",
          "name": "from",
          "type": "address"
        },
        {
          "indexed": true,
          "internalType": "address",
          "name": "to",
          "type": "address"
        },
        {
          "indexed": false,
          "internalType": "uint256",
          "name": "value",
          "type": "uint256"
        }
      ],
      "name": "Transfer",
      "type": "event"
    },
    {
      "inputs": [
        {
          "internalType": "address",
          "name": "",
          "type": "address"
        },
        {
          "internalType": "address",
          "name": "",
          "type": "address"
        }
      ],
      "name": "allowance",
      "outputs": [
        {
          "internalType": "uint256",
          "name": "",
          "type": "uint256"
        }
      ],
      "stateMutability": "view",
      "type": "function"
    },
    {
      "inputs": [
        {
          "internalType": "address",
          "name": "_spender",
          "type": "address"
        },
        {
          "internalType": "uint256",
          "name": "_value",
          "type": "uint256"
        }
      ],
      "name": "approve",
      "outputs": [
        {
          "internalType": "bool",
          "name": "success",
          "type": "bool"
        }
      ],
      "stateMutability": "nonpayable",
      "type": "function"
    },
    {
      "inputs": [
        {
          "internalType": "address",
          "name": "",
          "type": "address"
        }
      ],
      "name": "balanceOf",
      "outputs": [
        {
          "internalType": "uint256",
          "name": "",
          "type": "uint256"
        }
      ],
      "stateMutability": "view",
      "type": "function"
    },
    {
      "inputs": [
        {
          "internalType": "uint256",
          "name": "_value",
          "type": "uint256"
        }
      ],
      "name": "burn",
      "outputs": [
        {
          "internalType": "bool",
          "name": "success",
          "type": "bool"
        }
      ],
      "stateMutability": "nonpayable",
      "type": "function"
    },
    {
      "inputs": [],
      "name": "name",
      "outputs": [
        {
          "internalType": "string",
          "name": "",
          "type": "string"
        }
      ],
      "stateMutability": "view",
      "type": "function"
    },
    {
      "inputs": [],
      "name": "symbol",
      "outputs": [
        {
          "internalType": "string",
          "name": "",
          "type": "string"
        }
      ],
      "stateMutability": "view",
      "type": "function"
    },
    {
      "inputs": [],
      "name": "totalSupply",
      "outputs": [
        {
          "internalType": "uint256",
          "name": "",
          "type": "uint256"
        }
      ],
      "stateMutability": "view",
      "type": "function"
    },
    {
      "inputs": [
        {
          "internalType": "address",
          "name": "_to",
          "type": "address"
        },
        {
          "internalType": "uint256",
          "name": "_value",
          "type": "uint256"
        }
      ],
      "name": "transfer",
      "outputs": [
        {
          "internalType": "bool",
          "name": "success",
          "type": "bool"
        }
      ],
      "stateMutability": "nonpayable",
      "type": "function"
    },
    {
      "inputs": [
        {
          "internalType": "address",
          "name": "_from",
          "type": "address"
        },
        {
          "internalType": "address",
          "name": "_to",
          "type": "address"
        },
        {
          "internalType": "uint256",
          "name": "_value",
          "type": "uint256"
        }
      ],
      "name": "transferFrom",
      "outputs": [
        {
          "internalType": "bool",
          "name": "success",
          "type": "bool"
        }
      ],
      "stateMutability": "nonpayable",
      "type": "function"
    }
  ],
  "bytecode": "0x60806040523480156200001157600080fd5b50604051620015423803806200154283398181016040528101906200003791906200027f565b82600281905550600254600360003373ffffffffffffffffffffffffffffffffffffffff1673ffffffffffffffffffffffffffffffffffffffff1681526020019081526020016000208190555081600090816200009591906200055a565b508060019081620000a791906200055a565b5050505062000641565b6000604051905090565b600080fd5b600080fd5b6000819050919050565b620000da81620000c5565b8114620000e657600080fd5b50565b600081519050620000fa81620000cf565b92915050565b600080fd5b600080fd5b6000601f19601f8301169050919050565b7f4e487b7100000000000000000000000000000000000000000000000000000000600052604160045260246000fd5b62000155826200010a565b810181811067ffffffffffffffff821117156200017757620001766200011b565b5b80604052505050565b60006200018c620000b1565b90506200019a82826200014a565b919050565b600067ffffffffffffffff821115620001bd57620001bc6200011b565b5b620001c8826200010a565b9050602081019050919050565b60005b83811015620001f5578082015181840152602081019050620001d8565b60008484015250505050565b60006200021862000212846200019f565b62000180565b90508281526020810184848401111562000237576200023662000105565b5b62000244848285620001d5565b509392505050565b600082601f83011262000264576200026362000100565b5b81516200027684826020860162000201565b91505092915050565b6000806000606084860312156200029b576200029a620000bb565b5b6000620002ab86828701620000e9565b935050602084015167ffffffffffffffff811115620002cf57620002ce620000c0565b5b620002dd868287016200024c565b925050604084015167ffffffffffffffff811115620003015762000300620000c0565b5b6200030f868287016200024c565b9150509250925092565b600081519050919050565b7f4e487b7100000000000000000000000000000000000000000000000000000000600052602260045260246000fd5b600060028204905060018216806200036c57607f821691505b60208210810362000382576200038162000324565b5b50919050565b60008190508160005260206000209050919050565b60006020601f8301049050919050565b600082821b905092915050565b600060088302620003ec7fffffffffffffffffffffffffffffffffffffffffffffffffffffffffffffffff82620003ad565b620003f88683620003ad565b95508019841693508086168417925050509392505050565b6000819050919050565b60006200043b620004356200042f84620000c5565b62000410565b620000c5565b9050919050565b6000819050919050565b62000457836200041a565b6200046f620004668262000442565b848454620003ba565b825550505050565b600090565b6200048662000477565b620004938184846200044c565b505050565b5b81811015620004bb57620004af6000826200047c565b60018101905062000499565b5050565b601f8211156200050a57620004d48162000388565b620004df846200039d565b81016020851015620004ef578190505b62000507620004fe856200039d565b83018262000498565b50505b505050565b600082821c905092915050565b60006200052f600019846008026200050f565b1980831691505092915050565b60006200054a83836200051c565b9150826002028217905092915050565b620005658262000319565b67ffffffffffffffff8111156200058157620005806200011b565b5b6200058d825462000353565b6200059a828285620004bf565b600060209050601f831160018114620005d25760008415620005bd578287015190505b620005c985826200053c565b86555062000639565b601f198416620005e28662000388565b60005b828110156200060c57848901518255600182019150602085019450602081019050620005e5565b868310156200062c578489015162000628601f8916826200051c565b8355505b6001600288020188555050505b505050505050565b610ef180620006516000396000f3fe608060405234801561001057600080fd5b50600436106100935760003560e01c806342966c681161006657806342966c681461013457806370a082311461016457806395d89b4114610194578063a9059cbb146101b2578063dd62ed3e146101e257610093565b806306fdde0314610098578063095ea7b3146100b657806318160ddd146100e657806323b872dd14610104575b600080fd5b6100a0610212565b6040516100ad9190610ae1565b60405180910390f35b6100d060048036038101906100cb9190610b9c565b6102a0565b6040516100dd9190610bf7565b60405180910390f35b6100ee610392565b6040516100fb9190610c21565b60405180910390f35b61011e60048036038101906101199190610c3c565b610398565b60405161012b9190610bf7565b60405180910390f35b61014e60048036038101906101499190610c8f565b610502565b60405161015b9190610bf7565b60405180910390f35b61017e60048036038101906101799190610cbc565b610616565b60405161018b9190610c21565b60405180910390f35b61019c61062e565b6040516101a99190610ae1565b60405180910390f35b6101cc60048036038101906101c79190610b9c565b6106bc565b6040516101d99190610bf7565b60405180910390f35b6101fc60048036038101906101f79190610ce9565b6106d3565b6040516102099190610c21565b60405180910390f35b6000805461021f90610d58565b80601f016020809104026020016040519081016040528092919081815260200182805461024b90610d58565b80156102985780601f1061026d57610100808354040283529160200191610298565b820191906000526020600020905b81548152906001019060200180831161027b57829003601f168201915b505050505081565b600081600460003373ffffffffffffffffffffffffffffffffffffffff1673ffffffffffffffffffffffffffffffffffffffff16815260200190815260200160002060008573ffffffffffffffffffffffffffffffffffffffff1673ffffffffffffffffffffffffffffffffffffffff168152602001908152602001600020819055508273ffffffffffffffffffffffffffffffffffffffff163373ffffffffffffffffffffffffffffffffffffffff167f8c5be1e5ebec7d5bd14f71427d1e84f3dd0314c0f7b2291e5b200ac8c7c3b925846040516103809190610c21565b60405180910390a36001905092915050565b60025481565b6000600460008573ffffffffffffffffffffffffffffffffffffffff1673ffffffffffffffffffffffffffffffffffffffff16815260200190815260200160002060003373ffffffffffffffffffffffffffffffffffffffff1673ffffffffffffffffffffffffffffffffffffffff16815260200190815260200160002054821115610459576040517f08c379a000000000000000000000000000000000000000000000000000000000815260040161045090610dd5565b60405180910390fd5b81600460008673ffffffffffffffffffffffffffffffffffffffff1673ffffffffffffffffffffffffffffffffffffffff16815260200190815260200160002060003373ffffffffffffffffffffffffffffffffffffffff1673ffffffffffffffffffffffffffffffffffffffff16815260200190815260200160002060008282546104e59190610e24565b925050819055506104f78484846106f8565b600190509392505050565b600081600360003373ffffffffffffffffffffffffffffffffffffffff1673ffffffffffffffffffffffffffffffffffffffff16815260200190815260200160002054101561055057600080fd5b81600360003373ffffffffffffffffffffffffffffffffffffffff1673ffffffffffffffffffffffffffffffffffffffff168152602001908152602001600020600082825461059f9190610e24565b9250508190555081600260008282546105b89190610e24565b925050819055503373ffffffffffffffffffffffffffffffffffffffff167fcc16f5dbb4873280815c1ee09dbd06736cffcc184412cf7a71a0fdb75d397ca5836040516106059190610c21565b60405180910390a260019050919050565b60036020528060005260406000206000915090505481565b6001805461063b90610d58565b80601f016020809104026020016040519081016040528092919081815260200182805461066790610d58565b80156106b45780601f10610689576101008083540402835291602001916106b4565b820191906000526020600020905b81548152906001019060200180831161069757829003601f168201915b505050505081565b60006106c93384846106f8565b6001905092915050565b6004602052816000526040600020602052806000526040600020600091509150505481565b600073ffffffffffffffffffffffffffffffffffffffff168273ffffffffffffffffffffffffffffffffffffffff160361073157600080fd5b80600360008573ffffffffffffffffffffffffffffffffffffffff1673ffffffffffffffffffffffffffffffffffffffff16815260200190815260200160002054101561077d57600080fd5b600360008373ffffffffffffffffffffffffffffffffffffffff1673ffffffffffffffffffffffffffffffffffffffff1681526020019081526020016000205481600360008573ffffffffffffffffffffffffffffffffffffffff1673ffffffffffffffffffffffffffffffffffffffff168152602001908152602001600020546108089190610e58565b101561081357600080fd5b6000600360008473ffffffffffffffffffffffffffffffffffffffff1673ffffffffffffffffffffffffffffffffffffffff16815260200190815260200160002054600360008673ffffffffffffffffffffffffffffffffffffffff1673ffffffffffffffffffffffffffffffffffffffff1681526020019081526020016000205461089f9190610e58565b905081600360008673ffffffffffffffffffffffffffffffffffffffff1673ffffffffffffffffffffffffffffffffffffffff16815260200190815260200160002060008282546108f09190610e24565b9250508190555081600360008573ffffffffffffffffffffffffffffffffffffffff1673ffffffffffffffffffffffffffffffffffffffff16815260200190815260200160002060008282546109469190610e58565b925050819055508273ffffffffffffffffffffffffffffffffffffffff168473ffffffffffffffffffffffffffffffffffffffff167fddf252ad1be2c89b69c2b068fc378daa952ba7f163c4a11628f55a4df523b3ef846040516109aa9190610c21565b60405180910390a380600360008573ffffffffffffffffffffffffffffffffffffffff1673ffffffffffffffffffffffffffffffffffffffff16815260200190815260200160002054600360008773ffffffffffffffffffffffffffffffffffffffff1673ffffffffffffffffffffffffffffffffffffffff16815260200190815260200160002054610a3d9190610e58565b14610a4b57610a4a610e8c565b5b50505050565b600081519050919050565b600082825260208201905092915050565b60005b83811015610a8b578082015181840152602081019050610a70565b60008484015250505050565b6000601f19601f8301169050919050565b6000610ab382610a51565b610abd8185610a5c565b9350610acd818560208601610a6d565b610ad681610a97565b840191505092915050565b60006020820190508181036000830152610afb8184610aa8565b905092915050565b600080fd5b600073ffffffffffffffffffffffffffffffffffffffff82169050919050565b6000610b3382610b08565b9050919050565b610b4381610b28565b8114610b4e57600080fd5b50565b600081359050610b6081610b3a565b92915050565b6000819050919050565b610b7981610b66565b8114610b8457600080fd5b50565b600081359050610b9681610b70565b92915050565b60008060408385031215610bb357610bb2610b03565b5b6000610bc185828601610b51565b9250506020610bd285828601610b87565b9150509250929050565b60008115159050919050565b610bf181610bdc565b82525050565b6000602082019050610c0c6000830184610be8565b92915050565b610c1b81610b66565b82525050565b6000602082019050610c366000830184610c12565b92915050565b600080600060608486031215610c5557610c54610b03565b5b6000610c6386828701610b51565b9350506020610c7486828701610b51565b9250506040610c8586828701610b87565b9150509250925092565b600060208284031215610ca557610ca4610b03565b5b6000610cb384828501610b87565b91505092915050565b600060208284031215610cd257610cd1610b03565b5b6000610ce084828501610b51565b91505092915050565b60008060408385031215610d0057610cff610b03565b5b6000610d0e85828601610b51565b9250506020610d1f85828601610b51565b9150509250929050565b7f4e487b7100000000000000000000000000000000000000000000000000000000600052602260045260246000fd5b60006002820490506001821680610d7057607f821691505b602082108103610d8357610d82610d29565b5b50919050565b7f496e76616c696420616c6c6f77616e6365000000000000000000000000000000600082015250565b6000610dbf601183610a5c565b9150610dca82610d89565b602082019050919050565b60006020820190508181036000830152610dee81610db2565b9050919050565b7f4e487b7100000000000000000000000000000000000000000000000000000000600052601160045260246000fd5b6000610e2f82610b66565b9150610e3a83610b66565b9250828203905081811115610e5257610e51610df5565b5b92915050565b6000610e6382610b66565b9150610e6e83610b66565b9250828201905080821115610e8657610e85610df5565b5b92915050565b7f4e487b7100000000000000000000000000000000000000000000000000000000600052600160045260246000fdfea2646970667358221220f727853b8102eca2b4f29489551bcce2708040ca52f5f562b9947f496b66a31f64736f6c63430008130033",
  "linkReferences": {},
  "deployedLinkReferences": {}
}